:1000000040F70320199B000023270100059B0000F7
:10001000059B0000059B0000059B0000059B000060
:10002000000000000000000000000000719C0000C3
:10003000059B000000000000159C0000059B0000CF
:10004000059E0000059E0000059E0000059E000024
:10005000059E0000059E0000059E0000059E000014
:10006000059E0000059E0000059E0000059E000004
:10007000059E0000059E0000059E0000059E0000F4
:10025000059E0000AF2C0100059E0000059E0000D9
:10026000059E0000059E0000992C0100059E0000DF
:10027000059E0000059E0000059E0000059E0000F2
:10028000059E0000059E0000059E0000059E0000E2
:10029000059E0000059E0000059E0000059E0000D2
:1002A000059E0000059E0000059E0000059E0000C2
:1002B000059E0000059E0000059E0000059E0000B2
:1002C000059E0000059E0000059E0000059E0000A2
:1002D000059E0000059E0000059E0000059E000092
:1002E000059E0000059E0000059E0000059E000082
:1002F000059E0000059E0000059E0000059E000072
:10030000059E0000059E0000059E0000059E000061
:10031000059E0000059E0000059E0000059E000051
:10032000059E0000059E0000059E0000059E000041
:10033000059E0000059E0000059E0000059E000031
:10034000059E0000059E0000059E0000059E000021
:10035000059E0000059E0000059E0000059E000011
:10036000059E0000059E0000059E0000059E000001
:10037000059E0000059E0000059E0000059E0000F1
:10038000059E0000059E0000059E0000059E0000E1
:10039000059E0000059E0000059E0000059E0000D1
:1003A000059E0000059E0000059E0000059E0000C1
:1003B000059E0000059E0000059E0000059E0000B1
:1003C000059E0000059E0000059E0000059E0000A1
:1003D000059E0000832C0100059E0000059E000084
:1003E000059E0000059E0000059E0000059E000081
:1003F000059E0000059E0000059E0000059E000071
:10040000059E0000059E0000059E0000059E000060
:10041000059E0000059E0000059E0000059E000050
:10042000059E0000059E0000059E0000059E000040
:10043000059E0000059E0000059E0000059E000030
:10044000059E0000059E0000059E0000059E000020
:10045000059E0000059E0000059E0000059E000010
:10046000059E0000059E0000059E0000059E000000
:0C047000059E0000059E0000059E000097
:10048000064A074B02604FF490725B7A8280082222
:10049000C371FF2382710372704700BF717B00003C
:1004A00018C60320F8B5C41D0028054624F007042B
:1004B0000CBF0020204600F0D1FA071E02DA6FF0D0
:1004C0000B00F8BD254EB18870880331F3790330F5
:1004D000B27989B280B206F01FFD0028EFDB3C4400
:1004E00073783178002D04F10304194424F00304D7
:1004F00000FB01F10CBF0020204600F033FC231864
:100500000DB9002BDBDB717A184679B10333002D6E
:10051000728923F003040CBF0020204600F078FC11
:100520000028CCDB20440DB90028C8DB317A91B11A
:10053000737A83B1C41D002D24F007040CBF002082
:10054000204601F067FC0028B9DB0DB10020B8E7B8
:100550002018B6D5B3E7002DF8D1B2E718C60320AE
:100560001FB572B6194BDC68ECB9BFF34F8F184951
:10057000184BCA6802F4E0621343CB60BFF34F8F9D
:1005800000BFFDE7B2FBF6F22B465D1C002AF9D155
:10059000DBB203F110056D4405F80C2C0A2233B9C7
:1005A00001A8A047E1E7024600230A26EDE7013B48
:1005B000DBB203F110050DEB0506B0FBF2F502FB13
:1005C0001500303006F80C0C2846E8E718C6032062
:1005D00000ED00E00400FA050A4B07B5DA8868462A
:1005E000ADF800209A885B88ADF80420ADF80230A1
:1005F00000F064FF18B1FC219C20FFF7B1FF03B0AD
:100600005DF804FB18C6032038B5054640B305F075
:1006100093FF10B94FF0FF3038BD05F023FEB0F561
:10062000FA7FF7D8104C1148E56000F093F90023E9
:1006300023744FF4807323801B236380A38040F2D4
:100640000323E3804FF4847323811F236381EFF33B
:10065000108472B600F0B2FC04B962B60020DBE789
:100660006FF01500D8E700BF18C60320D9050000B9
:1006700010B5002840D1234C237C032B39D059B12D
:10068000002A3CD00239052936D8DFE801F00312F0
:1006900027352A2D137863700020FFF703FF002809
:1006A000B7BF012302236FF00B002374A8BF23748C
:1006B00010BD13791BB353790BB31188FB291ED8D6
:1006C00053881B3B9BB2E02B19D81A2917D9136802
:1006D0009288C4F802300C4B9A80DDE7137863727D
:1006E000DAE713886381D7E71388FF2B07D82372D3
:1006F000D2E74FF0FF30DBE76FF02C00D8E76FF068
:100700001500D5E718C603201AC60320F8B50D4614
:10071000064620B319B311F0070420D1114F3B7CDA
:10072000012B02D16FF00B00F8BD032B02D14FF06B
:10073000FF30F9E700F054F80028F8D02846FFF71A
:10074000B1FE0028EEDB07F0D9FB3046214600F071
:10075000F9FEFFF741FF032320463B74E4E76FF007
:100760001500E1E718C6032010B5064C237C032BC7
:1007700003D100F0FFFE01F07BFA06F0C6FC00207A
:10078000207410BD18C6032050B1074B03F11402AA
:1007900053F8041B934240F8041BF9D10020704722
:1007A0006FF01500704700BFB561010008B500F09B
:1007B000AFFE03490120BDE8084000F047B900BF83
:1007C0008104000002680020014B1A60704700BFDE
:1007D0002CC60320014B1B68184700BF2CC6032002
:1007E000024B1868003818BF012070472CC6032040
:1007F0002DE9F7430446264E071D2548376001F0D2
:1008000047FA0228054607D12149204606F0DCF8C0
:10081000284603B0BDE8F0830428F9D13378072BCC
:1008200018D13E2000F04AF878B9F37801A932795E
:10083000684643EA0223ADF8003006F0C1FA00280A
:10084000DBD053210820FFF78BFE052000F06EF867
:100850000028EAD03146204606F0EEF8B0F5817F58
:1008600001D37221EEE70028C7D094F8008094F8F5
:100870000290404600F022F80028BED0B8F13E0FAA
:10088000C6D1484600F052F80028C1D1B5E700BFF4
:1008900030C60320074B4FF0FF3141F6FF72C3E92A
:1008A000001205490022C1E900221F21C3E90212FA
:1008B000704700BF40C0032074C603203F280CD8F7
:1008C00001380B4BC0F3421200F01F0053F82230E6
:1008D00023FA00F000F001007047FF2806D04038EE
:1008E000044BC0F3421200F01F00EFE701207047F5
:1008F00040C0032074C60320074B014600684968C6
:100900001A4603C240F48C221A6041F0107242F47D
:10091000FF625A60704700BF40C003200246024B8E
:100920000068516803C3704748C00320431EF42881
:10093000DBB21FBF064A590903F01F0302EB810215
:100940001DBF9068D84000F001000020704700BF34
:1009500040C00320014B1860704700BF7CC60320D5
:1009600010B5FFF797FF06F02FFC034B04461B68FA
:1009700003B19847204610BD7CC603200A8870B595
:1009800095B2C67CC2F30E020488023602F1180347
:100990003444C35AA4B233442344013BB3FBF4F3BD
:1009A00003FB0422438892B29342044B8BBF2B403B
:1009B000AB4313439BB20B8070BD00BF0080FFFFB1
:1009C0004A1E062A08B50346084604D84FF4D171DA
:1009D0001520FFF7C5FD094A914202D940F2A31143
:1009E000F6E711B903B1196008BD2BB11B680022ED
:1009F000C3E901211A1D1A600430F5E7FAFFFF7FF1
:100A000010B5114B00EB41041A786389B3FBF2F384
:100A100003FB0223013A1A44B2F5706F0279807821
:100A200028BF00231A440B18B2FBF0F100FB112180
:100A30005B1AB3FBF0F100FB113313446FEA43433D
:100A40006FEA5343638110BD80C60320024B03EB62
:100A500080035960704700BF80C603202DE9F04F26
:100A600010F0070A85B0054604D040F26111172046
:100A7000FFF776FD524F044607F10C06B146B0462B
:100A800057F8043B8DF80BA03BB101A898479DF89F
:100A90000A30082B01D9E821E9E79DF80B1041BB8A
:100AA00005B131604F4506F10406E9D1002D6ED045
:100AB0000022DFF810910227964689F8002058F8A6
:100AC00027A0013FBAF1000F54D09AF804609AF8B9
:100AD00002C0FF2E5FD039460023481C37D19C440A
:100AE000BCF1FF0F3ED90AB189F800E040F22711AE
:100AF000BDE79DF80AC04B1D60465A0004EB430356
:100B0000022838BF0220441E40422344BDF808405A
:100B10006444CCF1000C0340013C04EA0C04B4F53D
:100B2000803F01D3F821A2E775B19A1A0120326003
:100B300091701480D0709DF80C00107101984FEAEC
:100B4000104C1081A2F806C004FB0134AAE758F843
:100B5000210028B190F804B0B34504BF80781B1879
:100B60000139BAE7DBB2E6458AF804303CBF5FFAE8
:100B70008CFE01227B1CA2D10AB189F800E002267A
:100B800040F6FF6A58F82670B7B9013EFAD2601BEA
:100B900005B0BDE8F08F0023E5E707EB410309F15D
:100BA00001093846A3F80AA0FFF72AFF5FFA89F186
:100BB000BB788B42F1D8E8E74FF00009F6E700BFB9
:100BC00084C6032080C6032038B54FF6FF73024663
:100BD0000380184B03EB81031869A8B1847803796B
:100BE000B3FBF4F104FB1133DBB2194600EB410512
:100BF000B5F90A50002D0EDB0131B1FBF4F504FB11
:100C00001511C9B28B42F1D1002038BD6381BDE816
:100C1000384006F05DB900EB41046389C3F30E036D
:100C20001380C278002AF1D14FF4D5711720FFF755
:100C300097FC00BF80C603201C4B03EB810370B5FB
:100C40001C69054644B3030404D54FF4DC71172036
:100C5000FFF786FC0146204606F01DF9FF280146F5
:100C600004D02046BDE8704006F032B9A078B5FB4C
:100C7000F0F300FB1353DBB219460A1D04EB4206E6
:100C8000B6F90260002E09DB0131B1FBF0F200FB86
:100C90001211C9B28B42F0D1002070BD8B4201D03D
:100CA0000023E37004EB42025580DAE780C603209C
:100CB000094B03EB8103014610B51C69204606F081
:100CC000EAF8FF28014604D02046BDE8104006F0AF
:100CD000FFB8002010BD00BF80C60320F8B5104B40
:100CE000074603EB810301461C69204606F0D3F852
:100CF000FF28054611D0E288238953EA024606D030
:100D00000146204606F0E4F801463846B047204642
:100D10002946FFF775FE0020F8BD0520FCE700BF5F
:100D200080C6032038B50E4B0446827903EB82035C
:100D3000186908B9052038BD8278E1799142F9D265
:100D40004B1CE37100EB41035D89B3F90A30002BC2
:100D5000F3DBA58006F0BCF820600020EBE700BFC5
:100D600080C6032070B5044610F003000E4603D081
:100D70004E211820FFF7F4FBFFF722FE054624B1B1
:100D8000034831460460FFF71BFE284670BD00BFD4
:100D90009CC603202DE9F14FDFF870B01E460746D0
:100DA0000D46DBF8003090469DF828A09DF82C9069
:100DB0001BB960211820FFF7D3FB5246092140469A
:100DC00006F027F84A4684B20921304606F021F899
:100DD00081B2DBF80000214406F038F8386018B919
:100DE000286001B0BDE8F08F044453464146092213
:100DF0002C60386805F0ECFF4B4609223146286824
:100E000001B0BDE8F04F05F0E3BF00BF9CC6032072
:100E10001F2AF8B5044613460ED89200033222F07A
:100E20000303B3F5803F2DD2184DACB1A00710D00D
:100E30005F210920FFF794FBFF2B4FEA420204D900
:100E4000FF339A42A8BF1A46E8E77C2AB8BF7C2243
:100E5000E4E729706C602B8122F00302282301272C
:100E6000120403FB01F06B680025120CEEB2B142D4
:100E700000D8F8BD14B126181F705E60104401350B
:100E80002833F3E74FF0FF30F3E700BFA0C603209D
:100E9000154A002170B553681578C8B2854203D849
:100EA000AB210920FFF75CFB1C461846013114F802
:100EB000286B0EB92346F0E70021997001241289AE
:100EC000996103F126055C709208D96103F11E0453
:100ED000596824F8022FA54243F8041F1144F8D1A1
:100EE00000234361037070BDA0C603204B782DE939
:100EF000F04106460C4602F0040702F0FB05E3B1A0
:100F0000A5BBFF23A3707B0804EB57073A7D032A98
:100F100002D1022D18BF0133E2180121117503F12E
:100F20000C01002204EB830324F811205B68A270FB
:100F300030463360B280BDE8F081002DE1D101235D
:100F400001F11E028D6120464B7004F1260C1A4BF4
:100F5000CD611B8949689B0822F8023F944540F8FF
:100F6000041F1944F8D100236361CAE7D1F8048053
:100F700014220021A018617007F08AF90E4B1B891A
:100F8000B3F5FF7F0FD25A089B1A9BB208EB0301FF
:100F9000C4F804802384A1606284C4F80C80A38414
:100FA0002161E284ADE7B3F5EE6F4FF0FF02EBD9BC
:100FB00040F27263EAE700BFA0C603201F4B4FF068
:100FC000FF3000211A6801235360C2F80803C2F8F9
:100FD0000015C2F804351A4A12685360C2F80803B3
:100FE000C2F8001540F6FE71164A1748C2F80815F7
:100FF000B0F90020002A0CDB510902F01F029340D7
:1010000001F12002114941F82230BFF34F8FBFF3A5
:101010006F8FB0F90030002B09DB5A09012103F072
:101020001F03994002F16003084A42F82310054B60
:1010300040F6FE72C3F80825704700BF80CE03203B
:101040007CCE03200020085094CE032000E100E075
:10105000014B1876704700BFB0C6032010B50121C0
:101060000020FFF725FE044670B90121FFF7E4FDDB
:10107000044620B94FF464713920FFF771FA034B2D
:1010800093F9061006F046FD204610BD50C7032018
:1010900008B506F0A9FA00F0EDFB00F08DFA06F0B5
:1010A000CDFB00F0E7FC00F0C7FE0022084B1B213F
:1010B0004FF4A4701A60074B98801A805980064834
:1010C000064B186099805A745A829A829A7508BDA4
:1010D00088C0032050C7032003021B007CCB0320E1
:1010E000044B41F64C52C3E902221B221A74FFF74B
:1010F000CFBF00BF7CCB032073B5234D0446AB6844
:101100000363224B836106F024FC064600F044FA98
:101110008306297C53BF1B236B88AA881A46A4F830
:101120005A301B4BA4F85C201B6884F83810668783
:101130001BB194F9701020889847164E204631460E
:1011400006F0DEFA01236A8804F110006978E3856D
:101150000332AB88019192B216F8121C033300914E
:101160009BB204F11401FFF715FE236923B940F285
:10117000C7613920FFF7F4F9636913B94FF4D961F6
:10118000F7E7002002B070BD7CCB032000093D00D2
:101190008CC003208ECB0320F7B504460D4606F025
:1011A000ECFC00286DD0204606F0C3FD38B1B5F840
:1011B0000130013B7F2B02D9122003B0F0BD204645
:1011C00006F0BBFD08B90C20F7E7204606F053FCFB
:1011D0000028F8D1204606F08EFC06460028F2D101
:1011E000204601F011FB0028E6D042F21073B5F85A
:1011F0000170E97820465F4306F087FD204606F03F
:1012000090FD014648B93A46204600F0E7FEB0B3EB
:101210004FF4E4513920FFF7A3F931460DF10600F0
:10122000FFF7D2FC054608B90D20C6E7314606F0A7
:101230001BFABDF80630204629462B8006F087FDB4
:10124000204606F080FD88B9216A204606F07DFD23
:1012500001462846FFF750FF3A462946204600F04F
:10126000BDFE024620B141F6A341D3E70121F0E7DC
:10127000054B9B681BB105F58D71284698470020EA
:101280009BE7422099E700BF50C70320034B5A88D1
:1012900002801B7883700020704700BF7CCB032046
:1012A000F7B5077805460C46EF2F0FD890F90120C7
:1012B0004378002A0ADB8278900707D113F01000E8
:1012C0001DD1990603F0030202D51AB1122442E09F
:1012D000032AFBD01E07F9D42979EA78EE7942EA8D
:1012E0000122697942EA0142A97941EA06212E7A6E
:1012F00041EA06418A42E9D81F2A0FD8E6E713F0EF
:10130000600FE3D103F00702052A05D003F00F01B7
:101310000D22CA40D107D9D51A07DDD56A7A013A1C
:10132000062AD3D8AA7A032AD0D813F0040102D10E
:10133000023A012A03D8EA7A012AC7D811B9AA7C4D
:10134000032AC3D82A7D48B1012ABFD12A7E012AA7
:10135000BCD830B91124204603B0F0BD022AF5D123
:10136000B4E7DB0712D46B782A7D03F01803082B4F
:1013700011D1022AEED101213846FFF799FC064629
:1013800078B106F078FBB8B10C24E4E700F0D4F8AB
:101390000028E8D1DEE7022AEDD02B7F002BEAD02F
:1013A000D8E701213846FFF747FC064640B3154B06
:1013B00093F9061006F0AEFB304606F0AFFC294666
:1013C0002070E874304606F0F4FBEB7E0446002BF8
:1013D000C1D00028BFD10246316B6846FFF786FDB9
:1013E0002246306B012105F0DEFD316B6846042298
:1013F000FFF77CFD22462146306B05F0D4FDAAE7BD
:101400000724A8E750C7032030B502798BB0034604
:10141000042A4FD84088B0F5804F4BD82649002485
:101420008D5C1144ADF800404A798DF8084042F0D7
:1014300010028DF8244042EA45028D7AC97B42EAC7
:10144000850242EAC102694602F01F028DF80020BF
:10145000BDF80020ADF809201A888DF80E00000AAA
:101460008DF80B20120A8DF80D408DF80C208DF8A8
:101470000F008DF810405A7BD3F807008DF811202B
:101480005A79059002A88DF812209A798DF81320C8
:10149000B3F80B209B7BADF818208DF81A307F2312
:1014A0008DF81B304FF00113CDE90734FFF7F8FE3C
:1014B0000BB030BD1220FBE77C42010002780346EE
:1014C00072B1427862B142881A2A09D982881A2AEE
:1014D00006D90068034A106000209B8893807047FB
:1014E000122070477CCB032002680020014B9A60D9
:1014F000704700BF7CCB032008B501F07DF900F0F8
:1015000059FE0248BDE8084001F060B95CC70320FD
:1015100010B5064C064904F5027006F045F804F5CE
:1015200003700449BDE8104006F03EB85CC70320D4
:1015300090C0032098C00320014B93F8020170472C
:101540005CC7032010B5074C00F07EFBD4F80802FE
:1015500006F022F8FFF7C4FD00F000FC012384F838
:10156000143210BD5CC70320014B93F8140270477E
:101570005CC7032010B5074CD4F80C0206F00CF839
:10158000D4F8100206F008F8FFF782FD002384F873
:10159000143210BD5CC70320014BD3E90001704732
:1015A00050C00320034B1868C0F30020400040F0F7
:1015B0000100704750C0032008B504F053FE00231B
:1015C000074A32F82310814205D302EB8302937855
:1015D000044A137008BD01330C2BF2D10023F7E746
:1015E0009042010071C90320054B9A8C824201BFD1
:1015F000002283F822204FF6FF729A84704700BFC2
:1016000072C9032050B90A4A0120134603F8010B9E
:101610000868C2F801008A889A807047012805D1BD
:10162000034B0A68D8719A608A889A81704700BF14
:101630009CC9032050B90B4B187888B1D3F801200E
:10164000B3F805300A6001208B807047012806D16D
:10165000044BD87920B19A689B890A60F3E700208F
:10166000704700BF9CC9032010B9044B187870471D
:10167000012806BF014BD879002070479CC9032080
:10168000F7B58A8800238DF80600ADF804200868B5
:101690000B4A8DF807300146147802F5A872019DB7
:1016A000D8B2844201D8082007E052F8087F0133FD
:1016B0005668AE4208BF8F42F2D103B0F0BD00BF02
:1016C000B0C90320084B0146002230B55C7803F214
:1016D0000113D0B2844201D8082004E013F8015F5E
:1016E00001328D42F5D130BDB0C90320F0B5254D92
:1016F00089B095F8984105F299116846224605F09F
:10170000C3F82146684605F08EFF0446B8B300EBE7
:10171000400102A8C9B2FFF75DF8631E95F8A16108
:101720000124DBB295F8981105E0721CB2FBF1F0D0
:1017300001FB1022D6B206F120020DEB020010F8D8
:10174000202C002AF1D103EB430100F8204C06EBDA
:10175000460220312A44694411F8187C82F8A271AB
:1017600011F8177C11F8161C82F8A37182F8A411E5
:10177000013BAA19DBB282F89941FF2BD2D109B003
:10178000F0BD00BFB0C9032070B5064688B00C4656
:10179000002A4ED0294A92F8A131D01890F8991118
:1017A00019B9FF212820FEF7DBFE03EB43010133CB
:1017B000114491F8A251E57091F8A35191F8A41148
:1017C00025716171002180F8991192F89811B3FB8D
:1017D000F1F001FB103382F8A13192F8C23123B944
:1017E000174902F5DD7006F04BF865790D220021EE
:1017F000684605F03F0545F04005657106F048FD77
:10180000E37804AA69468DF80F30304623798DF8C5
:101810000D508DF80E30042306F0A4FC9DF81F3007
:1018200023709DF81E3063709DF81D30A37008B0C2
:1018300070BD03216018FEF7CDFFD6E7B0C90320C5
:10184000ED160000044B5A78824286BF1B1893F8AD
:101850004A010020704700BFB0C90320044B5A78EA
:10186000824286BF1B1893F842010020704700BFD8
:10187000B0C90320064B00224FF461711A8083F82F
:10188000C32183F8C421A3F8C61183F8C22170478D
:10189000B0C90320014BB3F8C6017047B0C903209B
:1018A0000A4B30B55C7884420ED9184490F8020196
:1018B0002B3003EBC004A5790D7053F83000106095
:1018C0000120A388938030BD0020FCE7B0C903202D
:1018D0000246074810B590F8C34124B1417821B1C0
:1018E000023001F029F9204610BD0C46FBE700BF8D
:1018F000B0C903202DE9F74F2F4C9A468046894600
:101900006378834256D9231893F8425185F0010534
:10191000F9B193F84A31E3B945F002070135BAF15C
:10192000000F18D1FA070AD5062104EB0810524619
:1019300001FB0841823001F58571FFF725FFBB07E8
:1019400034D504EB0810524649460230FFF71CFF1D
:101950002CE02F46E3E794F8A1614FF0010B002D36
:10196000E0D0A31993F89911019399B90092DAB1D3
:1019700000F0C4F9019B06EB4601009A4FEA102CD7
:1019800083F899B1214481F8A201000C81F8A3C128
:1019900081F8A401013694F89831013DB6FBF3F1CA
:1019A00003FB1166F6B2DAE747F00407384603B0E6
:1019B000BDE8F08F0027F9E7B0C90320074B5A783C
:1019C000824209D91A1892F842212AB9062202FB4A
:1019D000003000F58570704700207047B0C90320C3
:1019E000064B5A78824281BF1B1893F83A01B0FA2D
:1019F00080F0400998BF0020704700BFB0C90320A5
:101A000030B5002442F21075A0F84040B0F84440D0
:101A10004C43B4FBF2F4A0F84440541E05FB0343CE
:101A2000B3FBF2F3A0F84230084BB3FBF2F30133FF
:101A3000A0F84830838F05FB0344436B5943B4FB44
:101A4000F2F4B1FBF2F18463416330BD005A6202EB
:101A5000074B93F900301844142804DC10F17F0F71
:101A600003DB40B27047142070476FF07E00704770
:101A700078CB0320024B00221A705A70704700BFC7
:101A800078CB032083230B70014B1B78CB707047FE
:101A900094CB03202DE9F34782468946052700268B
:101AA000DFF84881D9F8103053B11B7A1BB9802177
:101AB0001020FEF755FDD9F81040B4B9002071E0B0
:101AC000D9F80440237A012BF8D0EFF3108372B6D3
:101AD000D9F804201268C9F8042003B962B6C9F81D
:101AE0001040237A0BB9A621E2E7257AEDB22772DE
:101AF0006B1E0B2B6AD8DFE803F066061C346369A3
:101B00003D6969696958636813B94FF4D771CFE7C4
:101B10002046514698470420EFF3108272B6237A8C
:101B2000052BD9B25CD12672C9F81060B2B962B681
:101B300014E0636813B940F2B711B9E75146204683
:101B400098470346ADF80400C0B2C3F30723012B46
:101B50003FD0022BE0D10023C9F810300028A1D0DB
:101B600020E0636813B940F2BF11A1E7204698470F
:101B70000020D1E763680BB9B52199E70B22002457
:101B80008AF800200122198818698AF80220AAF828
:101B900003108AF805208AF8064005F04DF9042064
:101BA000C9F8104002B0BDE8F087D8F800305146BF
:101BB00020469847034660B10220C9F81060F1E75B
:101BC0004FF4FB7174E740F2F91171E74FF4FE71C5
:101BD0006EE725720028E5D1002B7FF463AF6DE737
:101BE00011B940F21D2163E700209FE7A4C0032044
:101BF00038B5134C14220021201D06F049FB0125A5
:101C0000257404F108031422002104F11800C4E92A
:101C1000013306F03DFB84F8245004F11C03094A0B
:101C2000C4E906330023E362236384F83430C4F844
:101C30003530C4F8393084F83D30136038BD00BF0A
:101C400094CB0320A0C0032010B5084C2378FF2BB1
:101C500004D04FF4A0711020FEF782FC04F048FD80
:101C60002070BDE81040FFF7C3BF00BF5DC0032078
:101C700010B5034C207804F055FDFF23237010BDF0
:101C80005DC00320014B187804F05CBD5DC00320EB
:101C900010B506490446FFF7FDFE28B92046044961
:101CA000BDE81040FFF7F6BE10BD00BFACCB03206F
:101CB00098CB0320134610B5027A22B140F2992145
:101CC0001020FEF74DFC0A4601460248BDE81040D0
:101CD00005F0B6BD98CB03200346064890F83E2099
:101CE0003AB190F83D2022B9034900F8353B05F0A0
:101CF000C4BD704794CB0320851A0000094AD2E97D
:101D00000003434083EAB01181EA43214FEAF343E1
:101D100011605360044B58434FEAF06000EB8000C1
:101D2000704700BFD4CB0320BB79379E094AD2E964
:101D30000003434083EAB01181EA43214FEAF343B1
:101D400011605360044B58434FEAF06000EB800091
:101D5000704700BF60C00320BB79379E10B50A4CA6
:101D600008210948FEF736FDD4E900321343F7D0C5
:101D7000064CFFF7DBFF2060FFF7D8FF23686060A9
:101D80001843F6D010BD00BF60C00320D4CB0320A1
:101D9000F0B51F4D00242B7814709BB1013B6D688A
:101DA000DBB21E1B012E0FDC05EBC40655F83470A8
:101DB00076688E4208BF874227D0B84271EB06068C
:101DC00012D214700020F0BD1E197710C6F347061A
:101DD00055F837C005EBC70E8445DEF804708F4117
:101DE0002CBF33463446DCE705EBC30455F83350CB
:101DF00064688C4208BF854206D0A84271EB040497
:101E000028BF01331370DDE71C4601201470DAE7A8
:101E1000FCCB032010F0070208B503D06321482053
:101E2000FEF79EFB18B1034B197258601A70C80078
:101E300008BD00BFFCCB0320014B00221A70704785
:101E4000FCCB0320F7B5044618B9E2213020FEF799
:101E500087FB072900F2BC80DFE801F004844646D6
:101E600041BA33B703F0DCF9C4E94001204600F081
:101E7000F3FDD4F8F400A43803F02AFA10B940F2C4
:101E80007B21E3E7204605F054FF0546F8B90146FB
:101E9000204605F077FE00F1AE06D4F8F400B0421B
:101EA00009D2301A0321192838BF192003F02BF961
:101EB000051E18BF0125C4F8F460204605F053FF45
:101EC0003DB1204603B0BDE8F04005F04DBF002510
:101ED000F3E7D4E94023C4E93A2303B0F0BD03B0EB
:101EE000BDE8F04001F02CBC05F057FE002307468A
:101EF0000E4684F8F93003F003F80722A7FB0235F9
:101F000002FB0655D4F8EC200192D4F8E8209B1887
:101F1000019A45EB0205D4F8CC2032B157EA06020B
:101F200003D0984271EB050216D2022284F8F82001
:101F3000D4F80821D4F80CC1121A6CEB010C94F8F7
:101F400018E1BEF1000F09D1012A7CF1000E11DA6F
:101F5000204600F089FD05E00122E7E7012A7CF137
:101F6000000CF5DB94F8C80002F0E2FF002384F8CF
:101F70001031B2E7984271EB050E0ED23E430CD001
:101F80001B1A65EB01019A427CEB010005DB012B7A
:101F900071F10000A4BF1A468C460F49012394F842
:101FA000C800914284F811314FF0000384F8F030FA
:101FB00073EB0C03B8BF0A4604F1F00103F0A8F973
:101FC00000288AD140F2EF6140E74FF480713DE78D
:101FD0004FF482713AE700BF0040420F2DE9F04113
:101FE00004460E46154690F8103103F0FF071BB16A
:101FF0000C273846BDE8F0810146474802F0A8FFAB
:1020000020288046F4D05722394604F1C90006F052
:102010003FF984F8C880C4F8CC60FF2384F81031FD
:1020200036B1FFF783FE00F00700013086F8CC01DF
:1020300002234FF00008A4F8F83084F8F08004F090
:102040001BF900F14906204605F073FE0146B6B2C1
:10205000002839D005F0C6FA00F5CD61284689B2CE
:1020600004F0B4F82844AE3DC4F8F40002F048FF90
:102070003018A4F8268041F10001C4E94001012094
:1020800084F8D00005F00CFF2D1AC4F8D4504FF09E
:10209000FF356FF0004194F8C800D4E94023C4E94B
:1020A0004251002504F1F001C4E93823C4E93A2380
:1020B00084F8115142F2107203F02AF938BB40F251
:1020C000EB113020FEF74CFA2046DFF8508005F087
:1020D00059FDAE30C4F8F400B8F8000048B1E08C07
:1020E00038B1FFF723FEB8F80030B0FBF3F202FB83
:1020F0001300064402F004FF361841F10001C4E960
:102100004061002DC3D0AD1941F10001C3E729465C
:10211000204605F02BFE6CE7451E000028CC03206E
:10212000F0B5002385B0CDE9003301238DF80630EA
:102130006846FEF7F7FD70B11D4E01230027B3700E
:10214000CDE9027702A8FEF7EDFD0546C8B10023F0
:10215000B37005B0F0BD009805F0C4FBE8E790F857
:10216000F70102F09BFF94F8F70103F03FF894F8B1
:10217000F70184F8DC5102F0DBFE202384F8F7310C
:10218000DEE7029B002BDDD093F8F721202AD9D07F
:1021900018884FF6FF739842D9D02946FEF788FD7C
:1021A00004460028DBD140F237113020FEF7D8F981
:1021B00028CC0320044B0022DA709A7042F210728D
:1021C0001A80FFF7ADBF00BF28CC0320014BD870A9
:1021D000704700BF28CC0320014B1880704700BF18
:1021E00028CC03200346074A1068D3F85120C0F8D2
:1021F0000320B3F85520A0F8072093F8501005F0FD
:10220000A2BA00BF30CC032070B504460E46134678
:10221000407F6588324615F0040118BF04F15F0164
:10222000FFF768FB4107054621D4C2070BD5012300
:10223000607F84F85030FFF7C1FB0368C4F8513069
:102240008388A4F85530AB0701D4012070BD094B39
:1022500001211868D4F85F3084F85E10C0F80930A6
:10226000B4F86330A0F80D3005F076FAEDE7002001
:10227000ECE700BF30CC032038B5C38D04460F4DCA
:102280000133C3F30E03C385AB7C2BB101F03EFADF
:1022900000F0B0FC0023AB7400232B7194F8713074
:1022A0002BB101212046BDE8384005F062BB637CBC
:1022B00013B1E28D9A42F4D20021F3E730CC03202F
:1022C00010B5094C2379012B02D02379022B05D1BB
:1022D000A37C1BB101F01AFA00F08CFCE069BDE8A8
:1022E0001040FFF7C9BF00BF30CC032070B5294CA8
:1022F0002379012B07D02379022B04D040F65941D2
:102300002D20FEF72DF9A0B90125A37C1BB101F00A
:10231000FDF900F06FFC002D3AD0E06905F007FBF5
:10232000002830D001F0F0F8236ABDE870409B68C7
:1023300018472168E26911F8095B02F1510392F82C
:102340005020E80905F051F90028DDD0002120686F
:1023500005F027FA0028D7D02379E069012B05D0B2
:102360002379022B02D040F63241C9E7237905F0E8
:102370000F01226A03F180435269013B52F8233076
:1023800098470546C1E7E069BDE87040FFF774BFB4
:1023900070BD00BF30CC03200346074AD06903B9A3
:1023A00009B9FFF769BF1379126A03F18043126913
:1023B000033B52F82330184730CC032003292DE982
:1023C000F043054685B0174607D14388980723D4C4
:1023D0000024204605B0BDE8F083428890F87030B4
:1023E000D107DBB2F4D5002BF2D14FF00108DFF8B2
:1023F000D49099F81260C6B105F02CF9082838700D
:1024000016D002AA0DF10701FFF74AFA38B940F6D3
:10241000D1612D20FEF7A4F84FF00208E7E702A9EA
:102420009DF8070005F049FA06463B78082B08D1CD
:10243000D9F8001011F8030BC0F3801005F03DFA35
:102440000646D9F8001005F1580395F8572011F801
:10245000030BC0F3801005F0C8F8D9F8001004464B
:1024600011F8030BC0F3801005F0EAF88146FFF77E
:10247000B7FA40B1B9F1080F1BD04846FFF7E2F9AF
:1024800080F00103D8B23A78082A14D01CB96C7FC6
:10249000A21A544254416A8853079AD4002897D10B
:1024A00076B9EC7C444518BF002C0CBF01240024F5
:1024B0008FE70020E7E780F001022240D4B2EAE78C
:1024C000344686E730CC0320032973B5044604D094
:1024D000052956D0012002B070BD08230DF1070276
:1024E0008DF80730FFF76AFF0028F3D0237C294DD1
:1024F00003B39DF8070094F8BE30DBB923780828B1
:1025000004F1C10284F8BF302CD004F1C001FFF700
:10251000C7F920B940F647712D20FEF721F894F84D
:10252000C03043F0020384F8C0301B4904F1B60008
:1025300005F0A3F92B680622042620465A701E7067
:10254000FFF750FEE16B94F84020286805F01AF977
:1025500028682E7101F090F80021286805F0EBFC46
:102560000020B8E72868034613F8031BC1F3801165
:1025700084F8C010D0F80310C4F8C1109B88938071
:10258000D3E7064B1B68002BEAD0984780F0010088
:10259000C0B2A0E730CC0320837A0000A8C003209B
:1025A000F8B504460F4619B300F12805284605F092
:1025B00054FCA0B963881A072ED5284605F062FCA2
:1025C0000646284605F049FC301AC0B205F068FC02
:1025D000494A936803442846936005F01DFC284649
:1025E00005F01FFC00F0E2FE2179252000F040FEFE
:1025F000414E002394F85E20306803704370638876
:10260000103B0D2B68D8DFE803F063675F0C67446D
:1026100067676767676767442046BDE8F840FFF76C
:102620002BBE06234370202303702046FFF7DAFDFC
:10263000638823F008039BB2152B05D094F838204B
:10264000616B306805F08FF8306801F015F80021F3
:10265000306805F070FC032321790020337100F00D
:10266000CFFE054607B9F06063881B0704D505F067
:1026700014FC0544C4F8D8506388103B0D2B36D8A1
:10268000DFE803F038352F2F352F35353535353523
:10269000352F0C2321214370034603F8091B52B147
:1026A000D4F85F200121C0F80920B4F863209A8093
:1026B00005F052F8B9E7A26DC0F80920B4F85C2023
:1026C0009A8094F85710F3E7062303704370ACE741
:1026D000022303700623F9E740F233612D20FDF752
:1026E0003FFF21790120BDE8F84001F01DB840F618
:1026F000CC41F3E7F8BD00BF30CC032038B54388A8
:102700000446102B04D10121BDE83840FFF748BF33
:102710000B4DAB7C23B100F041FA402000F0EAFF02
:10272000286800F0A9FF608810F0040002D1217928
:1027300000F0FAFF002000F0BBFF01232B7138BD31
:1027400030CC0320024B0121D869FFF729BF00BF1D
:1027500030CC032010B5134CA37C1BB100F0D6FF86
:1027600000F048FAE06905F0E2F870B12379012B36
:1027700010D12379226A03F18043E069D268013BDA
:10278000BDE8104052F823301847E069BDE810401A
:10279000FFF772BD2379022BEBD040F65B312D2081
:1027A000FDF7DEFE30CC0320074810B5037903F0B7
:1027B000FF0433B918222146043005F069FD204694
:1027C00010BD0C24FBE700BF30CC032010B5002364
:1027D000084C23712060FFF7E7FF20B14FF43B71F5
:1027E0002D20FDF7BDFE236A13B940F2EF21F7E774
:1027F00010BD00BF30CC0320014B024A1A62704763
:1028000030CC0320AC2A0000F8B5057D0446AF1E8D
:10281000FFB2002D3AD0012F2DD800F1580190F8C9
:10282000570004F00DFF0828064624D0FFF716F8DD
:1028300010BB023D18BF0125012F84F85050667768
:102840008CBF002701272777FFF724F8054602F001
:1028500057FB0022164B84F85E20E5FB0301C4E918
:10286000120111462046FFF7CFFC70B940F27741C4
:102870002D20FDF775FE0826022D09D104F1510126
:102880000020FEF7D7FE80B90020F8BD0826F5E746
:10289000E37E002BF8D0D4F815300125C4F8513070
:1028A000B4F81930A4F85530C6E70025C4E700BFD6
:1028B00040420F00F0B5464E85B00446327902F032
:1028C000FF0312B90278FF2A04D140F6B6112D2079
:1028D000FDF746FE3382B3607371B37180F87130D7
:1028E0003C4B684604F1280500933B4B01933B4B5E
:1028F0000293336A5B68039300F0B6FE00F0EAFCD3
:1029000000F004FF00F076F9354800F045FD354849
:1029100000F0A4FE284605F07FFA284605F081FA6B
:1029200000F044FD2179252000F0A2FC94F912006A
:1029300000F02CFD04F13401206B04F052FB07463B
:1029400004F13C01206B04F073FB0546E7B194F8F9
:102950002430CBB1B4F92E50ED43ED0F237F13B9E2
:1029600063885B0709D56FF00043D4E912129A42DD
:1029700008BFB1F1FF3F0ED1A5B930680330FEF7B3
:10298000A7FFB07405B0F0BD002DE7D094F8255036
:10299000002DDFD1E2E702F0B3FAD4E9122390422E
:1029A0009941E9D3012229462046FFF72DFC50B179
:1029B000FEF770FF054602F0A3FA0B4BE5FB03019F
:1029C000C4E91201D9E7002DD7D040F6F3117EE714
:1029D00030CC032055270000ED2200009923000091
:1029E000D6BE898E5555550040420F0073B504463A
:1029F000FFF760FF00212046FFF7D2FDA36E0BB169
:102A000001221A606388DB0720D50023104E256A57
:102A1000CDE90033FF23F3746846FEF783F9A8B9C4
:102A2000009CA542F8D005F10A036A7A04F10A0174
:102A3000607A04F0DAFD0028EED0A378F374D4F8BD
:102A40000300044B7061B4F807209A8002B070BD97
:102A500030CC032044CC0320024BD8611B6A1B6896
:102A6000184700BF30CC032043881B0710B504462D
:102A70000ED5036A3C220849723042721B8843819A
:102A8000FF2380F827304FF6FF73038504F0F5FE2F
:102A9000FF2384F8713010BD9B7A0000ED7A0000AE
:102AA000FD260000F37A0000C9240000ED29000093
:102AB000C1220000452700009C2A0000A02A000037
:102AC000A82A00000138022808B503D9C3212F2005
:102AD000FDF746FD13290A4B05D811290CD81029FA
:102AE00007D0D121F3E71529FBD103EB4003D888A8
:102AF00001E033F8100008BD03EB40039889FAE7C2
:102B000062430100064B1B68D3F8000138B1D3F8CB
:102B1000040120B1D3F80801B0FA80F040097047F1
:102B20007CCE0320034B00221A705A7010229A7038
:102B3000704700BF70CC0320F8B50646022014464B
:102B40000D4600F01FF9114B114A0127191D5C6059
:102B50009A6002F1807203342D011F70DC601D83C6
:102B6000C3E904260022243303F80A2C0D2203F8BB
:102B7000092C084A1268C2F830150749C2F80875CE
:102B8000C2F8383503C983E80300F8BD70CC0320D0
:102B90000300000B7CCE03208043010008B5022017
:102BA00000F0F0F80D4B01221A7000220C4B1B684C
:102BB000C3F80021C3F80421C3F80821094AC3F867
:102BC0008020094BC3F88C20084B1B68C3F88C216C
:102BD0000822074BC3F8042508BD00BF70CC0320B2
:102BE0007CCE0320030000800030085088CE0320F4
:102BF00000200450154A08B51378FBB1144B19682E
:102C00000023C1F880301349C1F88C30124909689B
:102C1000C1F88C310821114BC3F80815FFF772FF7A
:102C200088B101235370938EFF2B03D9BA213B2027
:102C3000FDF796FCDBB29370002313700020BDE813
:102C4000084000F09FB810235070F4E770CC0320C8
:102C50007CCE03200030085088CE03200020045092
:102C60000A4B1A786AB10A4B1B68D3F8002152B19B
:102C7000D3F8040140B1D3F80801B0FA80F040095C
:102C80007047587870470220704700BF70CC03200F
:102C90007CCE0320064A08B513782BB1FFF732FF2C
:102CA00020B192F8340008BD9078FCE71020FAE7D4
:102CB00070CC03200A4B02211A680023C2F880302E
:102CC000084AC2F88430084A1268C2F88431074AB8
:102CD000C2F8081502F58022C2F80835704700BF17
:102CE00080CE03200030085088CE032000200450FE
:102CF000024B00221A809A70704700BFA8CC0320B4
:102D0000054808B503781BB1FFF7D4FF0023037013
:102D100000234370837008BDA8CC032038B50A4D4A
:102D200000242B68D3F80025032A04BF01225A602F
:102D3000064A1268C2F80045C3F80045FFF7E0FFF5
:102D40002B68C3F8804038BD7CCE032080CE0320A2
:102D50000A4BB3F90030002B0DDB5A09012103F0B7
:102D60001F03994002F12003054A42F82310BFF3E4
:102D70004F8FBFF36F8FFFF7D1BF00BF94CE0320FB
:102D800000E100E010B50446FFF7C8FF012C06D0B3
:102D9000022C0AD044B18C213D20FDF7E1FB084B09
:102DA00002221B68C3F8002510BD064B03221B68D6
:102DB000C3F8002502F10042C3F88020F4E700BF09
:102DC00080CE03207CCE0320024BD3F8A00300F07A
:102DD0000100704700C0FF00084BD3F8A423D3F8CC
:102DE000A833511C9BB203D14FF6FF718B4203D025
:102DF00002608380012070470020704700C0FF0000
:102E00000B4B30B5D3F89053D3F89443D3F89813C1
:102E1000D3F89C2305EA04030B401340013317BF8A
:102E200005600020446081601CBFC260012030BD8D
:102E300000C0FF000B4B30B5D3F88053D3F8844368
:102E4000D3F88813D3F88C2305EA04030B4013400E
:102E5000013317BF05600020446081601CBFC26061
:102E6000012030BD00C0FF00064B0022C3F8002245
:102E7000C3F81822C3F82022C3F80C22C3F8142286
:102E8000704700BF00A00850024B00221A809A70C1
:102E90001A71704718CD032038B5144D0346084603
:102EA00095F83D2022B940F6B7113E20FDF758FBBA
:102EB0006BB9012AAC6B95F83C1005D100F0D4FD3C
:102EC00020442B6BC01A38BD05F03BF8F8E7012B06
:102ED0000AD1012AAC6B95F83C1002D100F0B6FD86
:102EE000EEE705F039F8EBE70020EAE718CD03201C
:102EF00008B50128084B83F82400084B06D00228A7
:102F000008D040F6E1613E20FDF72AFB0322C3F81A
:102F1000002508BD0422FAE718CD032000A00850C0
:102F200008B5144B93F84A30D90720D59A070ED527
:102F3000114BD3F8002442F00102C3F80024D3F867
:102F4000200500F0F600023818BF012008BD5B071D
:102F50000DD5094B094AC3F80821A3F5A043D3F8BE
:102F6000403123B140F28F713E20FDF7F9FA012084
:102F7000ECE700BF18CD032000A008500B00008034
:102F800008B570B9104B28311846D9600F4900F0C8
:102F900013FE0130012816D940F672013E20FDF7DC
:102FA000DFFA01280CD1084B29311846D9600749AE
:102FB00000F008FE0130012805D940F67C01EDE75C
:102FC0004FF40861EAE708BD6CC00320B04301007C
:102FD00008B50C4B9B78012B09D100F0F9FD0130AD
:102FE00001280ED940F609213E20FDF7B9FA022B3F
:102FF00007D100F0F3FD0130012802D940F60F217E
:10300000F2E708BD18CD03200A4B40F409000A4A34
:103010001B8D40F04000B3F5166F36BFA3F6381392
:10302000A3F5166343F48073C2F80837C2F840056D
:10303000704700BF18CD032000A0085037B50C46DC
:103040000546FFF755FF20462146FFF7DDFF104AF2
:1030500001AB284692F9252000F048FD9DF80500B7
:1030600000F0C2FD20B140F25A713E20FDF778FA1F
:103070009DF9040000F086FC064B40F20312C3F8F1
:10308000442E40F25B62C3F8482E03B030BD00BF4F
:1030900018CD032000A008502DE9F8430C46174630
:1030A0008046434D00283FD10123AB702B78012B84
:1030B00023D1404B33F812304FF47A7203F5FA7390
:1030C000B3FBF2F3CC1A2B6B3B4E1C443B4BC6F8C4
:1030D0004045C6F8C0312B78002B57D195F84A30BF
:1030E00043F0020385F84A30FFF71AFF054600282F
:1030F00053D100252846BDE8F883104695F82610E0
:10310000FFF79CFF2E4B4FF47A7253F8273003F5EC
:10311000FA73B3FBF2F3E41A2B78002BD3D1294BCB
:10312000264AC3F80021CEE701282AD10223254EE2
:10313000AB702B78012B06D1D6F8003443F0100386
:10314000C6F80034BFE795F826901046FFF7D0FE8A
:10315000293C4846FFF758FFD6F8003443F01003E7
:10316000C6F8003440F20313C6F8443E40F25B63F5
:10317000C6F8483E2B78002BA5D1104BC6F8043179
:10318000A1E740F635113E20FDF7EAF9012BABD15E
:1031900095F84A3043F00403A4E70123F364D6F81A
:1031A0004C35A342A5DA21464046FFF7E9FEA1E7E8
:1031B00018CD032030440100005008500B0000805F
:1031C0002444010000A0085008B5602200210348F3
:1031D00005F05EF8BDE80840FFF756BE18CD0320A5
:1031E000024B0344187D00F516607047B0430100A0
:1031F0000A4B93F83C20D3E90C30C01A084B03EB80
:103200008203DB6BC01A074B53F822304FF47A72FB
:1032100003F2F313B3FBF2F3C01A704718CD032087
:10322000B0430100184401000F4A08B592F83C1061
:10323000012906D0022914D040F2CB213E20FDF70F
:103240008FF940F61C40D2E90C239B1A074A02EB87
:103250008102D26B9B1A4FF47A72B0FBF2F01844E1
:1032600008BD4FF4AF60EEE718CD0320B043010076
:10327000FF2808B504D940F2EA213E20FDF770F995
:10328000124B0129A3F8480004D0022919D040F2BA
:103290004631F2E7002343F4801340F000700C4AFB
:1032A00043F4847340F44030C2F8203EC2F8280E44
:1032B000D2F8203503F0F703032B05D140F25D313E
:1032C000DBE74FF08073E6E708BD00BF18CD0320B1
:1032D00000A00850F8B5244E4FF48067C6F89070EF
:1032E000BFF34F8FBFF36F8F204C0121204DC4F8E7
:1032F000A410FFF7B9FD0323C4F8401E85F824107D
:10330000C4F800354FF40023C4F80034194B187C7E
:1033100000F07CFC03F08EFA174B184AC4F83833DF
:10332000174BC3F8C820013AC3F8C42040F6FE7218
:10333000144BC4F81433144BC3F804250023AB8793
:10334000AB6385F84A3001F0CEFF4FF480732863F9
:10335000C6F89071C4F888342B6E376103B1984772
:10336000BDE8F84000F01CBC00E100E000A00850FF
:1033700018CD03206CC003200300008006000080ED
:10338000005008500100008000200850014B83F8D5
:103390002500704718CD0320020E034B0002C3F82E
:1033A000342EC3F82C0E704700A00850044B054A79
:1033B000034482F826001B7D03F5166313857047CE
:1033C000B043010018CD032010B504460068FFF794
:1033D000E3FF094B6268C3F84C2E207AFFF7E6FF43
:1033E000617A6089FFF744FF607AFFF781FD227BF5
:1033F000024B83F8252010BD00A0085018CD0320F3
:103400002DE9F041324C06460F4694F84A30DA076F
:1034100004D440F6C3013E20FDF7A2F82D4D43F041
:103420000203D5F8002442F00102C5F8002484F814
:103430004A3028BB012394F826103846A370FFF7C2
:10344000FDFDA378012B02D040F6CF01E3E7224A2D
:10345000D3642B60204B3046D3F84C552946FFF7F8
:103460008FFD236BED1A7EBB1C4B4FF47A7253F821
:10347000273003F5FA73B3FBF2F35819BDE8F08176
:103480000128E7D1022394F826800846A370FFF7AD
:103490002FFD4046FFF7B8FDD5F8003443F0100388
:1034A000C5F8003440F20313C5F8443E40F25B63B4
:1034B000C5F8483EA378022B02D040F6D701AAE710
:1034C000054BDE646E60C5E705F12900D6E700BF55
:1034D00018CD032000A008500050085024440100DB
:1034E00008B5FFF7D9FD58B9064B0122C3F84005CE
:1034F00003F5A04302201A61BDE80840FEF7ECBBCB
:1035000008BD00BF0050085013B5264B4FF4806132
:10351000254A4FF0FF30D3F88844C3F89004C2F82E
:1035200090114FF40022214904F48074C3F8002460
:10353000002281F84A201E49C1F84025C3F808211D
:10354000C3F80021C3F80421D3F82015C9B2D1B1C2
:103550008DF80700C3F8202201221A619DF8072088
:1035600012B1D3F820223AB19DF807305BB940F68A
:10357000F7113E20FCF7F4FF9DF80720013AD2B284
:103580008DF80720EAE7FFF723FD06490023C1F87D
:103590002032FFF779FC1CB14FF48073C1F88834F6
:1035A00002B010BD00A0085000E100E018CD0320DB
:1035B0000050085070B50024234D244EC5F84845EE
:1035C000C5F84445C5F84045C5F84C45FFF79CFF94
:1035D00000F0ECFAC5F8C441C6F80841C6F800414D
:1035E000C6F80441C5F8C840C5F8C44003F03AF92C
:1035F000174B40F6FE72C6F83843C6F81443C5F8B8
:10360000C041C3F808254FF48062124B1C77C3E910
:103610000D44114BC5F84845C5F84445C5F840452B
:10362000C5F84C45C5F84841C5F84441C5F8404186
:10363000C5F84C41C3F89020BFF34F8FBFF36F8F95
:10364000C3F8902170BD00BF0050085000A0085082
:103650000020085018CD032000E100E0014BC3F822
:103660004C0E704700A0085010B50FC8014C84E8FC
:103670000F0010BD7CCD032008B50B4BC3F8D00E56
:103680000A4B93F84A20586442F0010283F84A201A
:10369000FFF746FC30B9FFF737FF0320BDE80840CD
:1036A000FEF71ABB08BD00BF00A0085018CD0320CC
:1036B00010B50E4C0346022294F83D0022770128F3
:1036C00094F83C1094F824204FF096000BD100F0B1
:1036D000D7F9074A00232062C2F84431A36B0344A0
:1036E000C2F8443510BD00F0E5F9F2E718CD03202B
:1036F00000500850044BC3F8940ED3F8002442F055
:103700004002C3F80024704700A00850054BD3F8CE
:10371000002422F04002C3F800240022C3F8942EB3
:10372000704700BF00A008500022044B90421A705E
:10373000D97014BF022201225A70704718CD03209D
:103740002DE9F0470123824C824DB4F84870EB64B8
:10375000D5F84C25236BA2EB030801F0D1FBC4F88C
:103760005880C4E91401FFF733FC7B4A0023C2F8F8
:103770000831C2F80031C2F80431D2F8001421F047
:103780001D01C2F8001484F84A30237F23B1D5F814
:103790004431003B18BF0123A17801290AD1D2F896
:1037A0001852002D43D16C4BD3F82032ABB145F009
:1037B000100512E0022938D1674AD2F81852D2F81F
:1037C0000C2E003D18BF0125D6074FEA450558BF0E
:1037D00045F004052BB345F00105FFF745FBE8066E
:1037E000A37803D5012B08BF45F02005594A94F86A
:1037F0000190D2F84815A163D2F8442584F83D30F1
:1038000094F82430626384F83C30B9F1000F10D191
:10381000FFF73AFB84F81C90E9077DD5636E984763
:1038200044E015F00B0FD8D1BDE70025BBE7082514
:10383000D3E715F0110F0ED1B9F1010A23792678DB
:1038400018BF4FF0010A012B43D0022B56D02BB1E9
:1038500040F6454145E0FFF757FEDDE7962150462B
:10386000FFF71AFB0146FFF70FFB012E50D1B9F10C
:10387000010F14BF272333239844884543D90220DE
:10388000FEF72AFA344B30461E61AA0746D5636C10
:1038900001465B78BB42A36E88BF45F00405C5F3C3
:1038A000800585F0010505F001009847A378022BFB
:1038B0000DD1237F5BB1022B264A3DD1A36B216A38
:1038C0000B44C2F84435234B244AC3F8C421BDE855
:1038D000F0872348FFF778FD94F83D3023B940F690
:1038E000BA013E20FCF73CFE012B04D1FFF79CFC03
:1038F000A369C118B7E7FFF77BFCF9E71848FFF7A2
:1039000063FDA169AFE7134B00222670C3F8402185
:10391000E2785046FFF7E4FD0020B6E715F0280FE7
:1039200005F0200104D0B1FA81F1E36E4909BCE74A
:10393000EB06BBD5236F72E7012B02D040F6A451F2
:10394000CFE7236AA16B8B42BBD840F6A551C8E7ED
:1039500018CD03200050085000A008500900008036
:1039600020CD0320024B03EB8003D86B704700BFD0
:10397000B0430100024B03EB8003986C704700BF1B
:10398000B04301002E3008B5362854D8DFE800F0E7
:103990005053535353534D53535353535353535300
:1039A00053534B53535353535853585349534753FB
:1039B00045534353413F3D3B39373533312F2D2B51
:1039C00029272523215A1C003F231F4AC2F81037FC
:1039D00008BD3323F9E72D23F7E72823F5E7232351
:1039E000F3E71F23F1E71B23EFE71823EDE7152388
:1039F000EBE71323E9E71123E7E70F23E5E70D23BF
:103A0000E3E70B23E1E70A23DFE70923DDE70823E8
:103A1000DBE70723D9E70623D7E70523D5E7042308
:103A2000D3E70323D1E70123CFE74FF49873CCE723
:103A30004FF48873C9E74FF486713F20FCF790FD7F
:103A40000223C2E73923C0E700A00850054B4FF41A
:103A50007A72023833F8113003F2E733B3FBF2F332
:103A60001844704710440100044B4FF47A7233F845
:103A70001130B3FBF2F301331844704710440100D6
:103A800038B51D460A4B33F8114003EB8203053568
:103A90009B681C444FF47A7304F6B73403FB00446C
:103AA0001046B4FBF3F42544FFF75CFF284438BD0F
:103AB0001044010070B5064608461546FFF75AFF48
:103AC000094B03EB85039C684FF47A7304F6B73413
:103AD00003FB0644241A2846B4FBF3F4FFF742FF25
:103AE0000530204470BD00BF104401002DE9F04FA7
:103AF000264C87B0074698460D46164601F098FEBC
:103B000023788146BB4211D16378AB420ED194F940
:103B10000230B3420AD1E378834207D1A388A8F8E0
:103B2000003094F9060007B0BDE8F08F7B1EDBB2D1
:103B3000032B0DD8164A294612F803A00DF11703DE
:103B40003246504601F07AFE38B14621A92002E003
:103B500040F2FD410620FCF703FD039028469DF945
:103B600017B0FFF73DFB039A0346414658460092C3
:103B7000524600F03FF8B8F80030A071A3802770DB
:103B80006570A67084F80390CBE700BF80C0032067
:103B900036440100014B1B681B681847ACC003206A
:103BA000014B1B685B681847ACC00320014B1B68C6
:103BB0009B681847ACC00320014B1B681B69184762
:103BC000ACC00320014B1B685B691847ACC00320E5
:103BD000014B1B689B691847ACC00320014B1B6855
:103BE000DB691847ACC00320014B1B689B6A184770
:103BF000ACC0032030B4044C9DF8085024680295F2
:103C0000E468A44630BC6047ACC0032000220D49E4
:103C1000134610B540FA02F4E40744BFCA545C1CD2
:103C200002F1010248BFE3B2042AF3D1054AFF249E
:103C3000D118032B01D9107110BD013301F8014BCC
:103C4000DBB2F6E7D0D4032008B5074801F064F8EA
:103C5000054800F03DF801F09FFC01F0FBFB00F08F
:103C6000A9FB012008BD00BFDCCE032008B501F090
:103C70002FF801F0A7FC01F011FCBDE8084000F0AE
:103C8000B5BB01F0F1BC01F079B810B5EFF31084C9
:103C900072B601F073F804B962B610BD01F080B8D5
:103CA00001F040BD01F000BD01F010BD01F010BDFC
:103CB00001F014BD08B5054B1A781AB1272103206D
:103CC00002F098FB5860197008BD00BFE4CE0320D5
:103CD000024B986000221A705A607047E4CE0320AD
:103CE000F7B51E4C2378012BDAB204D0022A2ED06D
:103CF000012003B0F0BD0DF10701606800F082FB08
:103D000065686B7DDB071CD5AB7F042B19D001F0F8
:103D10008FF80646A8B101F091F82B69D5E9002784
:103D20009A18B36847F100070A332CBF0125002514
:103D30001B1845EB01059342BD4102D3606800F0BA
:103D400031FC0023636023709DF80700D1E70DF17B
:103D50000701606800F060FBF3E700BFE4CE0320DA
:103D600010B5837F8BB9034601F1180251F8044B5B
:103D7000914243F8044BF9D1012484772146FFF79F
:103D800099FF00F0EDFF204610BD0020FCE773B561
:103D900005460C4601F04CF80646AB7F012B1AD0C5
:103DA00021462B4604F1180251F8040B914243F8C6
:103DB000040BF9D101230DF107012846AB7700F080
:103DC00021FB16B1012002B070BD044B042198689C
:103DD00004F034F9F6E70020F5E700BFE4CE032055
:103DE00010B5FFF7D4FF044620B1034B06219868B5
:103DF00004F024F9204610BDE4CE0320024B062136
:103E0000986804F01BB900BFE4CE032010B5EFF3AF
:103E1000108472B601F00CF818B9C921032002F021
:103E2000E9FAFFF7EBFF04B962B610BD10B504461E
:103E30000221FFF73FFF00F093FFA07FB0FA80F070
:103E4000400910BD38B50446A37F03B938BDA37F30
:103E5000032B02D0A37F042B0FD1EFF3108572B692
:103E6000204600F0F4FA05B962B6A37F002BEDD02E
:103E700040F20D11032002F0BDFAA37F012B02D105
:103E80004FF48971F6E704F077F9DDE710B50446E1
:103E9000FFF7CCFF20B92046BDE81040FFF7D2BFA6
:103EA00010BD13B50DF1070100F0B6FA044600F09D
:103EB000BFFF20B940F22F11032002F09BFA2046E9
:103EC00002B010BDF8B504460F4600F0B7FF00255C
:103ED000A468241841F1000601F0C6FB02460B4617
:103EE000384600F003FBA04271EB060309D3001B28
:103EF0006FF0010361EB0601834275EB010102D310
:103F0000F8BD2846FCE74FF0FF30F9E710B5EFF3B6
:103F1000108472B6FFF7D6FF04B962B610BD83688D
:103F20002DE9F04100255C1806460F466D4190468C
:103F300015B10020BDE8F08100F080FF241845EBAA
:103F4000010501F091FB02460B46404600F0CEFA17
:103F5000A042A941EDD301F087FB00F077FAB368E6
:103F6000012086F814803B44B360E3E710B5EFF31B
:103F7000108472B6FFF7D3FF04B962B610BD837F19
:103F8000012B01D100F08EBB00207047D0E9000169
:103F900070470069704700F051BF10B5EFF310840F
:103FA00072B600F04BFF04B962B610BD806870476E
:103FB000007D7047F8B50369044623B140F2D5117E
:103FC000032002F017FA01F04FFB05460E4602F0FF
:103FD00033F970B36435D4E9003246F10001AB42E5
:103FE00072EB010001D22B460A46C4E90032EFF31E
:103FF000108572B600F01CFF064698B100F01EFF57
:10400000B3680B332CBF012200221B18D4E90060D7
:1040100042EB0101B34271EB00023CBF3346014663
:10402000C4E9003105B962B62046BDE8F84000F0A9
:10403000D3BA02F021F9074600F018FFB84238BFA2
:104040003846963546F100024319D4E9000142F1A1
:104050000002834272EB0105C7D20346C4E700BFEA
:10406000042300F1180283770023037643768376D6
:10407000C376044B196811B91A605A6070475968C1
:104080000A60FAE7F0CE03202DE9F843DFF86C80F0
:10409000002406460F46D8F80830204633B950B3FE
:1040A000174B1878BDE8F84302F04CBB53E90612F1
:1040B000D3F80090B14272EB07051AD253F8085CAE
:1040C0006D1842F10002B542BA4112D24CB12268D9
:1040D00012682260A3F11800FFF7C2FF01204B46CF
:1040E000DCE7D8F80820002AF4D01268C8F80820C5
:1040F000F0E71C46F3E7BDE8F88300BFF0CE0320ED
:10410000F5C003202DE9F047304B4FF0000E054677
:104110009446C2F800E09868002855D01838074641
:10412000BA69002A50D0D0E9009352E906684E459A
:1041300078EB030403D2BF219F2002F05BF9A9456D
:1041400073EB01040BD2046914EB090443F100037F
:10415000A542A14671EB03043CBFA9460B46AE4203
:1041600078EB01040BD252F8084CA41948F100086E
:10417000A542264671EB08043CBF2E46884684685B
:104180000A344EF1000A14EB090443EB0A03A64279
:1041900078EB030318D2047D12F8043C9C420DD046
:1041A0008CBF012300232BB107F11803A2F11800E3
:1041B000CCF80030BF693FB1183FB1E79388848BDA
:1041C0001B1BC3F3C033EEE7BDE8F087F0CE03203E
:1041D0002DE9F04F85B082834E4A04460091D2F813
:1041E00008C094F81580D0E90030BCF1000F40D031
:1041F000ACF11801002708F00109D1E9002693422B
:1042000070EB06056DD3B9F1000F2CD0277D0D7D25
:10421000AF4228D38D68AD1846F1000615F10A0AA1
:1042200046F1000E534570EB0E0219D22269D218E6
:1042300040F1000792457EEB070B01D252467746CC
:10424000AA42B7410FD220460024FFF709FF324BA4
:10425000187802F077FA009B1C7005B0BDE8F08F6B
:104260001A460746ECE78A690F4622B1A2F1180107
:10427000C3E76246674618F0010F37D0A168C91836
:1042800040F1000B01918AB3019DD2E9001615F1AE
:104290000A0E4BF100058E45B54127D394F814E082
:1042A000157DAE4519D395686D1846F1000615F1D8
:1042B0000A0946F100084B4570EB080113D2216949
:1042C000C91840F1000E894578EB0E0A01D2494623
:1042D000C646A9427EEB060EB5D3926932B1183AB2
:1042E000D2E70A46C7E719468646F2E704F1180303
:1042F0005FB1BA69A261BB6103AA00200021FFF788
:1043000001FF231A5C425C41A5E7024AC4F818C0C9
:104310009360F1E7F0CE0320F5C00320F8B5244CFC
:104320000023E360EFF3108272B621686360E160FE
:10433000236002B962B60026E36803B9F8BD9A7932
:10434000A3F11800032A07D11A6801219E7153F8BE
:104350000C3CE2609847EFE7196851B1A1F11803EE
:10436000074600229D7F042D09D09B7F032B02D19D
:10437000B2B9E16017E063219F2002F03BF8B0F88A
:104380001CC09D8BA5EB0C052D049D6944BF07F156
:1043900018021846002DEBD01F46A5F11803E1E7DF
:1043A00013681B681360C36802218677D2E700BFD9
:1043B000F0CE032010B50A4C2378FF2B04D04FF425
:1043C00084719F2002F016F8064802F091F9064B1E
:1043D000002220709A601A605A601A8210BD00BFD5
:1043E000F5C003201D430000F0CE032010B5044C9F
:1043F0002078FF2803D002F095F9FF23237010BD29
:10440000F5C00320034B1A8A10B4541C1C8210BC44
:10441000DEE600BFF0CE032037B504460D4601AA04
:1044200000210020FFF76EFE231A04F11801584204
:1044300058412870044803F027FE10B100230120E2
:10444000A37703B030BD00BFF8CE03201CE638B51B
:10445000114B044600F118011A68B2B11A68002025
:104460009AB191420ED108B1A56905601D68A942B3
:1044700004BF12681A605A68914200D15860002344
:10448000A37707E010461268EAE7044803F0FCFD52
:104490000028F4D138BD00BFF0CE0320FCCE0320AD
:1044A00037B505460C46FFF7EFFD01AA2846214621
:1044B000FFF728FE28B100F11803034A536103B047
:1044C00030BD0346F9E700BFF0CE032010B5064C1F
:1044D000616904F1080003F0D7FD18B16069002399
:1044E0001838636110BD00BFF0CE03209C46144B0A
:1044F000F0B59D68FDB115F8043C183D834218D80D
:1045000012F10A04D5E900364CF10001A34276EB22
:1045100001070BD22F69FF1846F10006A7428E4112
:1045200007D3B4F10A0041F1FF31F0BD1C4631461A
:10453000F7E7AD69DEE74FF0FF300146F5E700BF72
:10454000F0CE032008B5837F022B1CD1437D13F0EE
:10455000020302D00023837708BD0322037643764B
:104560008376C3760D4B827700F11802196839B94A
:104570001A605A600A4B1878BDE8084002F0E2B8A9
:1045800059680A60F5E7837F012BE5D0837F042B10
:10459000E2D04FF4FB719F2001F02CFFF0CE0320FE
:1045A000F5C0032010B500F118010446084803F0D7
:1045B0006BFD20B94FF400719F2001F01BFF2046D6
:1045C000FFF74EFD034BBDE81040187802F0BAB873
:1045D000F8CE0320F5C003202DE9F74FD0F810E006
:1045E000BEF1000F04D040F21F219F2001F002FF16
:1045F000836890F814800193D0E90014EFF31089D8
:1046000072B6274BB3F810C09B686BB1019D183B85
:104610000A35D3E900264EF1000A6D1844EB0A0A68
:1046200095427AEB060707D2B9F1000F35D0C0E901
:10463000001403B0BDE8F08F8A4276EB04070CD378
:104640001F69BF1846F1000BAF427BEB0A0B34BF6A
:104650000125002575B99B69D7E712F10A0A9D6803
:1046600046F1000715EB0A0547F10007A94274EB74
:104670000707ECE71D7DA84509D0ECD912F10A0126
:104680009D6846F10004691844F10004E3E79D8B3E
:10469000A5EB0C052D04DED5F0E762B6C7E700BF39
:1046A000F0CE0320F7B50C460DF107010646878BC7
:1046B000FFF7B2FE20B940F24A219F2001F09AFE96
:1046C0000FCC35460FC594E803003A4685E8030051
:1046D00030460DF10701FFF77BFD012003B0F0BD6F
:1046E000034B187800F0FD00431E584258417047B4
:1046F00008CF032038B5FFF7E9FE0025A0B100225E
:104700000A4C0023E560C4E90423C4E9010500F074
:10471000D9FE6068022329468377C368984700F072
:10472000A3FFFFF793FE012038BD00BF08CF032091
:10473000024B0521986903F081BC00BF08CF03201C
:10474000042938B5054613D005D80239012915D9F1
:104750004FF4E57109E00529FAD1FFF7C1FF10B167
:10476000124C607F60B140F2BF11B02001F042FEF8
:10477000FFF7B6FA10B10D4B01221A77002014E0B2
:10478000236A98470123226B6377D4E90A31323BCD
:1047900041F1FF319818064A41F10001C4E90E01C8
:1047A00000F034FF034B02202B6038BD08CF0320FC
:1047B00031470000ED4A0000064B586810B520B99B
:1047C00040F28F21B02001F015FEC3680621BDE83C
:1047D0001040184708CF03202DE9F84F274C80469A
:1047E000637F256B9BBBFFF77BFF064620B1B4F8C8
:1047F00040309D4238BF1D4600F036FF4019AA46A2
:104800004FF0000941F10001FFF74AFE20B3D0E963
:10481000007BAF427BF100031BD3781BBA46D9461D
:104820006BF10001164AC4E904A900F0EFFE384616
:10483000594600F087FEF6B1B4F84010114B124A09
:104840008D4218BF1346C8F80030BDE8F88F002627
:10485000D2E748464946E5E7637F33B12378023B18
:10486000012B02D8236A012098470023637700F0C8
:104870006AFE064BE7E7044BE5E700BF08CF0320DD
:10488000314700005B490000914800002D490000BD
:10489000042938B5054625D007D8023901293BD966
:1048A00040F26B11B02001F0A5FD0529F8D100F010
:1048B0004BFE1A4C01F0B4FCFFF712FFE0B1637F2E
:1048C000D3B900F0D1FEB4F84020236B9B1A144AF0
:1048D000C4E90A01181841F1000100F097FE114BDC
:1048E0002B6007E0FFF7FCF9B0B100F0ADFE284601
:1048F000FFF772FF022038BD00F0B6FE236B323B9B
:1049000062EB0202181842EB0101054AC4E90E01EC
:1049100000F07CFE044BE3E70020ECE708CF032027
:104920003147000041470000ED4A0000032910B55F
:10493000044606D801290ED84FF48B71B02001F03F
:1049400059FD0429F8D1FFF7CBF920B12046FFF734
:1049500043FF022010BD0020FCE7042938B50546BE
:1049600013D005D80239012929D94FF49D7109E0E6
:104970000529FAD1FFF7B4FE10B1124C607F70B177
:104980004FF49971B02001F035FDFFF7A9F9B0B1EE
:1049900000F05AFE2846FFF71FFF022038BD236AA9
:1049A00098470123084A6377236BD4E90401C01AAE
:1049B00061F1000100F02AFE044B2B60EDE70020BE
:1049C000ECE700BF08CF032031470000914800000A
:1049D0002DE9F04780468A4691463D4C002B63D036
:1049E000D3E90056854276EB01033CBF0E460546EF
:1049F00031462846C4E9045600F0A4FDB4F840301E
:104A0000B5EB080803F1640366EB0A0A43454FF06F
:104A1000000373EB0A0322DA637F43B12378023B7E
:104A2000012B02D8236A0120984700236377FFF700
:104A300057FE0746236B03F5E17398457AF1000AA8
:104A400018DA77B1B4F84000224A281A66F100015A
:104A500000F0DCFD204BC9F80030BDE8F0870027EE
:104A6000E8E71C4A28463146C4E90E5600F0CEFD60
:104A70001A4BF0E700F069FD01F0D8FBB4F84030C4
:104A8000206B4FB1834207D9E81A124A66F1000140
:104A900000F0BCFD124BDEE7281A0E4A66F1000159
:104AA00000F0B4FD0F4BD6E7637F33B12378023BB0
:104AB000012B02D8236A012098470023637700F076
:104AC00044FD01F0B3FB00F03EFD074BC3E700BF20
:104AD00008CF0320314700007D4B0000014C00004F
:104AE0005B490000914800002D490000023970B573
:104AF0000446032938D8DFE801F00502070E1D4BF4
:104B000000221A77002012E0FFF7EAF80028F9D017
:104B1000184B0122F5E700F019FDB0B1154B1B7FD2
:104B200033B9FFF7E7FD18B1134B2360022070BDC6
:104B300000F09AFD06460D46FFF7B2FC22460346FA
:104B400029463046FFF744FFF0E700200021FFF739
:104B5000A7FC08B1FFF726FD00F0F7FC01F066FBAB
:104B60002046FFF739FEE1E740F2A511B02001F041
:104B700041FC00BF08CF0320594C0000042970B548
:104B8000054613D005D80239012930D940F23E211B
:104B900009E00529FAD1FFF7A3FD10B1154C607F9C
:104BA000B8B140F23521B02001F024FCFFF798F8AD
:104BB000E8B100F049FD00F057FD06460C46FFF74E
:104BC0006FFC2A46034621463046FFF701FF0220CC
:104BD00070BD236A98470123074A6377D4E904012B
:104BE000C4E90E0100F012FD044B2B60EFE700203A
:104BF000EEE700BF08CF032031470000014C000062
:104C0000042970B5044611D007D8023901291FD9EB
:104C10004FF40671B02001F0EDFB0529F8D1FFF744
:104C200069FD40B10B4B2360022070BDFFF758F8BF
:104C300070B100F009FD00F017FD06460D46FFF7C4
:104C40002FFC2246034629463046FFF7C1FEEBE71C
:104C50000020EAE7594C000002392DE9F0410646F0
:104C600004292ED8DFE801F003090B2D0E00174AA6
:104C70001378003B18BF0123537700201FE0FFF794
:104C80002FF8FAE7DFF8448000F032FC00F0ECFC8B
:104C90000C460546FFF704FC0746D8F80400FFF76A
:104CA00051FC002300222846C8F804300023214686
:104CB000C8E90E233B463246FFF78AFE0220BDE8D4
:104CC000F0814FF4F871B02001F094FB08CF03207D
:104CD00010B5EFF3108472B60B4B0C4A9B691B683E
:104CE00093420DD00A4A93420AD00A4A934207D00F
:104CF00000F02BFC01F09AFA00F025FC00F0A4FC77
:104D000004B962B610BD00BF08CF03202D490000D2
:104D10005B49000091480000054B10B5054C03604D
:104D20000023A061237001F0A7FA3230206310BD88
:104D30002D49000008CF032008B5074B9A69116878
:104D4000064A914204D04FF41D71B02001F052FB8D
:104D50003230186308BD00BF08CF03202D49000082
:104D600010B5EFF3108472B6034B0421986903F079
:104D700065F904B962B610BD08CF032008B5064B2B
:104D80005B6823B940F29521B02001F033FB034A60
:104D9000BDE8084000F03ABC08CF0320B947000046
:104DA00008B5064B5B6823B940F29B21B02001F0A7
:104DB00021FBBDE8084000F047BC00BF08CF03203E
:104DC00008B5054B5A6822B940F2A121B02001F084
:104DD00011FB986008BD00BF08CF032008B5054B44
:104DE0005A6822B940F2A721B02001F003FBD86035
:104DF00008BD00BF08CF0320054BDB6810B523B901
:104E000040F2AD21B02001F0F5FABDE8104018479E
:104E100008CF0320054B9B6810B523B940F2B3219E
:104E2000B02001F0E7FABDE81040184708CF032092
:104E3000014B5868704700BF08CF032008B5054BE9
:104E40005A6822B940F2BE21B02001F0D3FAD3E96A
:104E50000E0108BD08CF0320034B323118701A62CF
:104E6000A3F84010704700BF08CF032008B5FFF734
:104E700037FC10B1014BB3F8400008BD08CF032048
:104E80000028ADBF00F1604000F00F00044B00F5BA
:104E90006140B4BF185C90F800034009704700BF40
:104EA00014ED00E0064B1B6810B51BB975214520B9
:104EB00001F0A0FA1A6A0521586ABDE810401047AF
:104EC00050CF0320064B1B6810B51BB96F2145203E
:104ED00001F090FA1A6A0421586ABDE810401047A0
:104EE00050CF0320FFF76CBFFFF778BF03480021C6
:104EF0002022C0E90011083003F0CAB950CF0320C6
:104F0000FEF7BFBE704708B5074B1A681AB9BC2137
:104F1000452001F06FFA0549D1600022C3E9002263
:104F2000BDE80840FEF76ABF50CF0320555200008D
:104F30001F2801D900207047044B1844037A002B26
:104F4000F8D0002303720120704700BF50CF032028
:104F5000F8B50E4A0C460023D618357A05F0FF0145
:104F600075B9DDB2FF273772282673431A44C2E9A8
:104F7000120407482022184403F08AF92846F8BD95
:104F80000133202BE8D11D46F8E700BF50CF0320A6
:104F900078CF03201F2810B501D9002010BD064B83
:104FA0001C18247A002CF8D0282404FB0030C0E917
:104FB00012120120F2E700BF50CF032030B587B0B6
:104FC0000C46054618220021684603F061F9237853
:104FD00053BBD4E904310A3B6268207A41F1FF31C6
:104FE0000A328DF8140002929DF81520154822F01F
:104FF00003020390CDE90031637A6946C3F34003AD
:105000005B0043F0010313438DF815300E4B5868D5
:10501000C0F3080088B11038FFF732FF68B928469E
:10502000FEF7B5FE07B030BDFEF72BFE226910F18A
:105030000A03049241F10001CDE72846FEF790FEF5
:10504000F0E700BF5552000000ED00E01F2809D82E
:10505000054B1A18127A2AB12833282202FB003095
:10506000FFF7ACBF0020704750CF032008B50A4BB4
:1050700002465868C0F3080040B11038FFF700FF3F
:1050800020B91046BDE80840FEF70BBF1046BDE84A
:105090000840FEF7CBBE00BF00ED00E0024B282227
:1050A00002FB0030FFF7E2BF78CF032010B5037892
:1050B00086B0044623B14FF4A771452001F09AF958
:1050C00005934168CDE90333D0E90432007A0A310F
:1050D0000A3B8DF81400684642F1FF320291CDE997
:1050E0000032FEF767FF009B019A01200A3342F16C
:1050F0000002C4E9043206B010BD4FF4B771452078
:1051000008B501F077F908B5094B0A46596821B985
:1051100040F27311452001F06DF901461868FEF761
:10512000FEFE18B1FEF7BAFD002008BD0220FCE724
:1051300050CF0320194B70B50446586886B0C0F3B1
:10514000080010B9002006B070BD1038FFF798FEB7
:1051500003460028F6D1C3F307230E7A4D6823F0E7
:1051600003030A35CDE90400D1E904208DF8146069
:105170000A3A0B4E029540F1FF300396CDE900202C
:105180004A7A20466946C2F34002520042F00102C8
:1051900013438DF81530FEF7F2FED4E700ED00E082
:1051A000555200001F2809D8054B1A18127A2AB147
:1051B0002833282202FB0030FFF7BCBF00207047D5
:1051C00050CF0320034B5A6812B11868FEF7F0BEA7
:1051D0000220704750CF0320024B01461868FEF7AB
:1051E00071BE00BF50CF0320FEF72CBE1F2808B5AC
:1051F00004D940F2DF11452001F0FCF8074B1A18E2
:10520000127A12B94FF4F071F5E72833282202FB25
:105210000030BDE80840FEF715BE00BF50CF0320A8
:1052200010B50B4C636823B94FF4F371452001F0BE
:10523000E1F82068FEF7ADFE28B1FEF7ACFE0A30BB
:1052400041F1000110BD2068FEF7A0FEF7E700BFA6
:1052500050CF03202DE9F041194C0546194A0E465E
:1052600004F12803C31ADB105343DBB2E218127AAD
:1052700001BB22681AB18D21452001F0BBF862689C
:105280000AB18E21F8E704F108021344C4E90003CF
:105290000D48FFF795FD0D48FFF7A0FDFFF7C0FF94
:1052A0000746FEF7FDFC3F1AC4F8287500F0EEF93A
:1052B0000028FBD02B6A3146686ABDE8F0411847E8
:1052C00050CF0320CDCCCCCCC54E0000A54E000065
:1052D00010B50446FFF7A4FF201841F10001FEF7C6
:1052E000D2FC012010BD024BD3F82805704700BF47
:1052F00050CF0320FEF7D8BC7047FEF7D3BCFEF7B3
:10530000D5BCFEF7D5BC08B5FFF7A6FD002008BD4B
:1053100070B50B7886B023B140F23521452001F0FD
:1053200069F805930E7A4D68049228228DF814606E
:105330000A350D4E02950396D1E904340A3B44F137
:10534000FF34CDE900344B7A4FF00001C3F3400342
:1053500063F34101054B8DF81510694602FB0030DF
:10536000FEF7FEFC06B070BD5552000078CF03205A
:105370007FB5FEF786FC002305930B4B039340F2A9
:105380001E2302934FF0FF33CDE900016946074821
:105390000493FEF7FCFC18B9CB21432001F02AF856
:1053A00007B05DF804FB00BFB153000080D40320B8
:1053B00038B5062937D8DFE801F0043833363636F9
:1053C000170002F026FEFEF7E6FD044617480D46DC
:1053D000FEF7ECFD1E3C45F1FF312018BDE83840DA
:1053E00041F10001FEF74FBC00F026FF38B10F4B32
:1053F000002283F82020BDE83840FEF7FFBC02F011
:105400000AFE08B902F005FE00224FF400710748B9
:10541000FEF785FD0028D6D1EA21432000F0EAFFFF
:10542000BDE83840A4E7F921F7E738BD80D4032070
:1054300010B5074C94F8203043B900F0FDFE28B9B0
:10544000012384F82030BDE8104091E710BD00BF73
:1054500080D403204FF000430D4A0E480021C2F8CB
:105460008030A2F58022C2F88031012302F5783223
:10547000C2F80435A2F58022C2F804352022064B7A
:1054800080F820101B68D3F81835436202F000BF83
:1054900000400C5080D403208CCE03200023084A07
:1054A000C2F88030A2F58022C2F88031012302F5D3
:1054B0007832C2F80835A2F58022C2F80835704764
:1054C00000400C5008B507F045FF074AD2F858379E
:1054D00043F00103C2F858370122044B1B68C3F89C
:1054E0001825BDE80840A3E700200E508CCE03200D
:1054F00008B507F035FF0E4AD2F8583723F00103FC
:10550000C2F858370B4B0C4A1B68526AC3F818256F
:1055100001220A4B5A604FF0FF32C3F808232022C1
:10552000074BC3F89021BDE8084000F08DB800BFDC
:1055300000200E508CCE032080D403200050085051
:1055400000E100E0704770477047704708B500F011
:1055500073FEB0B90D4BD3F800314BB90C4A936AC6
:105560000133312B93620BD99C21432000F042FF81
:1055700002F051FD08B1A021F7E702F048FD01203B
:1055800008BD034B00229A62F9E700BF00E010500B
:1055900080D403204CE700BF084B0022C3F8202131
:1055A000C3F82421C3F828214FF4A062C3F83423A0
:1055B0002022034BC3F89C21DA61704700200E5073
:1055C00000E100E00F4B4FF4A062C3F83823002243
:1055D000C3F82021C3F82421C3F8282120220A4B34
:1055E000C3F89C21C3F89C20BFF34F8FBFF36F8F8C
:1055F000C3F89020BFF34F8FBFF36F8FC3F8902194
:10560000704700BF00200E5000E100E00B4B10B5CA
:105610001C681CB13F21042000F0ECFEB1F5801F96
:105620001A6004D340F2E141054800F0D9FE054B71
:10563000C3F8A005C3F8A41510BD00BFB0D4032063
:10564000D061010000200E50054A136833B10023D9
:105650000449C1F8AC35C1F820311360704700BF70
:10566000B0D4032000200E5030B54FF0FF30064C70
:105670006FF04041D4E90023904271EB0305F9D368
:105680001046C3F3130130BD40270E5008B5FFF795
:10569000EBFF044BD3E90223904299412CBF012038
:1056A000002008BDB0D4032010B5029C241841F19D
:1056B0000001A01A61EB0301B0F1004F71F100018C
:1056C00003DB6A21042000F095FE10BDFFF7CCBF7C
:1056D000014B1861704700BFB0D4032008B50E4BD2
:1056E0001B691BB97A21042000F084FEEFF31082BD
:1056F00072B6B1F5801F04D340F2E141074800F0D3
:105700006FFE074BC3F8C005C3F8C4150121C3F8E9
:10571000CC1502B962B608BDB0D40320D061010037
:1057200000200E502648202270B5C0F89020BFF30C
:105730004F8FBFF36F8F234BC0F89021D3F8041520
:1057400021F00301C3F80415D3F8081541F0030153
:10575000C3F8081592FAA2F1B1FA81F1092904DD22
:105760004FF47371184800F03BFEC3F81015012583
:105770004FF0FF314FF000465D60144CDD60C3F820
:105780008060C3F8081300230261C4F8BC35C4F874
:105790002431FFF769FF0A3041F10001B1F5801FA4
:1057A00002D140F2E141DDE7094BC4F8B005C4F88D
:1057B000B415C4F8A461C4F8BC55C3E9020170BDB6
:1057C00000E100E000500850D061010000200E50C0
:1057D000B0D40320144BD3F8342312F4A06F10B5C7
:1057E00003D1B421042000F005FED3F820215AB1E2
:1057F00000220E49C3F8AC25C3F820210B680BB971
:10580000BC21EFE70A609847074BD3F828214AB13B
:105810000022C3F8CC25C3F82821044BBDE8104072
:105820001B69184710BD00BF00200E50B0D40320E4
:10583000014B187D704700BF90CD0320042810B5A0
:1058400011D883B104280CBF10242824A1420AD205
:10585000064C54F8200018B141568A42A8BF0A46A7
:1058600000201A7010BD6FF01500FBE790CD0320EB
:105870000728034611DC10F12D0F10DB094A101820
:1058800090F82E0002EBC00292F93C209A4207D019
:10589000002918BF0130C0B270471B20704700209C
:1058A000704700BF3C440100072808B507DCFFF73C
:1058B000DFFF044B03EBC00393F93C0008BD082055
:1058C000FCE700BF3C44010010F0FF0008B5094BA5
:1058D00005D0012807D05121B52000F08BFD012211
:1058E0009A601A6008BD044A1268292AF3D15862E6
:1058F000F8E700BF00E0105074CE032010F0FF0066
:1059000008B5174B05D0012820D08421B52000F020
:1059100071FD01225A60DA60C3F80001114B187062
:105920000F4BD3F80824D2070FD40F4A1268292A44
:1059300003D1D3F86834DB0707D4094B0022C3F83E
:105940001021C3F81821C3F8142108BD064A1268B3
:10595000292ADAD100229862C3F81C21E0E700BFAF
:1059600000E01050A5CD032074CE0320014B01228E
:105970001A707047A5CD032008B50D4B28B101283A
:105980000BD0D021B52000F035FDD3F8103113B97C
:10599000084B187808BD0120FCE7074A1268292A3D
:1059A000EFD1D3F81C01003818BF0120F2E700BF87
:1059B00000E01050A5CD032074CE0320024BD3F895
:1059C000080400F00100704700E01050024BD3F8CB
:1059D000480400F00100704700E01050024BD3F87B
:1059E0004004C0B2704700BF00E0105007490246B3
:1059F000D1F84C04D1F84C1410F4803005D0D0B25A
:105A000001F003031B1A58425841704700E0105040
:105A100038B51A4BD3F80C34DA0304D440F27F11B2
:105A20006D2000F0E7FC164A0124164B106A5366FD
:105A300020F03F0094645464136CDB03FCD4136ABD
:105A4000116C03F03F03C1F30A01C1F5806181EAE3
:105A5000E1750B29A5EBE17509DD3F2B04D001337E
:105A600003431362172DE6DC0023936438BD0B312A
:105A7000F8DA002BF8D0013BF2E700BF00E010504D
:105A8000000812500100008038B50B4C23781BB180
:105A900000232370FFF7BCFFEFF3108572B6637825
:105AA00003F0FF000BB9FFF729FF05B962B6034BFE
:105AB00000225A6638BD00BFA8CD0320000812504E
:105AC000002808DB4309012200F01F00024960336F
:105AD000824041F82320704700E100E070B5174D87
:105AE000012204460E462B18DA7002F083FAA0B9A0
:105AF00034B1012C0FD04FF494716D2000F07AFC7A
:105B000011232A19012105EB840451710C4AA66066
:105B1000C2F8043370BD8023F3E7002EFAD034B905
:105B20000220B047002305EB8405AB60F2E7012CAF
:105B300001D12046F5E740F24311DEE7A8CD03206E
:105B400000E01050044B0022191803EB80034A7147
:105B50009A60CA70704700BFA8CD0320014B18821D
:105B6000704700BFA8CD0320014B988A704700BF43
:105B7000A8CD0320014B188A704700BFA8CD032091
:105B800010B5EFF3108472B6064B03445A78013215
:105B9000D2B25A705B78012B01D1FFF795FE04B9A0
:105BA00062B610BDA8CD0320034610B5EFF31084F4
:105BB00072B611490B445A7822B940F267216D2020
:105BC00000F018FC5A78013AD2B25A705B7883B967
:105BD0008B7D43B1094BD3F80C34DB0306D44B78EF
:105BE00003F0FF002BB9FFF789FE02E0C87D00F04B
:105BF000A9FD04B962B610BDA8CD032000E0105085
:105C000010B502F0FAF90C4C02F0F4F960B1237E01
:105C10003BB90A4B01229A61042363760023A376E1
:105C200010BD02F0EDF9F9E7032301226376034B7F
:105C3000C3F80423F2E700BFA8CD032000E0105012
:105C4000014B01221A62704700E01050044BD87ECD
:105C500028B1044BD3F81001B0FA80F04009704726
:105C6000A8CD032000E0105038B50C4BDD7E5DB9A7
:105C70000124DC7602F0C1F9094B1022C3F810515F
:105C8000C3F80423DC6138BDFFF7E0FF0028FAD039
:105C900040F2A3216D2000F0ADFB00BFA8CD032092
:105CA00000E01050024B587E003818BF01207047AA
