:1000000040470020613D0100570902004D3D0100BD
:100010004D3D01004D3D01004D3D0100000000003F
:10002000000000000000000000000000CD3E0100C4
:100030004D3D010000000000693E01004D3D010002
:10004000A1400100D3210200A1400100A140010014
:10005000A1400100A1400100A1400100A140010018
:10006000A3210200A1400100A1400100BD21020026
:10007000A1400100A1400100A1400100A1400100F8
:10008000A1400100A1400100A1400100A1400100E8
:10009000A1400100A1400100A1400100A1400100D8
:1000A000A1400100A1400100A1400100A1400100C8
:1000B000A1400100A1400100A1400100A1400100B8
:1000C000A1400100A1400100A1400100A1400100A8
:0C00D000A1400100A1400100A14001007E
:1000DC00064B074ADB7802604FF432728280C371A0
:1000EC000822002382710372704700BF580D002054
:1000FC003F2A0100064B074A1B7902604FF4B47289
:10010C008280C3710822FF2382710372704700BF83
:10011C00580D0020812501002DE9F341C41D002854
:10012C0024F00704064614BF2046002000F0E8FC2B
:10013C00071E04DA6FF00B0002B0BDE8F0810EB9B7
:10014C00FC42F7D4364D698928896B7B2A7B0331B5
:10015C00033089B280B20FF040FC0028EADBA978AA
:10016C00EB783C440334002E194424F0030400FBC8
:10017C0001F114BF2046002000F058FE20440EB9B7
:10018C000028D7DB2B790446B3B1697D19446B7910
:10019C001944FF29CEDC0330002E20F0030414BFD9
:1001AC00204600202A8AC9B200F0B0FE0028C1DB2C
:1001BC0004440EB9002CBDDB012000F097FCC8B143
:1001CC00A97BB9B195F82C300734002B15BF40230F
:1001DC0025234FF48172282224F00704002E14BF2B
:1001EC002046002003F02EFA0028A3DB04440EB9AD
:1001FC00002C9FDBAB7CE3B12B799BB10734002E39
:10020C0024F0070414BF20460020A97C05F060FEF2
:10021C0000288FDB044466B9002C0ADA8AE700BF99
:10022C00580D0020012000F061FC10B1AB7B002BBD
:10023C00E4D1724B1B6893B1A97981B10334002EC0
:10024C0024F0030414BF20460020EA7C98470028C1
:10025C00FFF670AF044416B9002CFFF66BAF684B79
:10026C001B688BB1297D79B10334002E24F0030473
:10027C0014BF2046002098470028FFF65BAF0444CB
:10028C0016B9002CFFF656AF5E4B1F68AFB1697DF7
:10029C0099B10334002E2B7E009324F0030414BF79
:1002AC0020460020EB7DAA7DB8470028FFF642AF20
:1002BC00044416B9002CFFF63DAF072000F016FCE5
:1002CC0098B1A97989B10334002E24F0030414BF2A
:1002DC0020460020AA7E00F007FF0028FFF62AAF78
:1002EC00044416B9002CFFF625AF95F82500B6FA94
:1002FC0086F77F09A0B1EB7F297F033424F0070434
:10030C00194444F004043B462246C9B200F02EFFC7
:10031C000028FFF60FAF044416B9002CFFF60AAF05
:10032C0095F82610002959D00734002E24F0070820
:10033C0014BF404600202A8D0FF064FB041EFFF60C
:10034C00F9AE444416B9002CFFF6F4AE1EB1298D5B
:10035C0040460AF033FE95F82010002940D095F85D
:10036C002430002B3CD06A8C0734002E24F0070874
:10037C0002F1240214BF4046002092B20FF042FB5F
:10038C00041EFFF6D7AE444416B9002CFFF6D2AECD
:10039C00AB7F297F95F82400033424F0070419441B
:1003AC0044F004043B462246C9B200F0D1FE0028BA
:1003BC00FFF6C0AE044416B9002CFFF6BBAE3EB13E
:1003CC006A8C95F82010083292B240460AF0FCFD77
:1003DC002B6B5BB176B12C630020ADE68846B5E79C
:1003EC00002EF5D0002211461046EFE7002EF3D177
:1003FC002046A1E62834FBD59CE600BF1C05002056
:10040C0024050020200500201FB572B6184B5D6B2B
:10041C00E5B9BFF34F8F1749174BCA6802F4E06276
:10042C001343CB60BFF34F8F00BFFDE7B2FBF6F277
:10043C00DCB20133002AF9D104F110036B4403F848
:10044C000C2C0A2234B901A8A847E2E70246002383
:10045C000A26EDE7631E04AEDCB256FA83F3B0FB5A
:10046C00F2F602FB1600303003F80C0C3046E9E7CC
:10047C00580D002000ED00E00400FA0513B5114CF6
:10048C00637B8DF80130237B8DF800306389ADF8E8
:10049C00043068462389ADF8023003F075FE18B1BC
:1004AC00DB210320FFF7B0FF207E03F09DFE08B197
:1004BC00DE21F6E7E07D03F091FE08B1DF21F0E7E5
:1004CC0002B010BD580D002038B5054600283ED0AE
:1004DC000DF04CFF10B94FF0FF3038BD0BF0A0F908
:1004EC00B0F5FA7FF7D81C4C1C486563002500F06A
:1004FC0077FA2A222946A01C84F83850257084F8F3
:10050C002C5025630EF0C6FA1B222281628140F228
:10051C00032240F20113A28103226380A273012300
:10052C001F2223712282A3764FF40272F723628278
:10053C00638444F60112FB23E2822385EFF31084DB
:10054C0072B600F023FE2CB962B62046C5E76FF0F8
:10055C001500C2E72846C0E7580D002089040000AA
:10056C0038B51446002840F0B9805E4D95F8383007
:10057C00032B00F0B080B1B112B96FF0150038BD8B
:10058C000139142900F2AA80DFE801F00B1C1F349A
:10059C005E67853A6A6D7F404654598B8E9C9FA24C
:1005AC0094001378AB700020FFF7B6FD0028B7BF9E
:1005BC000123022385F838306FF00B00A8BF85F8B3
:1005CC003830DCE71378EB70EDE71379002BD4D0DF
:1005DC005379002BD1D01288FB2ACED81A2A6388E3
:1005EC00CBD91B3BE02BC8D82368AB603E4BA28811
:1005FC009A80D8E713786A799342BED32B71D2E7ED
:10060C0013782A799342B8D86B71CCE713782A798E
:10061C009342B2D86B75C6E71378002BADD05378E4
:10062C00013BDBB2F82BA8D81388EB822F4B9278C6
:10063C009A70B8E71078687608F0A4FDB3E71378E1
:10064C00002B9AD0AB76AEE7012000F04FFA23785E
:10065C0008B1012B91D9AB73A5E713882B82A2E7C4
:10066C001378AB719FE7072000F040FA10B923789C
:10067C00012B82D9072000F039FA18B12378002B0E
:10068C003FF47BAF2378EB748DE71378082B3FF6A0
:10069C0074AF2B7587E71388FF2B3FF66EAFAB74E7
:1006AC0081E71378EB767EE713780E2B3FF665AF78
:1006BC002B7778E723680E4A2B6263685360238993
:1006CC00138170E713786B776DE71378EB776AE734
:1006DC001378AB7767E74FF0FF3050E76FF02C00E3
:1006EC004DE700BF580D0020600D00206E0D00205E
:1006FC00780D0020F8B50D46064630B329B311F03D
:10070C00070422D1124F97F83830012B02D16FF029
:10071C000B00F8BD032B02D14FF0FF30F9E700F0CE
:10072C008FF80028F8D02846FFF7F6FC0028EEDBFF
:10073C0012F052FA3046396B03F0CAFDFFF79EFEF9
:10074C00032387F838302046E3E76FF01500E0E725
:10075C00580D002010B5074C94F83830032B03D1FA
:10076C0003F0D2FD04F00EFD0FF075FA002084F8B2
:10077C00380010BD580D002050B1074B03F1140286
:10078C0053F8041B40F8041B9342F9D10020704726
:10079C006FF01500704700BFB25C020010B5074B3C
:1007AC0093F838403CB903F05DFD0320044900F098
:1007BC0095F9204610BD4FF0FF30FBE7580D002097
:1007CC000101000010B5074B93F838403CB903F019
:1007DC005DFD0220044900F081F9204610BD4FF068
:1007EC00FF30FBE7580D0020DD00000010B5054B75
:1007FC0093F838401CB910F0CFF9204610BD4FF0DB
:10080C00FF30FBE7580D002010B5054B93F838402E
:10081C001CB910F0C4F9204610BD4FF0FF30FBE7B7
:10082C00580D0020024B02681A600020704700BF70
:10083C00940D0020014B1B68184700BF940D00203D
:10084C00024B1868003818BF01207047940D002027
:10085C00F7B52E4E0446071D2C48376004F0AAFC51
:10086C000228054606D1294920460EF06EFA284684
:10087C0003B0F0BD042842D13378092B0AD0262BC3
:10088C001ED0314620460EF0C5FAB0F5817F2DD32F
:10089C00722112E005213E200EF02AFA0028F0D138
:1008AC00F378327901A943EA02236846ADF80030A7
:1008BC000EF051FE0028CFD053210820FFF7A4FDE5
:1008CC001A213E200EF014FA0028DAD17368C3F313
:1008DC000F23ADF804306946112301A88DF80630BA
:1008EC000EF05DFE0028B7D06521E6E70028B3D0F6
:1008FC00A17820780EF0FCF90028B8D1ACE70828D4
:10090C00B5D1024920460EF04FFAB0E7980D002001
:10091C00074B4FF0FF3141F6FF72C3E90012054956
:10092C000022C1E900221F21C3E90212704700BF57
:10093C00C00400209C0E00203F280CD801380B4B23
:10094C00C0F3421200F01F0053F8223023FA00F0DB
:10095C0000F001007047FF2806D04038C0F3421267
:10096C00034B00F01F00EFE701207047C00400208C
:10097C009C0E00200146074B006849681A4603C2CA
:10098C0040F48C221A6041F0107242F4FF625A60FB
:10099C00704700BFC00400200246024B006851683B
:1009AC0003C370479C0E00200246024B006851683E
:1009BC0003C37047C8040020FD281ABF00F1FF30A4
:1009CC00C0B23F20054B420903EB820300F01F002D
:1009DC009B6823FA00F000F001007047C00400206F
:1009EC00014B1860704700BFA40E002010B5FFF734
:1009FC008FFF0FF0F1FA034B1B68044603B19847C5
:100A0C00204610BDA40E00200B880288F0B5C3F35D
:100A1C000E049EB204F11803C57CC35A02352A4455
:100A2C002B4497B213FA82F3013B4288B3FBF7F3E2
:100A3C0013FB07439BB29A42044A93BF22EA060374
:100A4C00324013439BB20B80F0BD00BF0080FFFF10
:100A5C004A1E062A08B50346084604D84FF4D1713D
:100A6C001520FFF7D1FC094A914202D940F2A3119B
:100A7C00F6E711B903B1196008BD2BB11B68002250
:100A8C00C3E901211A1D1A600430F5E7FAFFFF7F54
:100A9C0010B5114B00EB41041A786389B3FBF2F3E8
:100AAC0003FB0223013A1A44B2F5706F027928BF96
:100ABC0000231A448378B2FBF3F0194403FB102093
:100ACC00091AB1FBF3F003FB101313446FEA434311
:100ADC006FEA5343638110BDA80E0020024B03EB59
:100AEC0080035960704700BFA80E0020034B03EB36
:100AFC0080035868003818BF01207047A80E0020EA
:100B0C002DE9F04F10F0070A85B0054604D040F2ED
:100B1C0061111720FFF778FC554F07F14006B146DD
:100B2C000446B0464FF0010B57F8043B8DF80BA070
:100B3C003BB101A898479DF80A30082B01D9E82150
:100B4C00E7E79DF80B1081BB05B13160B94506F1A3
:100B5C000406E9D12DB3DFF81CE100238EF8003038
:100B6C001E460F2258F82200013A60B190F804A0FA
:100B7C008178BAF1FF0F66D14FF000078E420771F2
:100B8C003CBFCEB20123511CECD10BB18EF80060EE
:100B9C000F2640F6FF6A58F82670002F65D1013EEB
:100BAC00F9D2601B05B0BDE8F08F9DF80AC0BCF10E
:100BBC00020FE64601F1050238BF4FF0020E0EF1AE
:100BCC00FF3004EB42040444CEF100002040BDF899
:100BDC0008406444013CCCF1000C04EA0C04B4F56C
:100BEC00803F4FEA420301D3F82192E775B1C31A53
:100BFC00336099701C8083F803B09DF80C201A7137
:100C0C00019A1A814FEA124CA3F806C004FB0104A6
:100C1C009CE758F82C90B9F1000F06D099F804B065
:100C2C00D34504BF99F802904F440CF1FF3CBCF142
:100C3C00000FEEDA3944FF29A0D90BB18EF8006011
:100C4C0040F2271165E794460027F0E707EB4103D4
:100C5C003846A3F80AA0FFF71BFF09F10109BB787E
:100C6C005FFA89F18B42F1D899E74FF00009F6E76A
:100C7C00AC0E0020A80E0020034B03EB8003586C35
:100C8C0000B18078704700BFA80E0020F8B54FF671
:100C9C00FF730380184B03EB81030546586CB8B106
:100CAC0086780379B3FBF6F206FB1233DBB21946F6
:100CBC000A1D00EB4202B2F902705488002F09DBC6
:100CCC000131B1FBF6F206FB1211C9B28B42EFD126
:100CDC000020F8BDFF29FBD0C4F30E03C4782B8091
:100CEC0024B94FF4D5711720FFF78EFB5380BDE864
:100CFC00F8400EF051BE00BFA80E00201D4B03EBB8
:100D0C00810370B55C6C054644B3030404D54FF401
:100D1C00DC711720FFF778FB014620460EF01EFE13
:100D2C00FF28014604D02046BDE870400EF034BECA
:100D3C00A078B5FBF0F300FB1353DBB219460A1D88
:100D4C0004EB4206B6F90260002E09DB0131B1FB5F
:100D5C00F0F200FB1211C9B28B42F0D1002070BD31
:100D6C00FF29FBD08B4204EB42021CBF0023E37033
:100D7C005580D8E7A80E0020094B03EB810310B572
:100D8C005C6C014620460EF0E9FDFF28014604D0BC
:100D9C002046BDE810400EF0FFBD002010BD00BF86
:100DAC00A80E0020F8B5104B03EB810307465C6CD2
:100DBC00014620460EF0D2FDFF28054611D0E688EC
:100DCC00238953EA064606D0014620460EF0E4FD80
:100DDC0001463846B04720462946FFF759FE002009
:100DEC00F8BD0520FCE700BFA80E002038B50E4B5F
:100DFC00827903EB82030446586C08B9052038BD90
:100E0C008278E1799142F9D24B1CE37100EB4103FA
:100E1C005D89B3F90A30002BF3DBA5800EF0BCFD25
:100E2C0020600020EBE700BFA80E002070B5044640
:100E3C0010F003000E4603D04F211820FFF7E4FA00
:100E4C00FFF706FE054624B1034831460460FFF760
:100E5C00FFFD284670BD00BF2C0F00202DE9F14F7F
:100E6C00DFF870B09DF828A09DF82C901E46DBF89A
:100E7C00003007460D4690461BB961211820FFF73C
:100E8C00C3FA5246092140460EF0D8FB4A4684B2BA
:100E9C00092130460EF0D2FB14FA80F1DBF8000089
:100EAC000EF031FD386018B9286001B0BDE8F08F44
:100EBC0004442C6038685346414609220EF077FBF7
:100ECC0028684B460922314601B0BDE8F04F0EF0C0
:100EDC006EBB00BF2C0F002070B50E4604460EF002
:100EEC00C0FB054630460EF0BCFB044B2A182146CD
:100EFC001868BDE870400EF02ABD00BF2C0F002012
:100F0C00014B18680EF0F3BC2C0F00201F2AF8B50B
:100F1C00044613460ED89200033222F00303B3F5B5
:100F2C00803F2DD2184DACB1A00710D05F21092005
:100F3C00FFF76AFAFF2B4FEA420204D9FF339A42B9
:100F4C00A8BF1A46E8E77C2AB8BF7C22E4E72970E0
:100F5C006C602B8122F0030201EB81031204D80098
:100F6C0001276B68120C0025EEB28E4200D3F8BD3F
:100F7C0014B126181F705E60104401352833F3E756
:100F8C004FF0FF30F3E700BF300F002038B5144AA4
:100F9C00147853680021C8B2844203D8AB210920CD
:100FAC00FFF732FA1846013105782833002DF2D0BC
:100FBC000021817001241289447044688161C161EF
:100FCC00920800F12001051D21F8022B994245F8E9
:100FDC00044B1444F8D100234361037038BD00BFA7
:100FEC00300F00200A4B1B89B3F5FF7F4FEA9300AB
:100FFC0006D25A089B1A9BB2984238BF18467047C3
:10100C00B3F5EE6F01D8FF22F4E740F27263F3E719
:10101C00300F00202DE9F8434B7880460C4602F047
:10102C00040602F0FB07D3B1DFB12E4BD4F80490C9
:10103C001D89B7BB01236370AD08A761E76104F19B
:10104C0020034A46211D04F1280023F8025B984234
:10105C0041F8042B2A44F8D10023636101E0002FEE
:10106C00E3D0FF23A370002E18BF0226A3191B7D0B
:10107C00032B03D1022F1CBF0136F6B2A319012298
:10108C001A7506F10C0204EB8606002324F81230C4
:10109C007268A370C8F80020A8F804304046BDE878
:1010AC00F883002114226170A0180DF0F3FCB5F543
:1010BC00FF7F0FD26B08ED1AADB209EB0502C4F835
:1010CC0004902584A2606384C4F80C90A5842261EA
:1010DC00E384C6E7B5F5EE6F4FF0FF03EBD940F2B2
:1010EC007265EAE7300F00202DE9F84305460C46FF
:1010FC00F720052191460EF0A1FA061E22DB1DB940
:10110C0014FB06F0BDE8F88315F0030703D0982113
:10111C001920FFF779F9DFF83480C8F81050A8F8D7
:10112C001460A5B2BBB29D42EAD9B8F814C0D8F885
:10113C0010004B4607FB0C000522F7210EF037FA86
:10114C000137EFE74FF0FF30DCE700BF440F002022
:10115C0007B5CDE900230B4603490246081D0EF0E6
:10116C0054FD03B05DF804FB5C0F002013B5064C76
:10117C00CDE900230B46024604F1080104F10C00F2
:10118C000EF043FD02B010BD5C0F0020134B01228A
:10119C0000214FF0FF309A60C3F80012C3F8080327
:1011AC00C3F80015C3F804259A60C3F80803C3F804
:1011BC000015C3F804250A490A4A03F580334FF495
:1011CC000040C3F80825C1F88000BFF34F8FBFF370
:1011DC006F8FC1F88001C3F80825704700F00040FC
:1011EC0000E100E00000F63F8C46322300B50CF81D
:1011FC00033B054B8E4607CBCEF80300CCF804100E
:10120C00CCF808205DF804FB780F002010B5154CC5
:10121C0009F026F808F044F9636A608C00219847BD
:10122C00237E9BB9104B628C93E8030004F0DAFE2A
:10123C00E36A188804F000FE636B94F8301094F89D
:10124C0031009847002384F8383010BD94E807002B
:10125C0004F10C0383E80700044904F1190010F0B1
:10126C004FFBDFE76C0F0020940F0020F5110000FE
:10127C00034B93F8383003B97047FFF7C7BF00BF73
:10128C006C0F002008B540F267410620FFF7BCF850
:10129C0008B5094B93F83820022A07D1DA7A42F0C4
:1012AC000102DA72BDE80840FFF7B0BF40F22D2111
:1012BC002720FFF7A9F800BF6C0F002070B5364E41
:1012CC0096F8283005460BB1012825D001292AD8DB
:1012DC00336C28469847044628B396F8303013BB35
:1012EC0096F8283013B31DBB96F84420D106C2F3F0
:1012FC0000152DD4F26C316D1278C2F3001201B3CB
:10130C0082F00104BBB1738F9A0715D5F36BDC78AF
:10131C00023C18BF012407E0738F1807D6D5F36B76
:10132C00DB78022BD2D10124204670BD012DDBD0FD
:10133C000024204670BD738F002BF4D1002DF3D008
:10134C00F6E7B6F854100029DAD0002BF3D0DAE720
:10135C00F16B0A7802F00302032A02D1CA78022A3E
:10136C0018D0B06C0EF006FA48B9F36B1B7803F08A
:10137C000303032B06D196F828300546BAE796F8F6
:10138C002830B7E703F0DEF980F0010596F8283035
:10139C00EDB2AFE70025ADE76C0F002070B5264C21
:1013AC00E56AE26C95F88C30A265064694F85C0010
:1013BC000BB10430C0B295F86D100EB9FF2831D0C6
:1013CC0008F07CFC95F88C3033B3206E09F062F891
:1013DC0094F82830D5F8E820216EA06D6267003BA8
:1013EC0018BF012384F87C30D5F8EC30A36707F0E4
:1013FC00FBFF46B995F86D30033B012B94BF2820B9
:10140C00002009F0B5F895F86C10002009F018F9D7
:10141C00022384F8383070BDA06D09F03BF808F059
:10142C003FF8E6E795F86C208A42CDD008F046FCF0
:10143C0095F88C30C8E700BF6C0F00202DE9F04107
:10144C003C4C94F83830E56A012B82B06BD15FFAD2
:10145C0083F895F87C3006460F4673B1638F0021F4
:10146C0043F00403638785F87C10636A0420984773
:10147C0094F828300BB185F87E80E16B0B7803F083
:10148C000303032B30D04B7853B3022385F88230FF
:10149C0095F88C30EBB1E36A94F8282093F86D3012
:1014AC00003A18BF0122013BDBB284F87C20D5F84E
:1014BC00E8206267032BD5F8EC20A26794F85C2037
:1014CC0036D81D490020CB5C00901C49012007F048
:1014DC0013FF06B9E7B902B0BDE8F041FFF796BEBD
:1014EC00012385F88230D3E795F8823063B9638F96
:1014FC0043F0020363870220636A9847E16B0B7821
:10150C0003F00303032BBED1032385F88230BFE71E
:10151C0031463046FFF7D2FE0028DCD102B0BDE8E0
:10152C00F041FFF73BBF40F29D412720FEF76CFFD7
:10153C00FFF7A8FE6C0F0020942C0200D00F0020A7
:10154C0070B5824CE56A94F85C3095F88C2082B0CA
:10155C0000218DF805100AB10433DBB295F86C103C
:10156C0010B9FF2B00F0B180FF2008F0A7FB95F815
:10157C008230032B00F2E580DFE803F0021C807060
:10158C0094F8BA30ADF806307148A5F85C3003F029
:10159C00B3F8002840F09F80A06C0DF105020DF10E
:1015AC0006010EF086F8E06320B195F8C730002BE9
:1015BC0000F0A9806748E06395F883200378D20097
:1015CC0002F0080203F0F303134395F88420920011
:1015DC0002F00402134303F0EF0203F00303032BA6
:1015EC00027002D1C378022B11D0A06C0EF0C2F89D
:1015FC0048B9E06B027802F00303032B07D003F029
:10160C00A1F8002878D1E06B027842F01002027049
:10161C0095F88B3013B14378002B41D108F03AFF89
:10162C0007F03EFFE66B03F0ADFE20B1337803F01C
:10163C000303032B63D095F86D10012009F000F81B
:10164C00E36B454A18889978A4F84400012384F880
:10165C00BC30917084F8383002B070BD3C4803F057
:10166C004BF8002863D0E06BC3781B2B14D10121FD
:10167C0005F1100008F054FBE06B0DE0B5F85C30A0
:10168C00A06CADF806300DF105020DF106010EF05F
:10169C0010F8E06300284FD0012384F8BB308BE7AF
:1016AC00206E08F0F7FE94F82830D5F8E010D5F845
:1016BC00E4206167B3FA83F35B09E16B206E84F875
:1016CC007C30A26707F090FEACE795F86D308B424A
:1016DC007FF44AAF4BE7638FE16B626A43F480732C
:1016EC004FF4807063879047E06B012185F87D1083
:1016FC00C3781B2BD0D1BBE7E06B027887E70120C6
:10170C000AF00AFA97E79DF8053043B1BDF80610C8
:10171C0010F09DF80123E06B84F8BB304CE703809C
:10172C008370E06B01210FF0A5FFE06BEEE740F258
:10173C00D7212720FEF768FE40F2CD212720FEF7A7
:10174C0063FE40F2E5212720FEF75EFE6C0F0020C1
:10175C00A80F0020F40F0020B00F00202DE9F04F4F
:10176C00B84C94F83830E76A87B00022022B049208
:10177C0040F01482638C0D4613F04001804606D174
:10178C00636A40209847638C43F040036384B8F14C
:10179C00000F5CD097F88C30002B40F05B81D4F8B4
:1017AC0058A09AF8013099B2A4F85410002940F0CE
:1017BC006781002323659AF80060638C97F8831087
:1017CC00C6F3800243F400739142638400F0F78007
:1017DC00D4F82C9099F88220FAB1022A00F0B88142
:1017EC0094F82830002189F8821023B199F87E30C2
:1017FC00002B40F0A38199F87D30002B40F08081C4
:10180C0099F88330D4F858A0012B0CBF0023012386
:10181C0089F883309AF80060638C97F88410C6F3CB
:10182C00C00243F40063914263844FF0000900F05E
:10183C00CE80002603F0A6FD30B39AF8003003F0FA
:10184C000303032B20D101200AF066F91CE097F862
:10185C008C20002A40F01C8143F48063638497F849
:10186C006D3094F8C620033B0132012B84F8C6205E
:10187C0005D903F087FD8146002800F0D6800120B1
:10188C000AF04AF90026B14697F88B3013B394F856
:10189C00283097F87620B3FA83F35B0984F87C3010
:1018AC0097F86C30013B002ADBB2D7F8E020626776
:1018BC0018BF0420D7F8E420A26708BF0020032B30
:1018CC0000F27181604A6149D35C00220092FB22D4
:1018DC0007F012FD45B994F8C6100120FFF7EEFC95
:1018EC000546002800F0D88008F0FEFE0125002EE9
:1018FC003BD1B9F1000F09D094F82830002B40F0FF
:10190C009680B4F809300133A4F80930B8F1000F0F
:10191C004AD0B4F8053000220133A4F8053084F81D
:10192C00C6204B4804F076FA049830B10DF0BFFF96
:10193C00E16A0022027203F081FC36B1E16A0023F5
:10194C0033720C22304603F047FC002D32D1638CED
:10195C001B0607D4636A294680209847638C43F0A2
:10196C008003638407B0BDE8F08FA16D236D4E78C2
:10197C00002B00F01A81B4F85420184603320DF0F5
:10198C00F5F80DF10E0205A9A065D4F8C0000DF014
:10199C00A4FF05980DF08BFF314601220646D4F8C2
:1019AC00C0000DF031FFA4E7B4F807300133A4F800
:1019BC000730B6E7FFF72AFC07B0BDE8F08F97F8C1
:1019CC008410C6F3C0029142C1467FF432AF06F0D8
:1019DC000306032ED4F82CB064D143F480536384F3
:1019EC00638F012043F00103514663878BF87C0021
:1019FC00636A9847D4F858A000269BF88430013BC2
:101A0C0018BF01238BF884309AF80130002B3FF477
:101A1C0011AFDBF8E8300133CBF8E830DBF8EC3011
:101A2C0043F10003CBF8EC3004E706462CE7B4F89E
:101A3C000530B4F80710B7F880200B4313433FF47C
:101A4C0065AF5EE76C0F0020942C0200D00F0020D5
:101A5C00940F002007F040FDD4F858A09AF80130FC
:101A6C0000287FF4A0AE002B65D09AF8002097F8E0
:101A7C008410C2F3C00291427BD099B2A4F85410E6
:101A8C00D4F8C0000DF097FED4F858A0206592E66B
:101A9C0007F062FD638CDFE6FFF752FD002E3FF48A
:101AAC0028AF62E7002EA8D09AF80160002EA4D0CF
:101ABC0043F4805363849BF88C6008F0D1F80428BD
:101ACC0094F8C43006D1002E14BF1B221F2293425F
:101ADC0028BF1346D4F858A09AF801209A424ED841
:101AEC00266D002E3FF4A6AE94F8C530002B53D0D3
:101AFC00636A0021202098470026D4F858A099E664
:101B0C00002689F87D6002F007FE002852D0638F12
:101B1C0043F0080363873146636A08209847D9F875
:101B2C00E0300133C9F8E030D9F8E43043F1000378
:101B3C00C9F8E43064E6A4F854303AE6638F89F8C7
:101B4C007E1043F0100363871020636A984752E6B7
:101B5C00A06C04A90DF0D0FD88B3D9F8E0300133A6
:101B6C00C9F8E030D9F8E43043F10003C9F8E430A7
:101B7C0036E6012384F83130FFF748FBF2E694F89F
:101B8C003030012043F0100384F83030002609F087
:101B9C00C3FFD4F858A04DE646462EE740F211514B
:101BAC002720FEF731FCFFF76DFB40F28E4127201A
:101BBC00FEF72AFC40F21C412720FEF725FC40F2E0
:101BCC0005412720FEF720FC70B50D4B0D4C0E4A3D
:101BDC001A6094F838301BB1DE212720FEF714FC74
:101BEC0003F0FF0206460D46227604F0F3F90121BC
:101BFC0004F188000FF03EFDE664256670BD00BF61
:101C0C00280500206C0F0020C020000010B5074AEA
:101C1C0092F8383013B10C24204610BD03F0FF04A9
:101C2C00147604F0D7F9204610BD00BF6C0F0020CD
:101C3C00024B012283F8C520704700BF6C0F0020B7
:101C4C00F0B5C24C85B002AD85E8030094F83800BD
:101C5C000A9E002840F09781002A00F09481002B06
:101C6C0000F09181002E00F08E8100F0FF0184F8CD
:101C7C00C51084F8301084F8C61084F8311084F83C
:101C8C00BC1084F8BB106187618495E80300236461
:101C9C0004F1280383E80300E56A6262666308F0D6
:101CAC009FF807F0FDFB95F9740008F093F9A86A0A
:101CBC0008F0D4FB286A08F093F995F89C0008F01A
:101CCC0099F995F87630002B40F0B380962007F008
:101CDC00B1FF94F82800002800F0B380E36A93F871
:101CEC00B831002B40F0028195F86D209D21012028
:101CFC0008F05EFA964B974E186808F0B5FB6B69C6
:101D0C00D5F8F410D5F8F820D5F8F000A364D5F880
:101D1C00FC30AF69C4F8C0700FC6E36AD5F8001187
:101D2C0093F88620C4F87D10D5F80411C6F80D1070
:101D3C00A2F12601012940F2948093F887102629FC
:101D4C0000F08F80213A012A40F2F080242900F023
:101D5C00D08093F86C60032E08BF042605F134077D
:101D6C00314638460FF035FE31460FF05DF9B5F8C7
:101D7C00403095F86D100246934228BF1346384602
:101D8C0084F8BA300FF0F2FD95F86D1095F88C7060
:101D9C00B5F84860042908BF03210FF045F90FB9C5
:101DAC00043080B2B04228BF3046C6B284F8C4605A
:101DBC0003F0E8FA002840F08B8094F8280084F8AF
:101DCC005C60002866D195F88B30EBB195F86C30DF
:101DDC0095F87610D5F8E0206267013B0029DBB25C
:101DEC00D5F8E420A2674FF0010118BF0420032BA3
:101DFC0084F87C1000F2CC80574A0021D35C00910F
:101E0C00FB22544907F078FA0120FFF799FB0023D5
:101E1C00C4E90033A3602B6F2988B5F8800095F8CE
:101E2C009C206080218022710BB101221A6005B0C8
:101E3C00F0BD4D2007F0FEFE94F8280000287FF43A
:101E4C004DAF95F86C20444B03EB42039988434B00
:101E5C0001F5FA71A3FB013189096E3108F0A8F97B
:101E6C0048E794F82820002A39D193F8FA2193F8FE
:101E7C006C60002A3FF472AFF31E012B63D9D31EA2
:101E8C00012B60D9012E3FF469AF012A14BF022641
:101E9C00012663E795F88C30B3B195F86D30D5F821
:101EAC00E820D5F8EC10A167013BDBB20120032B35
:101EBC00626784F87C006BD82749CB5C00210091C9
:101ECC003246244907F018FA0120FFF767FA9EE71B
:101EDC0003F05EFAB04238BF3046C6B26DE793F8F5
:101EEC00922293F86C60002AC6D137E707F066FFA0
:101EFC00FAE694F82820002A3FF42BAF93F8262119
:101F0C0093F8651093F86C6002EA01035A071AD42F
:101F1C0013F001022BD19B077FF520AFF31EDBB230
:101F2C00012B10D9012E18BF022617E72429E0D067
:101F3C0094F82820002A3FF40CAF93F8262193F84C
:101F4C006C6050070CD5042608E700BF6C0F00200E
:101F5C0028050020D00F0020942C0200D34D6210D5
:101F6C0012F0010309D191077FF5F8AED6E7033ED5
:101F7C00012E8CBF16460426F0E6033E012E8CBFC4
:101F8C001E460426EAE640F26D112720FEF73CFAC5
:101F9C00FFF778F908B5124B93F8382092B193F803
:101FAC00282022B993F83830012B14D108BD93F8AE
:101FBC003820022A0AD1DB6AD3F8D001BDE80840E8
:101FCC0008F0A2BABDE80840FFF720B940F20F2193
:101FDC002720FEF719FA40F20B212720FEF714FAFE
:101FEC006C0F0020FFF712B9014B1876704700BF39
:101FFC006C0F0020014B93F8BC0070476C0F002055
:10200C00034B93F8BB0010B9588CC0F300307047E9
:10201C006C0F0020024B588CC0F3C020704700BFDF
:10202C006C0F0020014B93F8C60070476C0F00201A
:10203C002DE9F0411E4F8207FE6A82B0044613D48C
:10204C00E3070ED5D6E93A3296F88410013342F103
:10205C0000020129C6E93A320CBF0023012386F89D
:10206C00843002B0BDE8F0813B6DE3B1B7F8542089
:10207C000D46B96D1846033291F801800CF076FDCF
:10208C000DF1020201A9B865D7F8C0000DF025FCCE
:10209C0001980DF00CFC012228604146D7F8C000D5
:1020AC000DF0B2FBCCE740F28E412720FEF7ACF9E5
:1020BC006C0F00209D1200006917000049140000ED
:1020CC007D12000008B540F2F2310620FEF79CF9B3
:1020DC002DE9F843002800F0E1800446072900F2BE
:1020EC00D380DFE801F0AB2424A7D11F9ECD01469D
:1020FC00204610F049FAD4F8443100F1E5059D4230
:10210C0040F2C780E81A322838BF322003210BF086
:10211C00A7FDC4F844510646204610F0FDFA002EE7
:10212C0000F09D802046BDE8F84310F0F6BA10F0A0
:10213C007AFAD4F81421002305460E4684F840316F
:10214C0084F84931BAB150EA010314D0CA00C30073
:10215C001B1A42EA507262EB0102D4F830115B1880
:10216C00D4F8341142EB0102D4E95401834272EBEE
:10217C000103C0F09180022304F5A07784F8483164
:10218C0038460AF0BFFF002800F08C8094F86031CC
:10219C0003F0FF01002B6BD1D4E956026FF0004322
:1021AC009A4208BFB0F1FF3F13D02046D4E95498AF
:1021BC0010F0EAF9D4F85831D4F85C21B3EB0903E8
:1021CC0000F1E50062EB08021B1A62F10002002A22
:1021DC004BDB94F8100139460BF086F800286BD0D5
:1021EC00D4E95401D4E94A32834272EB01071FD27D
:1021FC0055EA06071CD0C01A61EB020133462A4689
:10220C000CF0AAFB05FB01F3D4E94A2100FB0636CE
:10221C00A5FB00535519334443EB0103C4E94A535E
:10222C0006E090F810010AF047FF002384F83831DB
:10223C00BDE8F883BDE8F84308F06ABA05F066FD1E
:10224C00D4F84401CB380BF079FC80B3204610F065
:10225C0027FA00283FF44BAF204610F05DFAD4E982
:10226C005423C4E94C23BDE8F883204605F056FD01
:10227C0094F810010AF020FF002384F83831AFE7FE
:10228C00FD213020FEF7C0F840F201113020FEF79E
:10229C00BBF8C4F84451DFE701236DE7E02130209F
:1022AC00FEF7B2F84FF4D3613020FEF7ADF840F2F0
:1022BC005A213020FEF7A8F840F29C613020FEF73E
:1022CC00A3F800BF2DE9F04F04468BB04FF0000986
:1022DC00029390F86DB0CDF818900E4690460EF023
:1022EC00BAFC94F8B9310B2B00F20684BF4F37F8C7
:1022FC00135094F887302844442B85B215D094F8A9
:10230C008620442A11D0A3F10E02B2FA82F25209AD
:10231C000392B8F1000F40F0BF8294F8FC21032A1D
:10232C0000F010830123049307E0B8F1000F00F0D4
:10233C008E800123CDF810900393B4F848A2B4F822
:10234C008090A6EB0A0A0FFA8AFAA6EB0909BAF1F1
:10235C00000F0FFA89F904F50678C0F29382029BFC
:10236C00A34A127802F0FF005AB9074694F8FC21F0
:10237C00032A00F2DD83DFE812F041010101C601FE
:10238C007300059309F040FA059B0028EDD0B4F8D2
:10239C00E821012A40F2208394F8FC21022A00F063
:1023AC001B8394F81202002840F0168394F87620D0
:1023BC00002ADAD194F8B9210B2A00F29D8337F860
:1023CC00125094F8FC2105F5C865012AADB240F015
:1023DC00598394F88A20032A40F08183D4F8F401BD
:1023EC00E76A07442946059309F0D2F902463846B4
:1023FC00D4F8F071C4F8F021D21BD4F8F871294646
:10240C0002FB07F709F0C4F9D4F80022C4F8000263
:10241C00801A07442946E06909F0BAF994F8762045
:10242C00059B02B10230B4F8D421D4F8F8114A4417
:10243C00C943A2EB0A020A44D4F80412C4F80402F9
:10244C00401A00FB0277012284F812228EE794F8DE
:10245C00FC31032B00F07C820123CDE903336CE7C4
:10246C00E169029801FB0AF2002800F01882B4F826
:10247C00D451002D40F0138284F81352D4F8040286
:10248C0000FB1A2A94F88620CDF818A0262A00F012
:10249C00A58294F88720262A00F0A082002B3AD03F
:1024AC00CDBBD4E98C23D4F83812D4F83CC28A4280
:1024BC0073EB0C0380F0318394F86D30DA1E012A33
:1024CC0040F2D382184608F085FC4A4DD4F83812F5
:1024DC0000F5234E0EF1A10EA5FB0E3ED4E98C2384
:1024EC0094F86D008439A0F1030C8A1A9244BCF163
:1024FC00010FAAEB9E1A40F2158308F06BFC00F258
:10250C00E731A5FB0131D4F80402B4F8D4518909A0
:10251C0051441039069105EB090AABF1030300FB9A
:10252C000AFADBB20AF1300A012B4FEA4A0A40F2EE
:10253C009982584608F04EFC2E4B00F52340A130F2
:10254C00A3FB00304FEA9019584608F03BFC0AF107
:10255C007405274B4D442844586094F87630002B72
:10256C0042D0254AE069514606AB0EF0A2FD204B45
:10257C0084F81302069A5868E1692BE1D4F8040236
:10258C00E269B4F8D431D4F8F81194F86DB0258E12
:10259C00121A99440AFB02F2D4F800320692D4F8CB
:1025AC00F021303302FB0133C943894400FB093964
:1025BC00ABF10303012B4FEA490905F1740540F215
:1025CC00B681584608F006FC0A4B00F52340A130B2
:1025DC00A3FB00304FEA901A584608F0F3FB4D4429
:1025EC00034B554428445860069A8AE0A42C0200F8
:1025FC0034100020D34D62103810002094F86D1068
:10260C0094F8CE010EF038FD8146E06A2946484424
:10261C0009F0BEF82946C4F80002E06909F0B8F8E0
:10262C0094F87630002B40F0D581C4F8040207A949
:10263C0008A808F061F8079B0093D4E99001DDE944
:10264C0008230BF077FD94F86D300593054618467A
:10265C0008F0C0FB059BDFF8E4A2033B00F55F40EC
:10266C00012B00F1410094BF28210021AAFB00306E
:10267C0001EB9011803120460FF00EFAD4F84C3259
:10268C00E26A94F86D000693059208F0A3FB4AF2F7
:10269C00A13B00EB0B03AAFB0331069B059AD4F874
:1026AC000002943B13441B1A4B445B1BA3EB91138A
:1026BC00069394F86D30B4F83090DA1E00F13005C2
:1026CC00012A4FEA450509F1960940F22D81184679
:1026DC00059308F07FFB8344AAFB0B3A059B4FEA5A
:1026EC009A1A184608F06EFB4D44954B069A5544C1
:1026FC0028445860D4F84C32D31AB3F5917FC0F00B
:10270C000282E16966E0E36AD4F8F40129461844D0
:10271C0009F03EF82946C4F80002E06909F038F8DF
:10272C0094F87630002B40F0538194F86D90C4F8F7
:10273C000402484608F04EFB804D00F55F40A9F1BD
:10274C000309B9F1010F00F14100A5FB003094BF62
:10275C002821002101EB9011803120460FF09CF9CB
:10276C00B4F8D431002B00F0A280D4F8F431E26A32
:10277C00D4F8000294F86DA013441B1AAAF10301BB
:10278C000693C9B2D4F8F031D4F8F821B4F83090EB
:10279C0002FB0305303501294FEA450509F174099F
:1027AC0040F2C880504608F015FB644B00F52340FE
:1027BC00A130A3FB00304FEA901B504608F002FBFF
:1027CC004D445F4B069AE1695D44284458600123EF
:1027DC0084F8FC31D4F804526FF4AD734D1B1D44D6
:1027EC00D21BD4F84072D4F844320692854228BFEA
:1027FC000546BA1843F10003C4F82C320023C4F880
:10280C00D051C4F8282284F8183204F134000FF0A7
:10281C00ABF8D4E98A230544C4E99023C4F81C52CC
:10282C00A4F8486205F0AEFE20B1D4F81C321E3379
:10283C00C4F81C32B4F8C011039A8E1B002336B2B4
:10284C009E4284F82032C4BF022384F82032002A2E
:10285C0040F0D080029A002A40F0D08094F8FC31ED
:10286C00002B40F0EC8094F8140241460AF03CFD39
:10287C00002800F04381049B84F8103200200BB038
:10288C00BDE8F08FD4E98C01002384F81332C4E93D
:10289C009001CA46012363E5CDF810904DE594F8FC
:1028AC001302002800F0DB80254B586892E7029B4E
:1028BC00002B3FF45AAFD4F8F431E26A94F86D006F
:1028CC0003EB020B08F086FA00F52340A130A5FBC0
:1028DC0000304FEA9019D4F80002D4F8382294F85A
:1028EC006DA0ABF1940BABEB000B9344AAF103017D
:1028FC00D4E98C23C9B20129ABEB020B40F2BE80A8
:10290C00504608F067FA94F86DA000F2E732A5FB88
:10291C000235AAF10301D4F80002AD09C9B2ABEB40
:10292C0009022A4406922DE74FF0650AD9E64FF0CA
:10293C00650A51E64FF0650B3FE700BFD34D6210BF
:10294C00341000200E2B18BFCDF80C807FF4EAACAD
:10295C00B4F89032B3427FF47FADB4F8D421B4F81C
:10296C004A321344C4F8F831D4F80432C4F8F031C4
:10297C00E369C4F8F431204606F082FBD4F89822BF
:10298C0094F8A43241F64B5842458CBF4FF00008E6
:10299C004FF00108002B40F08C80E3699A4204D080
:1029AC00208810F0F5F8D4F89832E361D4F894321A
:1029BC00E362B4F892322386D4F89C326362022329
:1029CC0084F8FC310123CDE9033384F87680B4E438
:1029DC000230AAE6023028E60027C7E4B4F89022B9
:1029EC00B21A12043FF55AAD94F89322002A18BF7C
:1029FC00934653E5029A002A3FF435AFB4F8E82128
:102A0C00D2B1B4F8EA0194F8EC1100FB01118A423E
:102A1C0000F101007FF727AF002B3FF424AF002318
:102A2C0084F82032A4F8EA0102F0B8FC00F00700A8
:102A3C00013084F8EC0116E7A4F8EA2113E7E16908
:102A4C00D4F804324046C91A0EF0BDFA80B2002800
:102A5C003FF409AF149B9BB1188001200FE7B4F829
:102A6C00D4510BE54FF065096EE5D4E98C23A1F147
:102A7C00E90CACEB020C3C21E24449E53C254EE769
:102A8C000120FCE6E0690593294608F081FE94F8E4
:102A9C007620059B02B10230B4F8D471D4F804222C
:102AAC00C4F804024F44A7EB0A07801A00FB07F78F
:102ABC00C9E4208810F069F850B3B4F89032B4F837
:102ACC00A02262864FF00008B4F8A2224381013B99
:102ADC0003828281D4F89832A0F80E8065E794F8CE
:102AEC006D1094F8CE01E76A05930EF0C5FA059BBC
:102AFC000744D4F8F40175E4FFF7E4FA40F2875187
:102B0C003020FDF781FC40F2D2413020FDF77CFCF7
:102B1C0040F232713020FDF777FC40F22651302024
:102B2C00FDF772FCB4F8D451D4F804023C21EFE464
:102B3C0040F23E513020FDF767FC00BFF0B585B088
:102B4C00002800F010810446072900F2F380DFE82A
:102B5C0011F09500080008007E00F10083008B0046
:102B6C00ED0010F0D1F8D4E98C23801A61EB03014D
:102B7C00012871F10003C0F2FF806FF00102002305
:102B8C0082428B41C0F20181E3690BB1B0FBF3F3DC
:102B9C0094F88720442A00F09B800E2A94F8861023
:102BAC0000F096804339012940F29280B4F88010ED
:102BBC00B4F80E220B449BB2D11A090400F1C88060
:102BCC00531C9BB2A4F80E3294F81132B4F80E12C6
:102BDC00002B00F0B380B4F8BA00B4F880306D4F1D
:102BEC00B4F84A220344B4F8B800013B1B1A9EB255
:102BFC003B680132A4F84A2202AD53B1013989B2C3
:102C0C00002220469847B4F80E12014489B2A4F869
:102C1C000E12731A1B0462D4002300951A46204628
:102C2C00FFF750FB40B3012840F0A180B4F80E121E
:102C3C00B4F8C031CA1A10046ED4BDF80830194467
:102C4C0089B23B68A4F80E12002BD7D1E1E705B08E
:102C5C00BDE8F04007F05CBD012008F05DFF05B059
:102C6C00BDE8F040FFF7BEB990F8FC31042B40F002
:102C7C008880002380F8FC3105B0F0BD90F810324C
:102C8C00D3B1B0F80E22B0F880309A4263D0D31A88
:102C9C00A0F8C631A0F88020D4E98A232046C4E9E4
:102CAC008C2306F00DF994F8CB31002BE4D005B051
:102CBC00BDE8F0400FF0E2BEB0F80C32B0F8801076
:102CCC00B0F80C22A0F880205B1AA0F8C631E3E71C
:102CDC00B4F80E12013189B2A4F80E127BE794F805
:102CEC008A200394002A0CBF3E220822012384F878
:102CFC00A92028468DF8083002F04EFE20460FF031
:102D0C00BFFE002384F8FC3194F814020AF0D4F9C5
:102D1C00202384F81432AFE7BDF80820114489B29F
:102D2C00721A12F4004F18BF19468AE7D4213020CA
:102D3C00FDF76AFBD8213020FDF766FBB4F8C431EF
:102D4C008B427FF448AF013189B2A4F80E1242E7EE
:102D5C0001339BB236E7B0F8C431A0F880309B1A2F
:102D6C00A0F8C63198E7A8213020FDF74DFB40F2C2
:102D7C006A613020FDF748FB40F212613020FDF70C
:102D8C0043FBCE213020FDF73FFB40F21361302096
:102D9C00FDF73AFB2C0500202DE9F043D0F8143157
:102DAC000026D0E9548983B080F8186105460F4697
:102DBC0083F8CE2180F838610121D0F8140101F09C
:102DCC0001FFD5F81441C4E98C8995F8103184F8C9
:102DDC001432C4E99089C4F84C7284F8FC61A4F8EC
:102DEC00486233460096324631462046FFF76AFA6F
:102DFC00D0B9012384F8FC31C4F8F801C4F8F0010F
:102E0C00A4F80E02A4F80C0284F81102B4F8803075
:102E1C00A4F84A02013BA4F8803007F0C9FA03B0C9
:102E2C00BDE8F04309F0B8BF4FF4FE713020FDF758
:102E3C00EBFA00BFD0F81401704700BF2DE9F04346
:102E4C0085B000230322CDE90033FF268DF8062040
:102E5C006846FDF7CBFF044620BB009D95F8383142
:102E6C00002BF5D085F86061012128460FF057FC46
:102E7C0095F83831002BEBD095F810010AF096FC40
:102E8C0095F810010BF014F895F810010AF014F9EC
:102E9C0000283CD085F838416846FDF7A7FF04466A
:102EAC000028DAD0DFF87C80012388F80830002570
:102EBC0002264FF6FF771AE0029BE3B193F8142237
:102ECC00202A18D01888B8421BD00221FDF754FFD5
:102EDC00814608B390F814020AF0EAFF99F814023C
:102EEC0089F8FC410AF0E8F8202389F81432CDE97E
:102EFC0002558DF80E6002A8FDF778FF04460028F5
:102F0C00DAD0002388F8083005B0BDE8F0834FF420
:102F1C00F4713020FDF778FA4FF49A713020FDF7F8
:102F2C0073FA00BF34100020054B0022012142F23D
:102F3C0010705A72588119701A72FFF77FBF00BF58
:102F4C00341000202DE9F84390F83831002B77D15C
:102F5C000446884601465648154603F0FF070AF01A
:102F6C0077F8202806466BD05822394604F588702D
:102F7C000BF090FD84F81061C4F81481FF2384F8E1
:102F8C003831B8F1000F06D002F020FA00F007003B
:102F9C00013088F8EC0102234FF00008A4F8483106
:102FAC0084F8408108F046FC00F19E062046B6B23B
:102FBC000FF076FB002847D00DF04DFE00F5CD61EB
:102FCC0089B2284608F0E4FB2844C4F844010FF009
:102FDC009BFE301841F100014FF00109C4F850017B
:102FEC00A4F82680C4F8541184F8189120460FF0E8
:102FFC006DFB002846D0494620460FF0C5FA6FF409
:10300C009C631D442D1AC4F81C514FF0FF326FF015
:10301C000043C4E9562394F8100104F5A0710AF09A
:10302C0063F900283FD0D4E954232046C4E94A234D
:10303C00C4E94C2300210FF072FB3846BDE8F8833D
:10304C000C273846BDE8F883014620460FF09CFA61
:10305C00DFF86080E530C4F84401B8F80A0008B124
:10306C00E08CB8B906440FF04FFE361841F1000160
:10307C00C4E95461002DC8D0AE1941F10001C4E976
:10308C005661C8E748460FF022FCE53D2D1AC4F8FE
:10309C001C51BAE702F09AF9B8F80A30B0FBF3F217
:1030AC0002FB1300DEE74FF4E5713020FDF7ACF9BD
:1030BC00DD2000003410002090F838310BB90020CE
:1030CC00704710B50446FF2380F8603101210FF0E2
:1030DC0026FB94F838310BB9002010BD94F8100180
:1030EC000AF064FB94F810010AF0E2FE94F8100167
:1030FC0009F0E2FF20B1002384F83831002010BD24
:10310C004FF4F4713020FDF77FF900BF014B58727A
:10311C00704700BF3410002090F8602182B910B5C0
:10312C0002F0FF0490F8182112B90122104610BDCC
:10313C00D0E947319942F9D904F0F0FD2246F5E780
:10314C0000221046704700BF08B506F08FFD044BF7
:10315C00DA6882422ABF187A002080F0010008BD8C
:10316C003410002008B540F2FF110EF09DFCB0F5B4
:10317C00296F28BF4FF4296080B208BD90F8CB317D
:10318C00002B75D1F0B503F0FF0590F8FC31032B43
:10319C0085B0044601D005B0F0BD0FF0B5FDD4E903
:1031AC008C23801A61EB0301012871F10003F2DB1F
:1031BC006FF00103834275EB01035CDBE369B4F848
:1031CC008020002B55D0B0FBF3F080B2531C184478
:1031DC0080B2A4F80C02B4F80C22B4F8C4319B1AD7
:1031EC001BB2002BD7DD94F814020AF0DFFA00288A
:1031FC00D1D0FF2384F81132B4F88050B4F8BA203F
:10320C00B4F8B830214F1544013DED1A3B68ADB20E
:10321C000DF10E066BB1B4F80C12013989B2002213
:10322C0020469847B4F80C3210FA83F39BB2A4F8FA
:10323C000C32B4F80C32EB1A1B04ACD4B4F80C12EC
:10324C00009689B2002301222046FFF73BF80028A4
:10325C00A1D0012814D1B4F80C32BDF80E2012FA0A
:10326C0083F39BB2A4F80C323B68002BD3D1E0E77C
:10327C0070471846AAE740F2BB513020FDF7C4F85E
:10328C0040F202613020FDF7BFF800BF2C05002092
:10329C002DE9F043044683B0062900F2FE80DFE8F6
:1032AC0001F0042512222B327600D0E98C23D0E9D0
:1032BC008E0182428B41C0F093807A4B1B7A03F0D3
:1032CC00FF02002B7DD0042384F8FC3107F070F84A
:1032DC0009F062FDB4F88020A4F80E220023A4F8B3
:1032EC004A3284F8113203B0BDE8F083032380F82E
:1032FC00FC3103B0BDE8F08306F0C0FCC4E98E01DC
:10330C0003B0BDE8F08390F86D30DFF89891C56993
:10331C00D0F80422033B40F26D1840F24511012B0A
:10332C0088BF884699F8093095428CBFAD1A0025A4
:10333C001BB9436B9D4228BF1D4604F13400D4F8E1
:10334C00D0710EF011FB074402200AF035FCED1B86
:10335C0025EAE575854228BF0546022128460AF074
:10336C007FFC00B92F444246394620460EF082FBC2
:10337C00E269D4F8D031C9F80C00D0180AF0DEFBA1
:10338C000028B0D140F27E313020FDF73DF890F8A6
:10339C006D50284607F01EFD033D434900F55F4084
:1033AC00012D00F14100A1FB003094BF2821002128
:1033BC0001EB90118031204603B0BDE8F0430EF0D4
:1033CC006BBBB4F8C411009201232046FEF77AFFC0
:1033DC0000283FF47BAF4FF4DA613020FDF714F88E
:1033EC0094F81232002B3FF468AF94F8FC31032BA5
:1033FC007FF463AF94F86D800DF02DFC94F8B93127
:10340C000B2B48D8294AD4F8386232F81330D4F848
:10341C00D091C51803F5C8639FB2D4E98C234046FC
:10342C00B61A07F0CFFCA8F10302012AADB2A9EB42
:10343C0000092ED9404607F0CDFC1B4B00F523426A
:10344C00A132A3FB02239B09A9EB0303A3F1740292
:10345C005208D43B9D3205FB03F3B3FBF7F3603307
:10346C00A2EB53018E424FEA530302D313449E4204
:10347C0001D908F0CFF9E069294608F089F994F8E8
:10348C00763003B102300023C4F8040284F81232FF
:10349C0013E76523D8E7FEF715FE40F28471302060
:1034AC00FCF7B2FF34100020D34D6210A42C0200A4
:1034BC00012A70B5064609D0022A14460D461ED0C4
:1034CC004AB140F2AE713020FCF79EFF06F0CEFB05
:1034DC00C6F84C0270BD06F0C9FB224601462846D0
:1034EC00FFF75AFC0F4995F81001324608F004FB1F
:1034FC000028EFD140F297713020FCF785FFD0F80F
:10350C004C1201222846FFF747FC064995F810019A
:10351C00324608F0F1FA0028DCD14FF4F561302086
:10352C00FCF772FF492B0000F8B5044651B1012994
:10353C005BD1002380F8183106F03AFFBDE8F84063
:10354C0009F02ABCC58C002D47D12046D4E94A7617
:10355C000FF069F8401941F10001C01946EB010167
:10356C0000220223C4E95401C4E94A0184F8402131
:10357C00A4F8483194F8603103F0FF01002BDBD143
:10358C00D4E956026FF000439A4208BFB0F1FF3FF6
:10359C000CD194F8100104F5A07109F0A5FE0028D7
:1035AC00CAD140F2EF613020FCF72EFF2046D4E95F
:1035BC0054560EF0E9FFD4F85831D4F85C215B1B5B
:1035CC0000F1E50062EB06021B1A62F10002002A10
:1035DC00DFDA204604F0A2FBAEE701F0DFFEE58C5B
:1035EC00B0FBF5F303FB1505AFE740F2BE713020DD
:1035FC00FCF70AFF90F83801003818BF012070471B
:10360C00014B5881704700BF3410002090F85430A3
:10361C00590702460DD413F0030000D1704792F8FD
:10362C00550000F0FD00A0F10100B0FA80F0400957
:10363C00704790F85600A0F10100B0FA80F04009F4
:10364C00704700BF343270B592B205460C461E4628
:10365C000CF0D8F925B1034B1D601C745E741C7101
:10366C0070BD00BF5C100020014B1870704700BF8C
:10367C00D104002090F86C00003818BF012070476E
:10368C00014B5870704700BF74100020F0B5070C48
:10369C00A7F5AA42144B543A012A03EA90231FD9E6
:1036AC0027F4004042F6AA22801A18BF01200022FB
:1036BC00162116461F2487EA060562EA0505013520
:1036CC0010D0DD03ADB245EA5606E503ADB20139C3
:1036DC0045EA52024FEA53034FEA5404EBD1F0BDD2
:1036EC000020E4E70020FAE7E0FF3F00F8B58D1F6B
:1036FC00ADB240F67A4C65450746BDF824601046DD
:10370C00BDF818203BD8841FA4B264458CBF00249C
:10371C0001242546AFBB1D4F3F796FB15CB96FF4E7
:10372C0050654D19062D06D86FF450640419062CFB
:10373C008CBF002401242546FDB1814224D803FB13
:10374C000666B6F5FA7F1FDCA2F10A039BB240F6BF
:10375C007644A34218D80CF086FA42F210735A43FE
:10376C0000FB06F1B2EB410F0ED9BDF81C50BDF8B1
:10377C00200085428CBF002501252846F8BD002479
:10378C00C7E797F87570C8E70025F6E72811002001
:10379C002DE9F3410023CDE9003304460E461746CC
:1037AC0000F10A086846FDF721FB08B1002015E07E
:1037BC00009DA542F6D030460CF04FFAEB1CAA78CF
:1037CC0039460DF093FB0028ECD06A7A607A05F14B
:1037DC000A0341460DF08AFB0028E3D002B0BDE895
:1037EC00F0810000054A134692F8202053F8211B63
:1037FC0011F8030BC0F380100DF078BB6416002099
:10380C000138C0B2032808B504D94FF45071062012
:10381C00FCF7FAFD014B185C08BD00BF642D0200DB
:10382C000138C0B2032808B504D94FF450710620F2
:10383C00FCF7EAFD014B185C08BD00BFCE2D020061
:10384C000138C0B2032808B504D94FF450710620D2
:10385C00FCF7DAFD014B185C08BD00BF902E02008E
:10386C00F7B5114B9C7EDD7E9F8B064614B900F09C
:10387C0095FD0446A5B900F091FD054614B9092043
:10388C0003B0F0BD0028FAD0304601A98DF80440F1
:10389C008DF80550ADF806700DF0EAFB0020EFE74F
:1038AC00002CF1D1EBE700BFBC15002010B50321B3
:1038BC000020FDF761FA044670B90321FDF71EFAEA
:1038CC00044620B940F24D313920FCF79DFD034BE5
:1038DC0093F960100EF012FE204610BD2811002046
:1038EC0038B50DF002FB01F079F800F065FD0DF034
:1038FC00DFFF01F00DFA02F0FDFA01F03DFA0120B4
:10390C0000F01EFD1A4B1B4A1A6000251B221A4C94
:10391C009A805D839D839D771D76184B84F861504A
:10392C00F92258682283164A1B892260E0612946D5
:10393C00142204F124002384A4F85450A576A58005
:10394C00A5750BF0A7F8012304F13A0042F21072AE
:10395C00C4E90A2284F8243084F8393084F85650AB
:10396C000FF009F904F14400BDE838400FF028B914
:10397C00BC15002003021B0028110020642D02003E
:10398C001B004801044B41F64C521B21C3E9022297
:10399C0019745A61FFF7A4BFBC15002073B5394DDB
:1039AC00AB68044640F8343FFFF7DCFB064600F0FA
:1039BC00EFFC2B7C84F83C30334BE68710F0200F67
:1039CC001B681DBFAA886988A4F85E101B2208BF5B
:1039DC00A4F85E20A4F860201BB194F97410208820
:1039EC0098472A490B79003B18BF012384F875309E
:1039FC00274B1B6813B120880831984794F8753011
:103A0C00002B41F64C5318BF4FF47A73E3612046F8
:103A1C00FFF726FF064648B120880221FDF7C2F9C0
:103A2C0060B340F2D3513920FCF7EEFC01236386DE
:103A3C00184B1B6813B1014620889847164B1B681E
:103A4C0013B1208800219847AB886A886978019166
:103A5C0003332978009103329BB292B204F118011E
:103A6C0004F11400FDF7FAF9636913B94FF4BE6160
:103A7C00D9E7A3691BB940F2F151D4E709263046C6
:103A8C0002B070BDBC1500203405002028110020A8
:103A9C004C05002048050020440500202DE9F34189
:103AAC0005460E460EF06BFD002800F0AF80284650
:103ABC000EF0F6FD30B1B6F80130013B7F2B01D989
:103ACC00122404E028460EF0EFFD20B90C24204609
:103ADC0002B0BDE8F0812846FFF78CFD0028F5D137
:103AEC0028460EF0F5FC80460028EFD1284603F05E
:103AFC0019FE0028E4D0B6F80170F17842F2107388
:103B0C0028465F430EF0B8FD04213078FDF734F9F8
:103B1C00062104463078FDF72FF9002C78D038B107
:103B2C0041F6F3113920FCF76FFC90F8BD80044688
:103B3C00414E3368002B6DD0403420460EF0F9FF17
:103B4C00002867D020460EF0E8FF002862D1B8F1BB
:103B5C00000F08D0394B20461B689847002859D0D5
:103B6C0041F60721DEE7364933684969424620466B
:103B7C00984700284ED041F60C21D3E728460EF08A
:103B8C008FFD40B902210DF10600FDF77FF80646C6
:103B9C0058B90D249BE728460EF094FD0028F1D16E
:103BAC00284B1B79002BEDD18AE7002101F00AF894
:103BBC00BDF806303380284631460EF0A1FD28466C
:103BCC000EF080FDA8B9296A28460EF085FD014645
:103BDC003046FFF7E3FE044600287FF478AF3A4600
:103BEC0031462846FFF7AEF9044620B141F638219C
:103BFC0098E70121ECE7134BDB6D002B3FF467AF2B
:103C0C00024606F58D713046984760E742245EE720
:103C1C0000288AD128460EF03BFD01460028ADD184
:103C2C003A462846FFF78EF9044600283FF44FAF7A
:103C3C0041F6152176E700BF400500203C05002029
:103C4C00BC15002028110020B0F90020F8B514B2E2
:103C5C0092B202F5A0639BB2B3F5206F34D8B0F9E1
:103C6C0002301DB29BB203F5A06189B2B1F5206F91
:103C7C002AD802F2F64189B240F2BE50814225D8D0
:103C8C0003F2F64189B2814220D8002CC4BF09321C
:103C9C0014B2002DC4BF09331DB20A2094FBF0F4FA
:103CAC0001F03EF867B206460A21384695FBF1F161
:103CBC0049B201F027F8074B1B684BB1A01B40B26F
:103CCC0008B198470020F8BD3020FCE71120FAE736
:103CDC001846F8E738050020034B5A8802801B78F9
:103CEC0083700020704700BFBC1500207FB583781F
:103CFC001A2B064609D8042B05D9012202FA03F324
:103D0C00314A134205D112251AE0292B01D03B2B45
:103D1C00F9D13088B0F5706FF5D269460DF025F900
:103D2C0088B9019B93F8182102F0FF05C2B9B2784B
:103D3C0083F81921FF2283F8182168460DF091FDB4
:103D4C00284604B070BD30880921FDF715F80446EB
:103D5C00002837D0B0F8AC0102A90DF006F908B173
:103D6C000C25EDE7B4F8AE010821FDF705F820B9F4
:103D7C0040F628113920FCF747FB03781BB994F85F
:103D8C00C831032BECD1039B93F82E21002AE7D1E9
:103D9C0094F8F02102F0FF05002AE1D1B4F8B0212B
:103DAC00A3F8302194F8B42183F83221027D83F8F2
:103DBC003321B27883F8342184F8F021FF2283F880
:103DCC002E21BDE70225BBE72000380438B5047866
:103DDC004278857804F0010352EA030104F00204EE
:103DEC0001D1112038BDBCB9002DFAD0002B08BF71
:103DFC00144601E00024254620460BF0B9FF0028AC
:103E0C00EFD028460BF0B4FF0028EAD0054B002079
:103E1C009C76DD769883E5E7002BEBD114461D46A6
:103E2C00EAE700BFBC15002013B5008869460DF009
:103E3C009CF818B10224204602B010BD9DF8003049
:103E4C0001984BB90BF01CFF0028F3D0019890F8A7
:103E5C002A3123B13A24EEE70BF020FFF4E790F877
:103E6C00D23003F0FF04002BF4D190F8C9309B073B
:103E7C0006D1FF2380F82A3168460DF0F2FCDAE710
:103E8C000249CA300DF03CFDD5E700BF931F01007D
:103E9C002DE9FF410778EF2F04460E4601D9122673
:103EAC00A5E0B0F80130ADF80C309DF90C209DF870
:103EBC000C30002AF3DB9DF80D209507EFD1D806C6
:103ECC006CD4990603F0030265D5002AE7D11A07D2
:103EDC0003D503F06703012BE1D163781D0711D4DF
:103EEC002179E278E07942EA0122617942EA0142E1
:103EFC00A17941EA0021207A41EA00418A42CED8D8
:103F0C001F2ACCD9627A013A062AC8D8A27A032A87
:103F1C00C5D813F0040102D1023A012A03D8E27A7F
:103F2C00012ABCD811B9A27C032AB8D813F010010D
:103F3C00227D44D0012AB2D1237E012BAFD8002997
:103F4C004DD06378D80703D500F0BCF900284DD0CC
:103F5C006378227D03F0180108295AD1022A45D131
:103F6C001B0709D4E279A37943EA0223227A43EAB4
:103F7C000243B3F5804F39D81FFA87F80321404626
:103F8C00FCF7FAFE0546002849D0FFF733FB002862
:103F9C0051D00C262BE0032A99D180E713F0600F47
:103FAC007FF47DAF03F00F0203F00703052B94D0D1
:103FBC00931E012B91D9002A7FF471AF8DE7022A51
:103FCC0004D103F06F03092B7FF469AFA37D013B90
:103FDC00022B3FF664AFE37D0F2BADD95FE700F00A
:103FEC00DDF981070AD4237D022B04D1112630463A
:103FFC0004B0BDE8F081A37D022BF7D000F0CEF920
:10400C0042079ED4237D032BF0D0A37D032B98D1A4
:10401C00ECE7022AA4D0227F002AA1D0E6E70321F4
:10402C004046FCF76BFE0546002841D0214B93F926
:10403C0060100EF063FA002138460EF05AFD18BBE2
:10404C0028460EF022FB21463070E074284603F01F
:10405C00C1FBE37E0646002BC9D00028C7D1E96C12
:10406C0002466846FCF7D6FFE86C324601210BF09D
:10407C001EFDE96C68460422FCF7CCFFE86C324666
:10408C0031460BF014FDB2E740300EF052FD002823
:10409C00D6D0637813F0330F7FF401AF296AA77D74
:1040AC0028460EF019FBFFF7ABFB8742C8D070E730
:1040BC0007269CE72811002030B50279042A8BB022
:1040CC0003465CD84488B4F5804F58D82D4810442A
:1040DC000021827C457BADF8001042F0100242EAD0
:1040EC004502C57D007F8DF8081042EA850242EA40
:1040FC00C00202F01F028DF80020BDF80020ADF8C0
:10410C0009201A888DF80B208DF80E40120A240A0B
:10411C008DF80D108DF810108DF80C208DF80F40C7
:10412C005A7B8DF811205A798DF812209A79D3F890
:10413C0007008DF81320B3F80B209B7B8DF81A30F9
:10414C007F238DF81B30012305908DF81D10ADF8E1
:10415C0018208DF81C308DF81E3002A88DF81F1019
:10416C008DF820108DF823108DF824108DF8211067
:10417C008DF822106946FFF78BFE0BB030BD122074
:10418C00FBE700BF642D02000278034672B142784F
:10419C0062B142881A2A09D982881A2A06D9044A95
:1041AC00006810609B889380002070471220704735
:1041BC00BC150020024B02689A600020704700BFBB
:1041CC00BC1500200378A3F10A02112A9DBF024AF4
:1041DC000020137412207047BC150020014B187678
:1041EC000020704728110020014B587600207047A2
:1041FC0028110020024B1B6803B11847112070478F
:10420C003005002008B503F077F9FEF78DFEBDE808
:10421C000840014803F05AB98C11002008B50CF085
:10422C0062FE064800F58471FDF7CEFC02200BF00F
:10423C00BBFBBDE8084000200BF0B6BB8C11002086
:10424C0008B5074B012283F80A2203F05DF904F04C
:10425C008BF9FFF7E3FFBDE8084000F0A3BF00BFF8
:10426C008C11002010B5064C064904F503700CF0B7
:10427C00B2FC04F504700449BDE810400CF0ABBC72
:10428C008C110020500500205805002010B5094C59
:10429C00094904F503700CF09EFC04F50470074901
:1042AC000CF099FC04F505700549BDE810400CF0C4
:1042BC0092BC00BF8C110020680500207005002006
:1042CC0060050020014B93F80A0270478C11002006
:1042DC0038B5094C0D4600F041FFD4F80C02C4F877
:1042EC0004510CF070FCFFF74DFB01F087F8012333
:1042FC0084F8183238BD00BF8C110020014B93F8A4
:10430C00180270478C11002010B50C4CD4F8100218
:10431C000CF059FCD4F814020CF055FCFFF7E0FA41
:10432C00202000F027F8262000F024F8292000F0A7
:10433C0021F8002384F8183210BD00BF8C11002026
:10434C00014B83F8190270478C110020014B93F834
:10435C00190270478C110020C2080549012300F096
:10436C00070003FA00F08B5C18438854704700BFB9
:10437C00D8040020C208054900F00700012383403F
:10438C00885C20EA03008854704700BFD8040020E2
:10439C00014BD3E900017047D8040020054B186885
:1043AC00C0F3C022C0F30020400040EA820040F07D
:1043BC0001007047D804002008B507F031FA084A0C
:1043CC00002332F82310814205D302EB83039B7840
:1043DC00044A137008BD01330C2BF2D10023F7E70C
:1043EC009E2D0200A6130020024B1878072828BF28
:1043FC0007207047A613002010B544682388A4F842
:10440C00743184F8731194F86C00FFF709FA84F88E
:10441C00760194F86D00FFF703FA054984F87701EB
:10442C0004F5B5700DF06CFA002384F8243110BD3E
:10443C00670C0100406808490388A0F8663190F8C1
:10444C00643080F8683190F8653080F8693100F29A
:10445C005D100DF04FBA00BF7D0C01002DE9F04F3F
:10446C00054685B008460C460DF0DAF9064620469E
:10447C000DF0CEF9804620460DF0CEF9834620464D
:10448C000DF0CCF96C6894F8873094F886A0242B46
:10449C00074630D104F18709002E4BD00BF0070BE7
:1044AC0058460CF034FC88B394F86C3098422DD0FC
:1044BC0094F82421012A0CBF94F8262194F8682042
:1044CC001BEA020F36D0BAF1220F1FD094F86520E8
:1044DC001BEA020F1AD1461EF6B2032E06D85F4A0B
:1044EC00013B1644DBB2032B31790BD940F21F216F
:1044FC000620FBF789FFBAF1220F40F0AB8004F1E4
:10450C008609C9E713441B798B4213D808F00701BD
:10451C0008460CF0FCFBC0B394F86D30834234D0E9
:10452C0094F82431012B0CBF94F8273194F869309E
:10453C0019422AD194F82431012B15D11E21284679
:10454C00FFF75AFFBAF1220F12D16B68182283F8C9
:10455C0009210A2283F8862093F8C230002B45D11A
:10456C0040F2B3217E20C4E7002384F82431E9E72C
:10457C000023284689F800300DF0CAFA1821284685
:10458C0005B0BDE8F04F0DF0EFBA03AB0093204639
:10459C003B465A460CF0C6FB6C6888BB94F8243139
:1045AC00012B2AD1B4F8803094F86C10B4F828019F
:1045BC0004F524720CF016FC0446C8B901462846D2
:1045CC00FFF71AFF89F800406B6803F187029145E9
:1045DC0002D1002283F887206B6803F18702914592
:1045EC004FF0000433D128460DF092FA002032E04F
:1045FC006B68282283F88620E6E784F82401E3E739
:10460C00B4F88000A4F89072C0430744BFB247F6D8
:10461C00FD739F4206D9282384F8A930284601F05F
:10462C00BBF9D9E794F887300E2B02D00B3B012B4A
:10463C0001D82A23F0E79DF80C3084F892329DF8CB
:10464C000D3084F89332262389F80030C4E783F8C0
:10465C00C240CBE7022005B0BDE8F08FCE2D0200A2
:10466C00044B002283F832204FF6FF729A86DA86CA
:10467C001A877047A8130020054B9A8E824201BFFF
:10468C00002283F832204FF6FF729A86704700BFE3
:10469C00A8130020014BD886704700BFA813002038
:1046AC00094A0346908E4FF6FF71884206D192F864
:1046BC003210012905D01A600120704700201860C3
:1046CC0070470020704700BFA8130020064B93F8DA
:1046DC003220012A1FBF0120DA8E83F832009A861D
:1046EC0008BF0020704700BFA8130020014B18879B
:1046FC00704700BFA8130020064B0246198F988EF6
:10470C00884205D193F8320018B11360012070472C
:10471C0000207047A8130020094B998E1A8F9142E4
:10472C0001D0002070474FF6FF729A8693F8322022
:10473C00002AF6D0002283F832200120704700BFF7
:10474C00A8130020054B998E1A8F914203BF93F842
:10475C003200B0FA80F0400901207047A813002005
:10476C0050B90A4A1346012003F8010B0868C2F835
:10477C0001008A889A807047012805D1034B0A688A
:10478C009A608A88D8719A81704700BFE213002022
:10479C0048B90A4B187880B1D3F80120B3F805302A
:1047AC000A608B807047012806D1044BD87920B160
:1047BC009A680A609B89F4E700207047E213002096
:1047CC0020B9054B187800F00100704701280ABF8A
:1047DC00014B0020D879F6E7E2130020F7B5002250
:1047EC008B888DF80600ADF8043008680C4B8DF8FA
:1047FC000720019D1C78014603F5AC73D0B28442AE
:10480C0001D8082009E0D3E90076AE4208BF8F42F8
:10481C0003F1080302F10102F0D103B0F0BD00BFB7
:10482C00F013002030B5094B01465C78002203F5EB
:10483C008173D0B2844201D8082005E013F8015BE3
:10484C008D4202F10102F4D130BD00BFF013002003
:10485C00F0B5254D95F8984189B0224605F299118D
:10486C0068460AF083F9214668460CF05DFB044665
:10487C00B8B300EB4001C9B202A8FBF7DBFF601E26
:10488C0095F8A161C0B2012495F8982105E0731C3C
:10489C00B3FBF2F102FB1133DEB206F120030DEB98
:1048AC00030111F8203C002BF1D100EB4002203227
:1048BC006A4406EB46032B4412F8187C83F8A27169
:1048CC0012F8177C12F8162C83F8A37183F8A42124
:1048DC0001F8204C0138AB19C0B2FF2883F899417C
:1048EC00D2D109B0F0BD00BFF013002070B5064660
:1048FC0088B00C46002A4FD02A4A92F8A131D01821
:10490C0090F8991121B94FF480712820FBF77CFDA8
:10491C0003EB43011144013391F8A251E57091F876
:10492C00A35191F8A41161710021257180F899119E
:10493C0092F89811B3FBF1F001FB103382F8A1311E
:10494C0092F8C23123B9184902F5DD700CF0D5FF8D
:10495C00657905F03F0545F0400565710D22002194
:10496C0068460AF097F8E3788DF80F3023798DF8C4
:10497C000E3004AA0423694630468DF80D5009F018
:10498C002BFE9DF81F3023709DF81E3063709DF830
:10499C001D30A37008B070BD03216018FBF74AFFEF
:1049AC00D6E700BFF01300205D480000044B5A7896
:1049BC00824286BF1B1893F84A010020704700BF43
:1049CC00F0130020044B5A78824286BF1B1893F8D0
:1049DC0042010020704700BFF0130020064B00225C
:1049EC004FF461711A8083F8C32183F8C421A3F8B2
:1049FC00C61183F8C2217047F0130020014B83F8D5
:104A0C00C4017047F0130020014BB3F8C601704786
:104A1C00F013002030B50A4B5C7884420ED9184450
:104A2C0090F802012B3003EBC004A5790D7053F8FC
:104A3C0030001060A3889380012030BD0020FCE77B
:104A4C00F01300200246074810B590F8C34124B17A
:104A5C00417821B1023004F0A5FB204610BD0C4674
:104A6C00FBE700BFF01300202DE9F74F2F4C9A46BF
:104A7C00637883428046894656D9231893F842516D
:104A8C0085F00105F9B193F84A31E3B945F0020715
:104A9C000135BAF1000F18D1FA070AD5062101FB2E
:104AAC00084104EB0810524601F585718230FFF77E
:104ABC001DFFBB0734D504EB0810524649460230A3
:104ACC00FFF714FF2CE02F46E3E794F8A1614FF0B9
:104ADC00010B002DE0D0A319019393F8991199B90A
:104AEC000092DAB100F05AFC06EB46012144019B1E
:104AFC0081F8A2014FEA102C009A81F8A3C1000C96
:104B0C0081F8A40183F899B194F898310136B6FB79
:104B1C00F3F103FB1166F6B2013DDAE747F0040747
:104B2C00384603B0BDE8F08F0027F9E7F0130020FA
:104B3C00074B5A78824209D91A1892F842212AB99D
:104B4C00062202FB003000F585707047002070478C
:104B5C00F0130020064B5A78824281BF1B1893F841
:104B6C003A01B0FA80F0400998BF0020704700BFAE
:104B7C00F013002030B50024A0F84040B0F84440B9
:104B8C0042F210754C43B4FBF2F4A0F84440541EAE
:104B9C0005FB0343B3FBF2F3A0F84230084BB3FB25
:104BAC00F2F30133A0F84830838F05FB0344436BC9
:104BBC00B4FBF2F459438463B1FBF2F2426330BDAF
:104BCC00005A620270B504460D4651BB4FF4327266
:104BDC0009F060FF012384F88E306FF0360384F8FF
:104BEC00D930042384F8DA306FF03B0384F8DB30DF
:104BFC006F2384F8DC306FF03C0384F8DD3006233F
:104C0C0084F8DF302B2384F8D830FE2384F80E315F
:104C1C007F2384F88530202384F8DE5084F8143206
:104C2C0070BD012922D10023A0F8D43180F8CB31FA
:104C3C00144BC2691344B3FBF2F3C0F8B03040F626
:104C4C00B833A0F8B4301146C38C7830FFF792FF1C
:104C5C0009F0DAFD30B1206AFEF718FD10B984F8BE
:104C6C00B851DDE7002384F8B831D9E70229D7D150
:104C7C00B0F89E32D0F89822C169BDE87040783007
:104C8C00FFF778BF7FC3C901034B80F874101B6812
:104C9C000BB100881847704778050020074B93F933
:104CAC0000301844142804DC10F17F0F03DB40B2F1
:104CBC007047142070476FF07E007047B8150020C5
:104CCC0007B57F230DF107008DF8073005F0ACFC1C
:104CDC009DF9073068B10A4A5078404243FA80F097
:104CEC00142808DC10F17F0F07DB40B203B05DF82D
:104CFC0004FB1846FAE71420F8E76FF07E00F5E79E
:104D0C00B8150020014B187059707047B815002069
:104D1C00024B00221A705A70704700BFB815002061
:104D2C00014B93F900007047B8150020014B93F923
:104D3C0001007047B8150020054B1B7833B9054BA3
:104D4C001A681B79026003710120704700207047BC
:104D5C00BA150020E0040020054BFF221A70054A0A
:104D6C00016811600179117100221A70704700BF3F
:104D7C00BA150020E004002007B5064B1868009017
:104D8C001B798DF804306846FFF7E6FF03B05DF839
:104D9C0004FB00BFC75C02000346407898B1DB7887
:104DAC003C2B05D8084AD35C1B1A58425841704713
:104DBC0003F11602D2B2042A04D8034A134413F89E
:104DCC00AD3CF1E701207047D62D02003C2908B517
:104DDC00C17003D80B4B5B5C437008BD01F116032B
:104DEC00DBB2042B04D8074B194411F8AD3CF3E7A4
:104DFC00FF2904D040F259412A20FBF705FB01237F
:104E0C00EAE700BFD62D02002DE9F04385B08946B4
:104E1C0002A9144698460CF0A8F8054600283DD186
:104E2C00039E34B9012486F88D40204605B0BDE8B8
:104E3C00F0837769214638460AF0DAFB014678B3ED
:104E4C00194B5B88A3422DD301AA38460AF029FDE1
:104E5C0096F88D300198002B0CBF494602210CF0BE
:104E6C0009FC019822464146033009F07FFE214699
:104E7C0038460AF002FC044618B97D212B20FBF7BA
:104E8C00C3FA9DF808302BB102A80CF0EAFC039B86
:104E9C00A3F8C251002386F88D30C6E70124C4E77D
:104EAC000446C2E72C46C0E7BC150020024B987F95
:104EBC00C04300F001007047BC15002083230B7029
:104ECC00014B1B78CB707047DC1500202DE9F743A4
:104EDC008769814638460D460AF0D5FC014618B95B
:104EEC00FC211020FBF790FA01AA38460AF0D9FCF5
:104EFC00064610B94FF48071F3E7019BB9F8000036
:104F0C0003F103081D4B1B687BB9B9F80030AB806B
:104F1C00002301986B72EE800CF0B4FB01280ED0CC
:104F2C0002280CD04FF48D71DBE73246414698478E
:104F3C0004460028E9D1204603B0BDE8F08328726E
:104F4C0038460AF0B6FC044610B940F22311C8E703
:104F5C00FB2E02D94FF49671C3E7286810B940F2C2
:104F6C002D11BEE73246414609F000FE38460AF0E4
:104F7C00E8FB0028DFD140F23111B2E780050020B8
:104F8C002DE9F347DFF87081DFF8709106460D4686
:104F9C0005272B694BB11B7A1BB97E211020FBF71F
:104FAC0033FA2C6994B9002066E06C68237A012BE3
:104FBC00F9D0EFF3108372B66A6812686A6003B9AD
:104FCC0062B62C61237A0BB9A421E7E794F808A008
:104FDC005FFA8AFA27720AF1FF330B2B77D8DFE8D6
:104FEC0003F073061027703D4E3D3D3D3D616368F7
:104FFC0013B94FF4D471D1E73146204698470420B9
:10500C001EE0636813B940F2B111C7E73146204680
:10501C0098470346C3F30723012BADF80400C0B235
:10502C0058D0022B0CD100232B610028B1D023E0E7
:10503C00636813B940F2B911B0E7204698470020D5
:10504C00EFF3108372B6227A052AD1B24AD100222C
:10505C0022722A61002BE8D162B6E6E7D9F800305B
:10506C00002BECD06068524631469847BAF10A0FD3
:10507C00C5D100232B61042002B0BDE8F087636822
:10508C000BB9B3218AE70D22327019885869A6F83A
:10509C00031001220024B2707271B4710AF051FB3A
:1050AC002C61E8E7606810B940F2E11176E7D8F8B6
:1050BC00003031469847034660B100232B61022033
:1050CC00DAE74FF4F97169E740F2F51166E74FF44E
:1050DC00FC7163E784F808A00028CDD1002B7FF485
:1050EC0058AF60E711B940F2192157E7002B7FF454
:1050FC0050AF62B64DE700BF7C0500208405002050
:10510C0070B5144C1426231D32460021184609F0A4
:10511C00C1FC03460125257400210433324604F1F9
:10512C001800C4E9013309F0B5FC84F824500A4A8C
:10513C0004F11C03C4E906330023E362236384F8FF
:10514C003430C4F83530C4F8393084F83D3013604D
:10515C0070BD00BFDC1500208005002010B5084C88
:10516C002378FF2B04D04FF49D711020FBF74CF9E2
:10517C0009F07AFA2070BDE81040FFF7C1BF00BFFC
:10518C00E504002010B5034C207809F089FAFF23C0
:10519C00237010BDE5040020014B187809F090BA7B
:1051AC00E5040020014B024A1A6070477C05002080
:1051BC00D94E000010B506490446FFF7E1FE28B9A8
:1051CC0020460449BDE81040FFF7DABE10BD00BF11
:1051DC00F4150020E015002010B51346027A22B118
:1051EC0040F295211020FBF70FF90A46BDE810405C
:1051FC00014601480CF05EBBE0150020044890F815
:10520C0034301BB903492C300CF071BB704700BF14
:10521C00DC150020B31801000346064890F83E2028
:10522C003AB190F83D2022B900F8353B02490CF018
:10523C005EBB7047DC150020C94E000010B50A4655
:10524C00037A23B140F29D211020FBF7DDF80146D3
:10525C00BDE81040014807230CF02CBBF4150020CE
:10526C001346027A0AB1037270470A460146014896
:10527C000CF020BBE01500201B234FF01B12838485
:10528C00038482618382C260038541B94FF4A473A5
:10529C00094AC3844384C261C382026170474FF4DC
:1052AC002963C38443844FF4A47203F12963C3615B
:1052BC00C2820361704700BF48014801034608469B
:1052CC00B3F85820B3F84C10B3F842C0F0B48A428B
:1052DC0093F86D40B3F85060B3F84870B3F846508B
:1052EC0028BF0A46B3F85A10A3F84220033CB14237
:1052FC00E4B228BF3146012C8BBFB3F84A604FF49F
:10530C0029660C464FF42964974238BF17468E42E3
:10531C0038BF0E469445A3F84640A3F84870A3F84E
:10532C004A6026D12C1B18BF0124B3F85420B3F8C3
:10533C004E50B3F84060B3F84410954228BF154660
:10534C0093F86C20033A012A15D9B3F85220B3F81C
:10535C005670BA4228BF3A46AE42A3F84050A3F862
:10536C00442002D1914200D144B1F0BC04490CF06C
:10537C00C7BA0124D9E74FF42962EDE7F0BC7047B6
:10538C0013190100014B1878704700BF1B16002041
:10539C00014B1878704700BFE6040020094AD2E997
:1053AC000003434083EAB01181EA43214FEAF343FF
:1053BC005360054B116058434FEAF06000EB8000DE
:1053CC00704700BF1C160020BB79379E094AD2E9F2
:1053DC000003434083EAB01181EA43214FEAF343CF
:1053EC005360054B116058434FEAF06000EB8000AE
:1053FC00704700BFE8040020BB79379E10B50A4CFB
:10540C0009480821FBF716FAD4E900231343F7D017
:10541C00064CFFF7DBFF2060FFF7D8FF23686060C6
:10542C000343F6D010BD00BFE80400201C1600207A
:10543C00174B184A9A60184A5A60184A1A60184A48
:10544C009A62184ADA62184ADA60184A9A61184A5B
:10545C001A63184A1A62184ADA64184A9A64184A83
:10546C005A62184B184A9A60184A5A62184ADA62F9
:10547C00184A1A61184A5A61184A9A61184A1A63EA
:10548C00184A9A64184ADA64184A9A63704700BF3B
:10549C0088050020C71B0100FD1B0100751C0100C5
:1054AC00831D0100F51D0100CD5A00000B1E0100EB
:1054BC00655D0000D55B0000E71E01000B1F0100BD
:1054CC00315C000090060020E91B0100AB1E0100BE
:1054DC002D1E0100D11D0100511E0100755B000045
:1054EC00B11F0100511F01003F1F0100911E01005F
:1054FC00054B064A9A65064A1A66064B064A9A6591
:10550C00064ADA65704700BF880500202B0E0100A3
:10551C006944000090060020010D0100D30E01002B
:10552C002A2A73B505460C462ED82A2A35D8DFE828
:10553C0012F039007D0087009300AB0091009100C0
:10554C00BA00BC00C20091009100C700D200BC00A0
:10555C0034003400D60091009100F100F100F80005
:10556C00FF000B01340034002A01470154015A0199
:10557C0060016B016D016F0171017C0184019B0164
:10558C009D01340034008C01EB2A00F07381FF2A5A
:10559C0000F07281EA2A00F06B8140F266415120E2
:1055AC00FAF732FF4168D1F80432B1F8FE21A3F5C5
:1055BC007A7541F2707085420CD84FF47A70B3FB57
:1055CC00F0F303F550639BB26420B2FBF0F20120C0
:1055DC00D2B20DE040F2E2406FF45065B3FBF0F351
:1055EC009BB25D19062DEFD9B2FBF0F20020D2B2BE
:1055FC002271D1F80022B0B16420B2FBF0F292B269
:10560C006271E371120A1B0AA2712372B1F808329B
:10561C0063721B0AA372B1F80A12204602B0BDE8ED
:10562C0070400CF053B840F2E240E6E74368D3F820
:10563C00F0112046013102B0BDE870400CF07AB890
:10564C0002784368012A02D193F8103101E093F8F3
:10565C001931237102B070BD4568204605F50E71F5
:10566C000CF077F805F5107120460CF07CF805F578
:10567C00067120460CF07DF8D5F80011204602B0DA
:10568C00BDE870400CF083B84168204601F5EF711D
:10569C000CF083F86B68D3F80411204602B0BDE817
:1056AC0070400CF07CB84368CEE7084602B0BDE809
:1056BC00704000F00BBB02B0BDE8704000F016BBB0
:1056CC000E230B7159234B7100238B71F323CB7178
:1056DC0010230B72BEE7436893F80A31B9E70378DD
:1056EC0046687BB996F8103163B196F80D112046D7
:1056FC000CF0A5F896F80C11204602B0BDE87040ED
:10570C000CF0A1B896F80B1120460CF098F896F80E
:10571C000A11F1E74168204602B0BDE870400CF078
:10572C0034BA436893F82621227193F8273109E0A3
:10573C00436893F82421012AF4D093F868200A7165
:10574C0093F86930637185E7456895F8FB010BF0B8
:10575C005CFB014620460CF05DF895F8FA01C31E7F
:10576C00012B07D895F86C30DA1E012A02D8984222
:10577C0018BF00200BF049FB0146204602B0BDE8E3
:10578C0070400CF043B845680023204601218DF889
:10579C0004300BF07BFF2A7C6B7C032A08BF0022B1
:1057AC0003F01F0343EA82139DF8042002F0200249
:1057BC00134301A920468DF804300BF070FF49E724
:1057CC0043680F211888FBF7D7FA00F15B012046DC
:1057DC0002B0BDE870400BF0F6BF084602B0BDE861
:1057EC0070400DF0B8B9084602B0BDE870400DF03D
:1057FC00BAB9274B1B68002B3FF42CAF2946204627
:10580C0002B0BDE870401847224BF3E7224BF1E79A
:10581C00224BEFE7224B1B68002B3FF41BAF0246D9
:10582C00232002B0BDE8704018471D4B1B68002BAD
:10583C003FF410AF02462420F3E7194B1B68002BF2
:10584C003FF408AF02462520EBE743680F21188888
:10585C00FBF792FA00F17D0200F15B01204602B0E9
:10586C00BDE870400BF0BBBF0E4BC3E70E4BC1E75E
:10587C000E4BBFE70E4BBDE7436893F88722D3F876
:10588C008812204602B0BDE870400BF00BBF00BF81
:10589C009C070020A007002098070020A4070020E8
:1058AC00B8070020B4070020B0070020AC07002088
:1058BC00A80700203C2803D8064B53F8200070475B
:1058CC0000F11603DBB2042B01D8AD38F4E700204D
:1058DC00704700BF880500203C2803D8064B53F8BE
:1058EC002000704700F11603DBB2042B01D8AD3851
:1058FC00F4E70020704700BF9006002030F8023C0F
:10590C00F7B504460D467BB100238DF804308DF8B5
:10591C0005309DF80430002063F307009DF8053036
:10592C0063F30F2003B0F0BD184B30F8A06C1B686C
:10593C000BB128389847164B1B680BB1304698476B
:10594C000A2300272B70AF70A5F80360637A54F814
:10595C00880C6B7109F007FF18B9B1216320FAF7B5
:10596C0053FD3046FEF788FE39463046FBF71AFAEF
:10597C0002213046FBF716FA18B9064B1B6803B127
:10598C00984704238DF804300223C0E7BC0700209D
:10599C00C4070020C0070020F7B545686E690446AF
:1059AC004FF6FF770DF102010DF101023046ADF813
:1059BC00027009F07EFE01A9304609F09DFE40B14F
:1059CC00019809F074FF616800220272FFF736FC3F
:1059DC00E8E7044905F1A00003B0BDE8F0400BF086
:1059EC0089BF00BF09590000F0B5044685B00D46CB
:1059FC00FF2600F8C16C10F8C23CF3B1184F3B788D
:105A0C001BB148211F20FAF7FFFC0C21381DFAF7B7
:105A1C0011FF3E70002304F8C13C2A46092302F80A
:105A2C00033BD4F80930C5F80330D4F80D3053607B
:105A3C00D4F81130936005B0F0BD01A80C21FAF731
:105A4C00F9FEA4F52A73039AC3F8042101AB03CB26
:105A5C0044F8CA0C44F8C61C04F8C26CDAE700BF60
:105A6C002416002010B5054C23782BB90C21201DD1
:105A7C00FAF7E0FEFF23237010BD00BF24160020B0
:105A8C00024690F8E631BBB990F8E73103F0FF011C
:105A9C000BB100207047094B18780028F9D0197009
:105AAC00D968C2F80411043303CBC2F8DE01C2F882
:105ABC00E211FF2382F8E631012070472416002002
:105ACC0070B5426892F8873004460D463BB1142BF2
