:100000000090002019F9010007040200FD0302001E
:1000100003040200030402000304020003040200BC
:100020000304020003040200030402000B040200A4
:100030000304020003040200B19B010089DA0100FD
:10004000030402000304020003040200030402008C
:10005000030402000304020003040200030402007C
:10006000030402000304020003040200030402006C
:10007000030402000304020003040200030402005C
:0C00800003040200030402000304020059
:10009000F0B591B00A910646474800210B910170D6
:1000A000464D294638314648059101600121331DEE
:1000B00034462C3437462D37079250040993019467
:1000C0000497089109D418889978090440180021E8
:1000D0000C4603911091374660E11DF0A7FA03909A
:1000E00020783821685420780146089A1140820708
:1000F000D20F51184007C00F0818342168543148F6
:1001000031490160314932480860324CA08DE881A4
:100110001DF0E5F8A08610200F90687135467088B4
:100120001CF0C4FE064638781AF036FF002801D0CD
:100130007D20C643F0B203280B9C10942F4600D0BC
:1001400016E11CF06DFA00251C4C65612081786B6E
:1001500010301DF0E9FA1DF099FE6081796B088B73
:100160001A4A9083488BD083888B10842420085CA3
:100170008007C00F10838868002864D0827B121823
:10018000D37B0F221A40072A089C25D80326920009
:1001900001A39B5822469F4601020000DF01000098
:1001A000D9010000D9010000D9010000D9010000E7
:1001B000FD01000013020000307500203C650020A6
:1001C000206C002040140840D6BE898E3C20094097
:1001D00000555555062009400022164610E00846F5
:1001E0002430CA8BFA4B1A850A8C5A85498C99851A
:1001F0000078012210405883052601E0022622469D
:1002000035200021F34B195405984171C17042709B
:100210002CE0059A55710121D170557029460BF0DB
:100220009FF83520EB4C205C00280AD07888032109
:1002300001402046213080780004400D0D1A681ED0
:1002400085413C2025543B20205C00280DD02246CF
:100250000026266466640598868246820121017420
:10026000786B40320830334605E00026786B083062
:100270000221002213460AF03FFA00280AD0022485
:100280000025314621400E9408D0012806D183264E
:100290002C4653E000248326109469E01095CE4844
:1002A0000D9606807A6B2525505D03263040C84B9D
:1002B000D882505D400804230C931840C74B188522
:1002C0000B95505DC006C00F588500290BD05068B3
:1002D00025321278D1070AD1C1491FF0F3FD0C9BDA
:1002E0001A40520006E00020BB49888106E0BD4963
:1002F000491C0022B84B1FF00BFFB7490D98C007EF
:1003000004D1002008820124109D17E0786B0B9A1D
:10031000825C9307006808D4B14C5307DB17184080
:100320001C400C9B13405A0002E0AE4A541C0022B1
:10033000109D0C829E311BF0B9FB01243B20A54986
:10034000085C002813D0786B08301DF0B7F900283E
:1003500002D184219F4A51710E9901729D4A116CFC
:10036000884201D1002010640F98109000E0109591
:10037000099B18889978090441189B480140F2B2FA
:10038000100208431880090C9970611E8C410F2AD5
:1003900003D90221109A0A4310928E4DFF210902BF
:1003A000014003200D90000281424FD10B940120A7
:1003B000810406910C9000020290B0308B4A0A9999
:1003C00001420E9747D007980646164004468848D3
:1003D000C06A042843D30F9400201BF091FD80B223
:1003E000471D3C460D9884436869214619F07AF907
:1003F000294605464869854204D04D610820109978
:1004000001431091002D2CD0B908E8892F461037F0
:10041000381817F0BDF8E88939186E4BDA79CA70C8
:100420000019E8811D460E9F786B10301DF07CF995
:1004300004201099014310913B20285C0028344689
:10044000C5D03D200C9929543446C0E7109CA00724
:1004500000D593E296E21E46079B1C4611E0099EDA
:1004600008E064480C99016085205A4D68710E9F20
:10047000099E0F9CA879002802D05F481FF0F0FE6B
:10048000079B069803402046029908400F94610696
:10049000CC0F002802D03A210C9A6A549A0C109979
:1004A0000C430A99C90715D00F99069B0B4011D12F
:1004B00010944A490988042926D135464020454EE2
:1004C0007071B0694249C96C081A3863032000BFD3
:1004D00000BF36E00A980004354644D53D484079CF
:1004E000102804D13D48008818F074FC354629884E
:1004F000AA78120489183C4A114000020843288057
:10050000080CA87002202BE0134635460F9A92057E
:1005100012D40A933A222F4EB25C531E9A41CB1F3B
:100520005C425C411443421E9041204301286BD140
:10053000022013F0EDF803E0032013F0E9F8254E54
:1005400070711FF0C9FC2849084071790902014304
:100550002980000CA870032000BF00BF0220109C5F
:10056000044300220B920F9EF0030CD5786B1030E1
:1005700010943C4617461DF0D7F83A462746109C83
:100580001A4806400F960B98002800D14EE13826F5
:100590001048805700280A9234D404994F78052FC8
:1005A00000D9002707210840801E05284BD880006D
:1005B00001A108588746C04601060000FD0500005D
:1005C000430600003F0600004B06000053060000F3
:1005D0003C2009403C6500208E200940062009404F
:1005E0000A8000000A80FFFFFF00FF00FFFFFEFF00
:1005F000A011084030100840F4670020F80722D00E
:10060000262728E0074626E0022903D13520305C62
:10061000002896D101200B903820305C002800D1B2
:1006200036E2ED4805210160B079002802D0EB48A0
:100630001FF016FE1BF0DEFF0022109C93E7F80768
:1006400001D0272707E0252705E0012007402637AE
:1006500001E07F0825372020E149085C89891AF0EC
:10066000D3FC0790F8B20B9013F0FAFD002815D0D8
:10067000109408998C030121089103F0E9FE1BF006
:10068000F7FB0F98204217D10498807800283DD0BE
:10069000D4481EF059FB04460A9A5CE01FF01CFC8B
:1006A000D14908404121490201432980000CA8702A
:1006B000022004430E9FB8E00E98039916F0E6FF5F
:1006C00004460F2840D83B20C549085C0028069600
:1006D0000AD03520085C002806D0895D1FF040FD57
:1006E000002801D17D20C443BC4EF1680E98806B78
:1006F00017F014FE3A210022B94B5A549871307FFA
:10070000800701D01EF082FE099D22E006963B2064
:10071000B34E305C002819D03520305C002815D04D
:1007200007981FF0AAFB601A80009721C9004018A3
:1007300070301EF009FB04460698315C06461FF037
:100740000FFD0028A8D182240A9A07E01FF07BF948
:1007500004460A9A069EE0B210280DD31FF0BCFB97
:10076000A1490840210201432980000CA870022001
:10077000109C04430E9F59E09C49002088830B99EC
:10078000402901D2402038437CB2002C069601D487
:10079000074601E07F200740F8B2954E70869048EA
:1007A0000079002804D038069249414092480160FF
:1007B00039208B4F385C002809D01CF053FCB08DD9
:1007C0008E49BA79002A06D08031084606E008989A
:1007D000C003401C02E08007800E48400E9F069E2A
:1007E0001FF052F81EF0C8FF022000BF00BF84486F
:1007F00005210160002C14D47949885D0B9A253AB3
:10080000089B9340984388550499897800290BD018
:100810000028109C0A9A09D10198007870498855DF
:1008200004E000206E498855109C0A9A002A00D1E5
:100830009FE02E4621206A4D295C3F2008400F9002
:1008400013F00EFD00283ED010940C9903F000FE2A
:100850001BF00EFB786B84680026002C32466BD0B0
:100860000B963C26AF5D2020285CA9891AF0CCFBB2
:100870000246002F0AD05948008D17461CF016FB7F
:100880003A460020A8550298C219E0320E9FA07B7C
:100890000019C17B0F263140072923D1407C8009F4
:1008A000022824D0012831D000280B9E3ED10027F9
:1008B0002046394614460AF053FD22463920EF4DB2
:1008C0002F540E9F38E03088B17809044018EC4965
:1008D00008404121490201433180000CB0700220E0
:1008E000044346E08220E54D68710B9E24E01FF032
:1008F000D1FA3520E14D285C002800D14EE13920A5
:1009000008992954842068710B9E0DE01FF0C2FAEB
:100910003520DA4D285C00280B9E00D172E1392089
:1009200008992954842068710A9A05E0352000212D
:10093000D24D2954392029540A92786B4035083019
:1009400001212A46334609F0D7FE0746324635468E
:10095000002F09D0781E414241410E4204D141424C
:1009600041411140012910D18320C44948710E9F93
:10097000109CA00706D5CC481FF072FC1BF03AFE75
:100980001EF0B8FC204611B0F0BD079508920B96FA
:100990009720C6000A98801970301FF06EFA601A0E
:1009A00084003D20B54A105C00282BD09189069127
:1009B000059DE8790C9616461AF026FB0A900C2045
:1009C00006991AF021FB002169710C9961180A9AA5
:1009D00089180C18079D18E0A0110840F467002042
:1009E0003C65002088130000FF00FF008E200940B6
:1009F00006200940D6BE898E40140840318100008F
:100A0000301008400834079D164620461EF09CF919
:100A10003521715C00290C900FD02020305CB18909
:100A20001AF0F2FA3821715C059A12790BF0CCFEBB
:100A3000002802D17D20C0430C90964C258093481D
:100A4000042545810E99496B25268A5D0D9B1A4028
:100A5000C282885D400828408D4A1085885DC006A6
:100A6000C00F50850B9800280A950AD04868253198
:100A70000A78D1073BD189491FF024FA2A40520055
:100A800038E00020A0817D4D08980C9A234638E07C
:100A90003520305C002800D153E52120305C3446FD
:100AA0002134617809020818A178090440187F49A7
:100AB0000140802900D044E57948072101601BF0FE
:100AC00099FD3C20315C0020002900D1D3E07988D9
:100AD00004220A40A1780904490D1143724A118584
:100AE0000121C903109C0C430B900A9A3BE56A490B
:100AF000491C0022614D674B1FF00AFB654B0898AB
:100B00000C9A00280DD00E98406B825D910700680A
:100B10000CD462491FF0D6F95E4B0A9C1440620067
:100B200007E000201882099C0F9E0BE05A49491CDF
:100B30000022099C0F9E198219469E311AF0B6FFB9
:100B4000544B0C9AD0B210280CD32088A1780904F9
:100B500040184B490840110201432180000CA0704D
:100B6000022084E000249C83403649484686287948
:100B7000002804D0300644494140424801603920F1
:100B8000285C002853D01CF06DFA4148808D4849FC
:100B9000AA79002A4FD0803108464FE03920012140
:100BA00029542568002D089B00D1DDE6A87B40195B
:100BB000C17B314007290DD1407C3F280AD8A07B5A
:100BC0002018007C0B30FC21014028461E460AF00C
:100BD000C7FB33460E98406B284A4032083002214A
:100BE00007911E4609F088FD32460746A87B281863
:100BF000079D007C05998871A07B2018007CC87136
:100C00000C9EA5E6089E3920012129542068002861
:100C100000D1A9E60D460E98406B184A40320830C4
:100C20000221334609F068FD07460C9A90E6012040
:100C3000C003401C02E08007800E48401EF024FEE6
:100C40001EF09AFD1748052101600E98406B083090
:100C50001CF034FD002801D1842169710221017248
:100C6000296C884200D12C647F1EEED11020109C8C
:100C700004430E9F7DE60B9A0B90DEE43C6500205A
:100C8000FF00FF0040140840D6BE898E3C2009407A
:100C9000062009408E2009400A80FFFF0A800000DC
:100CA000A011084030100840F467002080FF1F00AA
:100CB00031810000F0B5FFB08EB0069315460646B0
:100CC0008C91046820461EF019FF00218B91221898
:100CD000C8430590929803900492944200D3B5E0E3
:100CE00087A80022027387920598899088920F4600
:100CF0002078002800D1ACE0252806D0641C3460A0
:100D00002946069A90477F1CF2E7601C30608B975B
:100D100087AC2046314600F0A3F88CAA2046314625
:100D200000F0BAF8306801787A290BD068290CD025
:100D30006A2911D06C2912D074291AD04C291FD1DC
:100D4000802118E00121090315E042788799682A7B
:100D50006CD10122520208E00121C9020BE0427865
:100D600087996C2A65D10122120211438791801C58
:100D700005E001214903879A0A438792401C0178C4
:100D800087AA1173441C346073291ED06E2929D19F
:100D9000879832490840202850D0402834D001217B
:100DA0004A03904230D04A0290424BD0CA0290424D
:100DB00005D00A03904227D00902884224D18C989A
:100DC00002C8FA170F604A6021E087A80078400641
:100DD0001FD40698009087A88CAA8BAB294600F0F8
:100DE0001FF91EE007A8029087A98CAA00F06EF9EF
:100DF000024602982946039B9847411C059900D05A
:100E0000C1198B91049A0EE08C9802C80F608C90E7
:100E100007E00698009087A88CAA8BAB294600F0C3
:100E200097F8049A8B99481C12D056E7401C202250
:100E300001E0401C402211438791A0E78C9802C832
:100E40000F80E4E78C9802C80F70E0E70F4600E0DF
:100E5000059F38467FB00EB0F0BDC046603F000031
:100E60000A681378202B09D0232B09D0302B09D006
:100E70002D2B09D02B2B0ED1022306E0042304E0F6
:100E8000082302E0102300E00123521C0A600268DC
:100E90001A430260E4E77047FEB516460D46044665
:100EA000086802782A2A10D13068011D3160006874
:100EB0006060002805D54042606020680121014340
:100EC00021602868471C2F6017E00021303A092A6A
:100ED00008D84218531C2B60435C6F467B545278F1
:100EE000491CF3E76A46002353544718107800283A
:100EF00003D0684618F0A0FC606038782E2826D110
:100F0000781C286079782A2908D13068011D316061
:100F10000068A0602868401C2860FEBD00203039B1
:100F2000092908D839188A1C2A604A786B461A544D
:100F30008978401CF3E76A46002111541078002894
:100F400004D0684618F078FCA060FEBDA160FEBD2C
:100F5000F0B587B01E4613681C1D14601F680C9DF9
:100F6000002F3FD00391069505908468002C04D48F
:100F700038461EF0E1FC844203D338461EF0DCFC08
:100F8000044605984268A242114600DC21463068BA
:100F900001914018029630600494A242154610DD7B
:100FA00005980078C0070CD101980499441A0026CE
:100FB000A64206DA20200399069A90472A46761C14
:100FC000F6E70024039E059804998C420DDA3868F0
:100FD000010A1BD1C0B23146069A90472A46641CCA
:100FE0003F1DF0E70020A84718E0049DAA42069F95
:100FF00014DD0078C00711D00198441B0025A542DC
:101000000CDA20203146B8476D1CF8E70020C043B9
:101010000299086017F04AFF5821016007B0F0BD3F
:10102000F0B585B00C4606461068011D11600068D9
:101030000A9D0490002844D00393B768002F04D47D
:1010400004981EF05BFD874203D304981EF056FD02
:10105000074602967268BA42114600DC3946039B85
:1010600018680091401818600192BA420FDD02988A
:101070000078C0070BD10098C01B0390002603988E
:10108000864204DA20202146A847761CF7E700268E
:10109000BE4205DA0498805D2146A847761CF7E732
:1010A0000198B84210DD02980078C0070CD0009873
:1010B000C61B0027B74207DA20202146A8477F1C1D
:1010C000F8E700202146A84705B0F0BDF0B589B08B
:1010D00002920D4606464868039000270797FF24B2
:1010E0002146FE312022304600921DF001FC04947E
:1010F00020463446FA303618019737717F20800039
:10110000211808910695287B0246613A172A28D8AB
:1011100001239340C34D2B42069D08D007A908AA7E
:101120002846029B00F086F90027059787E0712585
:101130002B4226D1022A14D1029B1868021D1A6084
:1011400000680870069D296802229143296004996D
:10115000FC3161180891C0B241424141059100271C
:101160006DE00146453903290BD3252800D1E3E082
:10117000412806D0582801990F460591069DCDD0EB
:101180005EE0029A1068C11D0720814308460830BE
:10119000106003C9CA435200550D069A137B1A46C4
:1011A0007B3A002D09D1A04D0D40054305D01920F3
:1011B000C043824211D3612110E002960125EE075F
:1011C0000F46B743994D6F4007430DD11923DB43B9
:1011D0009A4200D2B6E06E25B5E04121069DB1707D
:1011E000824225D36E2024E000290A4601DA4E40CF
:1011F0003246CF0F19464139002505950629029E32
:1012000000D8A6E0613B062B069D18D8990001A3E3
:1012100059588F46791300003F1200003F1200001A
:101220003F120000DB130000E7130000F31300007F
:101230004E20F07070700896002005900227287BE1
:1012400001466F39092949D801228A4078490A4262
:1012500044D03346039A2846A5180078C00708985A
:10126000264608D1191D091A069A52689142264647
:1012700001DC691A4E1C411C0498430000273046CB
:101280003A461CF04DFB08900599002902D00770E2
:10129000401C0890A84206D8291A491C401E20224A
:1012A0001DF026FB2F70069D2878C00605D4311B43
:1012B000202220461DF01CFB37E0A64235D0311B12
:1012C000302720463A461DF013FB07980199084342
:1012D00013D12878400710D4204613E05828B8D0FE
:1012E000002F6BD03346012F039AB4D10120079011
:1012F000286802210140019169E030782070377040
:10130000761C601C297B41290CD0582905D0612905
:1013100008D0782901D0702907D12A78120701D482
:10132000612902D171784170777020461EF0E6FB8A
:101330000599401809B0F0BD00206070252020708C
:101340000120F7E74E25029EB5709A421AD3662512
:1013500019E0890001A35958069D8F4679130000B2
:101360003F1200003F1200003F120000DB1300009C
:10137000E7130000F313000008AB11462A4604F0FF
:101380006FFB5CE74625F5709A4201D3692200E0C5
:101390004922069D72703F22D200A21808920022B4
:1013A0000592134614F03AFE002803D02D20307029
:1013B000042744E72B203070032740E728680221E8
:1013C0000140079A002A1AD033460191039A0898DF
:1013D0002D210170401E08903DE708AB11462A46BA
:1013E00009F002FD2BE708AB11462A4615F0C8FDAF
:1013F00025E708AB11462A4605F0CEF81FE700297D
:10140000039A334605D1400700D424E70898009991
:10141000DFE708982B210170401E08900120019001
:1014200019E7C04608C19000FFFF0F000000F07FE1
:1014300043020000F8B514460F46054680680028B0
:1014400004D4286810218843286001E00120A860A6
:10145000287B1026582808D0782806D0702804D079
:101460006F2801D1082600E00A262846194600F018
:1014700055F8AA68002A09D102460A4306D12878FD
:10148000000749D52B7B0020024612E02B7B642B02
:1014900003D1642300290BD504E0692B08D100296E
:1014A00006D5692301223A60002240428A4100E0C9
:1014B0000A4600941146324600F0B0F8A968884206
:1014C00006DA21684A1E226030220A70401CF5E7C5
:1014D000287B582803D0782801D070280FD129788C
:1014E00009070CD521684A1E2260702800D1782097
:1014F00008702068411E216030210170287B6F2810
:101500000AD12878000707D520684178302903D010
:10151000411E216030210170F8BDC04610B5037B2B
:10152000702B05D10868021D0A60006800226FE078
:101530000068384A024001204403A24222D0402AD7
:1015400020D00402A2422FD04402A2424CD0C402B6
:10155000A24229D00403A24214D01C46643C202A93
:1015600012D10022142C06D8A0402B4C204204D1CA
:101570002124204212D1582B49D10868031D0B6049
:10158000008845E01C46643C0022142C25D8A0406D
:10159000214C204223D1212420421ED00868021D64
:1015A0000A600068C21733E01A46643A142A06D863
:1015B0009040194A104206D12122104203D1002046
:1015C000582B024624D10868C21D072082431046CA
:1015D00008300860106852681AE0582B17D1086864
:1015E000031D0B60006813E01C46643C0022142CB1
:1015F00006D8A040084C204204D121242042CDD15D
:10160000582B04D10868031D0B60007800E01046D9
:10161000114610BD603F000000081200F0B585B013
:1016200002920746582B01D0194800E01748019054
:10163000384608430A98039005D1039B1868421E58
:101640001A6030220270029D3846084316D0384690
:101650002A4600F01FF8049707460E4603990C68C7
:10166000601E0860384631462A461CF031FA314681
:10167000049A101A019A105C2070E5E7039800683C
:101680001EF03CFA401E05B0F0BDC046A935020070
:101690009835020080B5102A06D0082A09D1C00862
:1016A0004A078018C90880BD00090A07801809097F
:1016B00080BD002904D1114618F024FE002180BD10
:1016C00000231DF011FF80BDF0B591B00127384611
:1016D0001AF0D0F8012800D093E22E4E30781EF098
:1016E0007EFB002800D18CE2054600200E90287277
:1016F000281D0EF09BFC02F0FBFF002853D004468F
:10170000284668300C90FF200690E23020180B909D
:101710005520800020180D90A7204000394627183A
:1017200020462E301090099161710720079014F027
:101730009CFC19494878401C4870A079A872307800
:101740001649087040200CF05FFA2060686DA96DA2
:101750004978C9060F952AD46521890061180A9134
:101760004C3000210FF04EFE06466A6D116B20686A
:10177000C160EF239B00D35A03221A40920001A3B9
:101780009A589746A1170000C9170000D517000006
:10179000DB170000AF6C0020806B0020AE6C0020D7
:1017A0000B22D20112E081201EF00EFD29E24C3006
:1017B00000210FF027FE0646686D006B0B21C90162
:1017C00040182168C86011E02D2212018918C160FB
:1017D000954806E0B522920100E0944A8918C1605C
:1017E000934800880D9908870A990880B0794006C7
:1017F000C10F29200A90C0002018397031460831E5
:101800008C4D06220492A8470C9800780B9908701A
:1018100020462430314614310422A847204628307F
:101820003146183103220592A847F07E10990870BE
:101830002046303031461C31374602263246F44BC2
:1018400098472046323039461E313246F04DA8477F
:1018500020463430394620313246A847A08E608475
:10186000204636300897223739460B963246A8472D
:101870001099087840000870208E40002086608E05
:1018800040006086E18E0901E18689B2628C521CBB
:1018900083B253435A00914200D8A9E1000400D119
:1018A000A6E16F20DB21039180000C9026462C36A8
:1018B000204610991CF0E5FC05200290A0812046EE
:1018C0001CF06DF927466237089D294624313846B9
:1018D000029A1DF0D5FA0A98285C400930701BF076
:1018E000E9FF60820F9E718D401A0D99C8800A9899
:1018F000285C1F210140109881732046394616F05C
:10190000F1FDB06D4078C00603D5C24800681EF0F6
:1019100033FC039840000A900C9820180290BE48AF
:101920000168A27938200C9042438818BB4B8B5039
:10193000BB490E9F476081600C302C2103911CF045
:10194000DFFFB8480068A1791C26714345181221B1
:1019500028461CF0D5FF0B20019068826F61AF61B3
:10196000AD4BB0480068A17937464E4380191A68DC
:101970000C9D69435218106318684018AA494163C6
:101980000F98806D4078C00603D4AA490298016080
:101990000EE0029AA5488078400601D4116807E05D
:1019A00008988079800601D5A24900E0A04911601D
:1019B0000A98251820468847014697480268A0796A
:1019C0000C9B4343D218039BD154109A1173917A04
:1019D000D1720F9EB16D4978C9060CD4726D2D215C
:1019E000505CEF218900565AB107CA173106890E9B
:1019F00022D0099921E029362978002904D1002034
:101A00001CF096FEA07929782A7916F0D3FC20469E
:101A10001EF0F8FC80480068A1790C9A51434018E8
:101A200031782D22815424E0C66B0020B80F0000CD
:101A3000BE6B002081EE010002210A402A7105469A
:101A40001EF06DFA002800D1D2E00598064020462D
:101A5000314617F04BFB002800D1C9E06E48006802
:101A6000A1790C9A51434018734909782A461CF011
:101A7000A5FE6C4E3168A0793A4642438918099A0E
:101A80000A74626A4A61A26A8A6113F0B5F9306821
:101A9000A1794F43C019694A136814254D43585121
:101AA00010684019A0663068C019083020675E4D84
:101AB000E81C15211CF024FF0E9828807F20A870B8
:101AC0005F480078042631460DF0CEF90F99886DF5
:101AD0004078C0060B9A07D4486DEF218900405A20
:101AE000800700D5049E3246208E1618A661608AB3
:101AF00070431921090118F005FC411C616121683E
:101B0000CA68504D6E43B2184F4BD218101A424F4C
:101B10003A68A3790C9E7343D218D061886090888C
:101B2000099B1843FE21884390803868A17971434E
:101B30004718FB71F86926683061606940001099A8
:101B40000978694340180199C90140182321090106
:101B50004018F88580B20D990860618E3B48027C80
:101B6000437C1B029A18837CC07C0002C0180004CE
:101B7000801800684843642118F0C4FB6843324968
:101B800040189130B86277601EF0ACFB002809D095
:101B90000698023020180078000703D50E21204651
:101BA00014F006F92A4807990170A079174988703E
:101BB0000F9D284616F008FDA2790021284614F052
:101BC00029F9206823494161134B1868A1790C9DBC
:101BD00069434018204A826118684018212109028F
:101BE00001611868A179694340181621416108E034
:101BF0001348007880210DF037F93B2120461BF077
:101C0000BDFF01F02DFB11B0F0BDC046806B002080
:101C100081EE0100F87400204C6C002004100000DC
:101C200021260000546C002098690020406A0020A2
:101C300031780100BD880100B36C0020986C002051
:101C4000A96C0020C4090000BFFAFFFFFC350200A8
:101C5000C96C002085780100ED610100F0B5A5B0E8
:101C60000446FA484068002802D08047002842D045
:101C7000F7480078411E1294002C0F9100D00121EA
:101C8000F44AD1731746183793785178109103218D
:101C900009041691002415941393C0B2844221D2F2
:101CA000A3421AD0E5B2002117AA042628463346DB
:101CB0001DF034FB17981699084202D01599491C5B
:101CC00015913043C0B27C2806D10621F82628465B
:101CD00032461CF0F1FF3E70139B0C37DC48007855
:101CE000641CDAE71599C9B2401E8842D94804D16C
:101CF0004079002801D100201BE2129C002C01D069
:101D00000B9401E010200B9001200790C00211906D
:101D100000200A900690109D0F990A9B080400D19C
:101D2000D6E114931591CB48C07B002802D1012045
:101D3000C849C873EEB2002717AA042330463946B3
:101D40001DF0ECFA1798002C15D01699084214D003
:101D5000FB4F11983882F87B401EF873F7480178E2
:101D6000701C18F0CFFA0D467973129C149B5B1C03
:101D70001599491ED2E70E9704E0109515990F9119
:101D800014990E91EE4C139DC0B2702804D0109897
:101D9000C0B2702119F01CFCEFB21395002517AEEC
:101DA00004233846294632461DF0B8FA3078FE281A
:101DB00003D0FE21384619F00BFC0621FE263846DA
:101DC00032461CF079FF1198208213982073109AE4
:101DD0006273A582FF20A0730C23184614977843E2
:101DE000214616310F18BE70D4B2159318466043C1
:101DF0000818C188D2480D9141827D208100D248C7
:101E000005911CF07DFDCC480570B81D0890B81CEC
:101E10000990CC482018CA49C97B401800B2C7496C
:101E20000C78214615F062FA1391F8880C90C44F93
:101E30002B46E6B210990D9A1091CCB214988442B8
:101E400000D1BBE0E80700D0CBE097B2162F15D841
:101E5000002BBB4F03D0159860433818828313982A
:101E6000C0B2844200D1C4E0601C1EF087FA15980D
:101E700048433818828B00252B46DDE7AE480078B2
:101E8000002800D037E704930D92D61FB1B218ADE9
:101E900020462A4612F03CF9E98908461030B8423B
:101EA0000CD8A87A962809D1751A18A8427AA8B22F
:101EB0000E46234614F051FE00282BD00D9A521ED8
:101EC00015469F4F0E9B0D92A8B2162800D8FDE034
:101ED000362802D82E46163E00E02026B3B2AD1BAF
:101EE000A9B21DAA20461DF019FA0D9A049B3004D0
:101EF00008D0B0B21DA94018401E0078962803D023
:101F0000761EF4E70E9BDFE770190D9000258B48D5
:101F100004788EE7029518A8C07A0025C10706D17B
:101F20008007874F049B07D402980D90EFE7029833
:101F30000D90834F049BEAE7F21D0C9880B291B29A
:101F4000091811980191814201D9079DDFE77A486C
:101F5000007802990D91110420D000281ED103921F
:101F600096B20598864200D3059E0D9881B2204610
:101F7000754A33461DF0D2F90C9FB9B21498724AD3
:101F8000334619F025F86C490870039A921B0D9995
:101F900089190D91BF190C97049BDCE75B1C019A12
:101FA00090B21199884204D102980D900C92079D2D
:101FB00002E002980D900C92614FA8E75E4800780D
:101FC000002800D097E65F483018001900B231466B
:101FD00015F08CF9C8B2159A50433818828B0E9BB5
:101FE0000EE0002B03D015984443381982831099D2
:101FF00000E013990E9B50480078002800D07AE644
:102000000E93BA820C9A3A82B97308980280122011
:102010003A5E797B0123149C20461AF01FFF14209E
:102020003A5EB97B022320461AF018FF388A1199CC
:10203000081A1299002904D00B99884201DB0799EC
:1020400006910B99884207DB7C2106E0B4710020E1
:10205000AA6C0020E06300207821149E304619F01D
:10206000B7FA0AF091FE0546F87B401BF87306218B
:10207000FC24304622461CF01FFE099804700E987E
:1020800080B22818B97840182C490E781EF076F9DD
:10209000B9701391481CC0B21EF070F97970B97B09
:1020A000159848433818808B102802D1481C1EF020
:1020B00065F9129C1091002C079801D00698C04336
:1020C0000F99491B0F91C00702D024E6109992E79F
:1020D0007C2019F02DFF0446FF28194D19D17E20D0
:1020E00019F026FF0446FF2813D16C780C206043BA
:1020F0002818807DFF2808D010480178A87840185B
:10210000401E15F0F3F80C4603E07E21204619F03E
:102110005FFAEC70E0B20C2141436818808BE880D4
:10212000A878FE2119F054FA00206871288A1199C4
:10213000081A00B225B0F0BDB4710020AA6C0020CE
:10214000E0630020FFFF000054550020F0B59DB073
:102150000446FB4E3078FB4D2870032800D024E164
:1021600000203070287011A81DF0F0FD002800D06C
:1021700019E101200E9011902846243011A917F082
:10218000AFFC002800D00EE1F44F5E2138461CF071
:10219000B7FB0C370A21FF2238460D921CF0A8FB32
:1021A0001AF06AFA00201090214616F083FDA8600C
:1021B00029460C311DF01DFE2C696D69204629460B
:1021C00018F0A0F8C2B2062A00D30622E348027033
:1021D000E34F3A700E98C1028D4200D0E3E0D00286
:1021E000844200D2DFE0DC488068002800D1DAE0D9
:1021F0000491DA490D9BCB70109E4E710E98C0026F
:10220000C88007960A9608960696059609960B9634
:10221000019303930293D1B28E4200D3C7E0F4B28C
:1022200000251CAA0423204629461DF077F81BAA86
:1022300020460F952946F54DA84701271AAA2046A2
:102240003946A847022119AA2046A8471C99C8B2B6
:102250000246703A0E2A04D83B469340EC4A134299
:1022600003D10246FE3A022A03D28A0CE94B9A4273
:102270001FD020460DF0E0F8E0490870002800D09B
:10228000CCE0354600261CAA0423204631461DF02A
:1022900045F81BAA204631462E46DC4DA8470121B1
:1022A0001AAA2046A847022119AA2046A8471C9925
:1022B000C8B20C2210967243D14B9E183346163387
:1022C00018708A03920F7276090AF1751BA9897832
:1022D0003176FD2801D9102127E01BA90988CE4AB3
:1022E000914222D10C930F981490049DA8B2051F1F
:1022F000A9B214AA042320461DF010F81498411C1A
:1023000003D12946C54A1140F0D139460C9BFAB297
:10231000042A06D8C2B2FF2A00D039467F1C000A20
:10232000F5E7C8B2281881B21878B1831AA989785C
:10233000B1761A99F18319A98978F17619993184BE
:10234000702810D07828AF4F109E12D07C2814D05F
:102350007E2817D0FE281BD0FF281ED10798401CCE
:10236000079002961CE00998401C0990A54F109E0A
:1023700016E00598401C059012E00698401C069057
:1023800003960DE00898401C0890B0B2019007E059
:102390000A98401C0A900D9602E00B98401C0B9086
:1023A0003A78761C37E7012030701DB0F0BD0B98ED
:1023B00000060BD10A98C0B2012807D80998C0B20C
:1023C000012803D80898C0B2012810D98E480421EA
:1023D00001700024D1B2E0B2884210D20DF02CF886
:1023E000864A117801431170641C3A78F2E7D4B23E
:1023F0000798C0B2A04214D1834800210170002088
:102400007F4CE0706070511EA170A18BE1807E2135
:1024100019F0DEF8A078FE2119F0DAF87748007894
:10242000C3E70998000622D00A98000604D107984D
:10243000000602980D9073D0714E0D9CB4707248D6
:1024400002220270A0B2401C17F05CFF7170E4B26F
:1024500020460CF0F1FF69490870FE21204619F072
:10246000B7F80E9870710020FFF7F8FBD6E70A98CE
:10247000000619D0624C0D9BA37063480E9A02703F
:1024800098B2401C17F03EFF6170039880B2FF289D
:1024900019D10198FF2849D1594AD1700C204843DD
:1024A0001018808BD080B9E706980599084300067C
:1024B000544F8BD01AF0BEFCA04200D38DE052489E
:1024C000032101704EE04E4A0399D1700C21414323
:1024D0005018818BD1801829A0D30398C0B2C91F8E
:1024E00089B214AC224611F013FEE07A4007BAD547
:1024F000434AD07814ACE189D28800230093511A62
:10250000C91F89B20323224605F0E8FF002885D1C0
:10251000A189002982D014A8007C17F033FD7DE743
:102520001AF088FCA0420FD306200EE03449019A2D
:10253000CA700C2050430818808BC8806EE7C046D4
:1025400071740020B471002003202F490870032803
:1025500008D0062851D061E7B4710020E063002064
:10256000AA6C00201AF066FC0446254E30730C2538
:10257000284660433018817E7173C07EB0730AF0C4
:1025800003FC00191F490C78214617F0BBFEB170FF
:10259000481CC0B2214617F0B5FE71707C2019F0BE
:1025A000C7FCFF2810D17E2019F0C2FCFF280BD1F8
:1025B000FF2019F0BDFCFF2806D1782019F0B8FCE7
:1025C000FF2801D10E4840780D49C870C0B245437C
:1025D0004819808BC88088781DE70798000609D0C5
:1025E00007488078FE2118F0F3FF0648017802982A
:1025F0000D903FE7044806210170FEE7B47100200A
:10260000E0630020AA6C0020B86C002099F701005C
:102610000151000083250000FFFF0000FCFF0000C7
:10262000F0B589B0164605469548012202702C1D6A
:1026300070040795049442D40391C805C00E00D1DC
:1026400088E001200290000431468143059100207A
:1026500008908C4C8C480068042800D292E00696C2
:10266000002019F04DFC80B2451D2F4687480740D9
:102670006069394617F036F806466069864204D02C
:1026800066610820089901430891002E73D0A908BB
:10269000F08935461035281814F07AFFF08929188A
:1026A000E279CA70C019F081079D286B08301BF0D1
:1026B0003BF80420089901430891059ECAE7089257
:1026C00006962C462C341AF0B1FF02902F6B7969D4
:1026D000F44801910160B8690002F3490860F34EC3
:1026E000B08DF349C8811AF0FAFDB086F148002692
:1026F00006820397788AEC4988801020EC4948715B
:1027000068881AF0D3FB0590207811F0A9FD2946BE
:102710008227002821D0054608462D30007818F081
:102720003BFC002814D1059F032F11D10398007C96
:1027300041424141284601F08BFE19F099FBDD48EA
:10274000C685A057C1B2402900D2D4E03146D4E0BA
:10275000079D03E0002008901DE00D46069E049CA6
:102760002078390240182080F8B20F28089800D845
:10277000002047009CE0D2480299016085206071EA
:10278000079D069EA079002804D0CB48C168686BDD
:1027900013F046FA049C039880043CD50696C94879
:1027A00040684221C24E775A7189081A0590B84292
:1027B00025D24420345A286B1AF080FF002810D00C
:1027C000022101728189491DBF4A11407F1AB16BF4
:1027D000884202D10020B063F063641E0598B842BD
:1027E000E9D3059887420CD1002C0AD43836B4813D
:1027F00005987081102008990143089106E0069E13
:1028000009E0AF480121016084207071049CAE484A
:10281000001D069E06430120C5037006C70F0898D9
:102820000743681C039901423AD0032000BF00BF50
:102830009D4880880799096B488202249C4840790A
:10284000102827D1039828409848008820D1411E9D
:10285000062900D994E01320890001A251588F461F
:10286000952800007D2800007D29000081290000B6
:10287000812900008529000089290000142009E031
:10288000307500203C650020CC110840FCFF0100A1
:1028900016F0A0FA27430002049C21780818208033
:1028A000B807079D04D58448C168686B13F0B8F970
:1028B0000320000261780902814213D1F00306D59A
:1028C000286B08301AF030FF0120000486437E4850
:1028D000001D064206D0286B0023D943744A3832C3
:1028E00007F00AFFB80703D519F084FE1CF002FDBB
:1028F000384609B0F0BD402211436D4A7F240028BC
:10290000079D069E01D4084600E02040674948869E
:102910001179002904D000060199484061490860F6
:10292000FF20614988822846029914F0AFFE0746CD
:102930000F2800D913E7686B002500282946039F5C
:102940005C4B44D05C49C968996184700021417036
:102950000278D2071CD1544AD185118651869186BE
:10296000D186118751879187D187198059809980A5
:10297000D98001758160C160016124E0152089E77B
:10298000102087E7412085E7022010F0C1FE81E793
:10299000017A454AD185417A1186817A5186C17A78
:1029A0009186017BD186417B1187817B5187C17BD9
:1029B0009187017CD187417C1980817C5980C17CC1
:1029C0009980017DD9800078022101404908384E64
:1029D000B171049800780128284604D13648C068AF
:1029E0000799C969081A02901AF03CFB19F018FE01
:1029F000756130810798006B08301AF095FE1BF066
:102A000045FA7081387C00282B4604D0788A18213A
:102A100001404B424B4108980404B563F5633246CC
:102A2000383295815581157202213846059207F09A
:102A300063FE1E48808D2149B279002A02D0803180
:102A4000084602E04007400E4840079D069EA64308
:102A50001CF01AFF387C002806D0E98D0298401837
:102A6000012803DB032702E004240CE01327114AAA
:102A7000002902D0012800DA71E6002900D10846B9
:102A800050810324039F1CF077FE022000BF00BF8B
:102A90000B4804600023D9433846059A07F02CFE02
:102AA00003275CE6401408403C200940062009400A
:102AB0003C6500207C200940F467002071A10000E3
:102AC00030100840CC110840FCFF0100F0B591B077
:102AD000002610960F961E24002800D1AAE1054674
:102AE000476D0FA910AA09F065F8072801D107243E
:102AF000A0E1284629300D90A86DC07C7F2804D124
:102B0000E84800780D9908700BE040B200211BF0F6
:102B100083FD0D990870C0B21DF001FA002800D1A4
:102B200032E10194284651300990384661300C90CA
:102B30003C462C34391DDC4838600E918E700E8076
:102B4000FE71DA48B86038460C30202102911BF043
:102B5000D7FE07202070601C0F211BF0D1FE0D98BE
:102B600000781DF09CF96070A86D407A20700E9B73
:102B7000188801221043FE2105918843188007928E
:102B8000FA711DF01DFB7D21490140180490F86188
:102B90000B960894A670A87B012802D10798089983
:102BA000C8703846B8300690384680300A903846AB
:102BB0003C30394664317863B9632A2100901BF0B8
:102BC0009FFE7F200C9948710B98B866F8660E97A7
:102BD000386704982861B648007809990870B548A4
:102BE000007800280D9E12D0707E059908400228BA
:102BF0000DD1B14C20680D301CF013FA002806D11D
:102C0000284630302168C91D06221CF039F9707E33
:102C1000411E8841089B194634310391099534249B
:102C20000494195DFD220A404000101818550E98B2
:102C30005430099C3034A14B062621463246984731
:102C40000C980B99C1769E480A9D6880079FAF80BB
:102C50000E98883021463246984B9847EE71069D73
:102C60000B9828709648E8802F8108980499405C5A
:102C7000099F4001402208921040001DA8720E9842
:102C8000C430214632468D4B98470496EE723D463D
:102C9000B87B012801D0042878D1039E3078400108
:102CA000089908400D9FB97EC9014018401C0A9937
:102CB00088710C20C8710E988E302C463C34062545
:102CC00021462A461CF0DCF8B87E3178079A10407D
:102CD000059A1140081830700E985A3021462A463D
:102CE0001CF0CEF80A9B069D0E9C21467431B03430
:102CF000D879801D1880E87A801DA8807348807874
:102D0000400606D59879029A10439871A87A104324
:102D1000A8720E9E3546443528461CF021F82846F8
:102D200021461CF01DF834464C341AF0D5FD0146FE
:102D300020461BF0E5FF0998406EC178007900023B
:102D4000411802D06248484300E062480E9A9062FF
:102D50006148002402211461516190615548007856
:102D6000002804D00C9A10781C21014307E0564833
:102D7000006814F0B9FB0C9A1078E321014011703F
:102D80000F985649818055E0122453E0E86D0028E1
:102D900010D0C11C0A78497809028A180AD0411D4E
:102DA0000E988E301CF053F9E86DC0780A9AD179EC
:102DB0000818D071286E0028049E10D0C11C0A7813
:102DC000497809028A180AD0411D0E98CA301CF0B1
:102DD0003EF9286EC078069AD17A0818D072A87B7E
:102DE000022800D00B9E032800D102260398007809
:102DF00040010899084080190A998871A86D807C63
:102E00000C9B197803220240FC200840801818709F
:102E10002C483821405C01280FD11DF00DF90446E3
:102E20001DF00EF90146204616F038FA0028019CE4
:102E3000069D2ED0204611B0F0BDA86D807C05996E
:102E4000014002290ED1204909680A794B791B02F9
:102E50009A188B79C9790902C91809048918091FB8
:102E6000009A1160022108430328069D0A9B00D0A6
:102E70003AE71548006801794279120251188279BF
:102E8000C0790002801800044018001F0E990864E1
:102E90002AE71DF0D1F81CF0D3FB009908600A9BCB
:102EA00022E7C046B36C0020011000009100000032
:102EB00043750020A86B00207C6C002081EE01008F
:102EC0000302000004720020146C0020406A0020FD
:102ED000409C000000204E00258C0100AC0D00003D
:102EE000F0B589B00446016CC26A17F0ADFFE16F1E
:102EF0004A1C904201D935269BE1002813D0206C52
:102F00008A0087180837891C38461CF0C6FDA1685E
:102F100038461CF070F8002807D0E56F691C88421D
:102F200005D9C62685E1532683E16C2681E1237805
:102F30006626022B00D27CE1052B00D979E1216CB9
:102F40000A6801263240032B334600D300235A403F
:102F500080230893E2500790E06720463A460B46EC
:102F60000EF004FF20784000001F31468140089891
:102F70002150216C20460A4618F022FAE567E16CE0
:102F8000204632461CF06EF8626EA06EE16CA36FB4
:102F9000E56F0095A84DA847A26EE06E1CF054FFA7
:102FA000A06EE26E1CF050FF216F226B204617F0DE
:102FB0004BFFE56FA84201D93C263AE100280ED02C
:102FC000606CE26E216F1DF03FF9216F626B20464D
:102FD00017F03AFFE56FA84203D9652629E1C32619
:102FE00027E1064600280ED0A06C216FA26E1DF0CE
:102FF0002BF9E16EE268204617F026FFE56FAE423E
:1030000003D95C2615E1562613E126468036A26ECA
:10301000E16E206F1DF018F9E26C206D216FA36F37
:10302000E56F009500F05EFCE06F421C0696326092
:10303000666D00252778B81E0123194681408D4210
:1030400009DA616C30461CF0B8FC06980268900002
:1030500036186D1CEEE70893A06D0025069EBB1E7A
:10306000089999408D4206DAA16C07461CF0A5FC30
:103070001CF0DBFCF3E7E06D0025BB1E08999940CE
:103080008D4206DAE16C07461CF097FC1CF0CDFC83
:10309000F3E7216C08788007C30F07984001401CB4
:1030A0000026049607960396089A019090426BD9E1
:1030B0000593801AB842069B00D338461860204614
:1030C000089217F0B9F907994118C8B27A1E01257C
:1030D0002B4693409842029500DA00252A46BA40D2
:1030E000984200DB4842059B0799C9B20791101826
:1030F000DBB205935349C95C049AD7B29E00524A89
:1031000092197B00D218525D920051180006800D72
:10311000001F04229043081806990860204600F01A
:1031200049FA6800494989190918079A895C079181
:10313000474989190818C05D04902778B91E454889
:103140008019405C089A12181420059B5843424B82
:103150001B18052041435918039E8E5D216C5309AD
:103160009B00CD581F231340DD40029B1D40079B51
:103170005D4045430A20059B5843384B18184019B9
:103180000396835D019891E70798C0B2012811D199
:103190000498C0B28000C01C069E3060274D2046B7
:1031A000A847012030602046A84702203060204612
:1031B000A84727789926032F3BD30020C0430790C8
:1031C000B91E012008908840FE30069DC7B20898BD
:1031D0002860002F11D07A1C2046394604F0CEF822
:1031E000089828602078801E07998140C9432046AE
:1031F0003A4604F0C3F8781EE8E72078801E079F5F
:1032000039468140CA430021059120460C4B98471E
:10321000089828602078801E8740FA432046059F42
:103220003946074B9847089A2A6020463946044B8E
:103230009847304609B0F0BDE5380000B5350000CC
:103240007D7300007A3A0200303702000037020036
:1032500048370200183702000D2E02009C31020090
:10326000FEB5D04E7468002C27D02578681E1F2824
:1032700026D801218140CC48014221D03078002855
:1032800000D15BE10127384617F098FA002805D0F5
:10329000012017F0B1FA19F039FB2578284606F01D
:1032A000C5F90646002854D03078102879D88740D0
:1032B000BF48074275D0756877E016F023FBFEBD66
:1032C000402D03D0802D01D0FF2D37E1B74D687818
:1032D000002845D01DF02EF81DF024F807460068A0
:1032E000029040680190B879E870002102253846C4
:1032F00000912A461DF020F8032800D137E12078FC
:10330000402805D1B8791DF007F8012800D12EE139
:103310007078C00600D134E10124204617F04EFA3F
:10332000002804D0012017F067FA19F0EFFAB078FE
:1033300006F07CF90646002800D1E6E03078102837
:1033400000D9D6E084409A48044200D1D1E07468A4
:10335000D3E096484078002800D1EFE0002528E02F
:103360007078C00600D102E10125284617F026FA40
:10337000002804D0012017F03FFA19F0C7FAB078FE
:1033800006F054F9002800D1F1E004460078102836
:1033900000D98EE0854086490D4200D189E06268FF
:1033A0008CE0304619F0B2FA054680484078002893
:1033B00013D01CF0BFFF1CF0B5FF04460768786807
:1033C0000290A0797949C8700195002D1ED0304631
:1033D000394604F07BFD054619E000200122314604
:1033E0001CF0AAFF032800D1C1E0B4423BD03078E2
:1033F000042876D002282A4677D0012800D09DE004
:10340000002A00D1B3E0FF20294694E0022520469F
:1034100031462A461CF090FFA84203D003280546F7
:1034200000D1A4E0022D07D13978A07980290FD1ED
:10343000029917F080FB14E0002E7FD0307804282A
:103440002DD0022830D0012878D12846019972E089
:103450001CF062FF012800D189E0A079029919F0DF
:103460006CFB38469AE02078411E07296AD888000C
:1034700001A108588746C046993400005135000024
:10348000493500005B350000493500004935000032
:103490004935000099340000002D7ED167E02846B0
:1034A0003146019A029B60E028463146019A029B10
:1034B00061E0204619F02AFA02462078042808D054
:1034C00002280AD0012852D1002A50D0FF201146EC
:1034D00031E0FF200023214647E0FF200023214662
:1034E00049E0FF20002331463AE0FF200023314627
:1034F00041E0304619F00AFA0446002C05D0304667
:10350000029904F0E3FC05460094002102223846AB
:103510001CF012FF03282AD0022802D1022D2846CF
:103520002FD0002E0AD0317804291BD002291FD0B9
:10353000012923D100991CF0AFFDFEBD00201BF036
:10354000F7F8FEBD102828D000201BF0F1F824E089
:10355000FF20002321462A460DE0FF2000232146BC
:103560002A4602E03146009A019B17F060FFFEBD3B
:103570003146009A019B19F04AFFFEBD00201BF066
:10358000D7F8029C2178B879802903D1019917F0E6
:10359000D2FA02E0019919F0D0FA20460DF0C2FFEC
:1035A000FEBDC046206B00208B800080806B002019
:1035B00002010100F0B589B0044680202158C808F6
:1035C0000D460391E26F511C4143E06DC9B28F007B
:1035D000C019616F636C06AE0BC6A807060F05A87D
:1035E0008159206EA36F0092BB4D0A46A847606EBA
:1035F0001CF063FC05A88059A16CA36FE26F0092D8
:10360000B64D0A46A847E06E216FA26C636E069223
:103610000791089305A98959E26DD2190497236E81
:10362000E56C06920793089505AA1CF05FFCAA4D6D
:10363000A847606EE16EE26C06AB07C305A880592F
:10364000E26F521C1CF0B9F9E06E216F06900791F1
:10365000089005A88059216E1CF0FBFB9F4DA847E0
:10366000206FA16E06900790089105A88059A16D62
:10367000C919226E636E06AD0EC505A98959A26CE3
:10368000E36C656F06930795089205AA1CF02EFC63
:10369000914DA847606F216E06900791089005A88C
:1036A0008059A16E1CF0D5FB8C4DA8472346603392
:1036B0000ECB06930791089205A88759E56C606FB9
:1036C00006910795089005A98959069207900893D5
:1036D00005A88259A36FE06F009038467E4DA84739
:1036E000226E606E616F06AB07C305A88559E16E57
:1036F000A36FE06F00902846784FB847216E226D87
:10370000A36FE06F00902846B847E06C616E226EB0
:1037100006AB07C305A88159E06E626FA36E06ADC4
:103720000DC505A880591CF094FB6B4DA847616E30
:10373000A06D049FC219E56E06A826C005A9885988
:103740000290216F226E636F06910792089305A97C
:103750008959E26DD219636C06950792089305AA00
:103760001CF0C4FB5C4DA847606EE16DC919E26EA8
:1037700006AB07C305A88059E16F4A1C02991CF0EB
:103780001CF9206D1CF099FB05A88159206F226E51
:1037900006900792089005A880591CF05AFB4F4DDF
:1037A000A847606E616FA26E06AB07C305A880597B
:1037B000216EE36E06920791089305A98A59A36FBB
:1037C000E16F0091464D0146A847226F216E206DA2
:1037D00006920791089005A88059636E06AD0EC544
:1037E00005A98959636CA76E06930797089205AAE5
:1037F0001CF034FB384DA847616F606D049D401983
:10380000626C06910790089205A88059A26E0692F4
:103810000791089205A98959E26E236F06920793D2
:10382000089205AA1CF01AFB2D4FB847606F1CF0D8
:1038300044FB05A88059626C636D5B19069207937F
:10384000089205AA1CF00AFB254FB847616FA06ECD
:10385000E26E06910790089205A88059636D5B1986
:1038600006930792089105A98959636E276E0692FF
:103870000793089705AA1CF0F1FA174FB847616F34
:10388000A06D4019A26C06910790089205A8805976
:103890000490A26E042303980340E76E606E0697BF
:1038A00007901B1D05ADED5806910792089505A9D7
:1038B0008959226F256E0690079705A8C058069271
:1038C0000795089005A88259A36FE06F00900498AF
:1038D000034CA04709B0F0BDE5380000893A00006C
:1038E000113B0000F8B444464D4656465F46F0B4DE
:1038F00000B501B40B9B5B005B1C6C469B00E31A9C
:103900009D4610B46C46241D00266D46009CE36A5B
:103910002D1D9B00EE505B00EE50E36A013B9B00C7
:1039200098465B009946002300240025002702E00A
:10393000370040463F1A9A46A346AC46B646F01BAF
:103940001458C859030C80B2250CA4B21E006E4353
:103950006343454360431C041B0C00195E412C0467
:103960002D0C00196E4153465C4665461B18744188
:103970000020454176460437474501DCB742DADD91
:103980006846001D835123462C46002504364645D3
:10399000CCDD4E45CCDD8351009B99690831024650
:1039A0004E4604361068009B9C6924684443A14637
:1039B00000270023002400259A46A346AC46B646BD
:1039C0004C46C859030C80B2250CA4B21E006E43AD
:1039D0006343454360431C041B0C00195E412C04E7
:1039E0002D0C00196E4153465C4665461B18744108
:1039F00000204541D0591B18002044414541002F6B
:103A000002D0043FD35104370437764623462C4670
:103A100000254745D0DD301D8742EBDD043FD35103
:103A2000043E464500DDBDE710BC2068E36A9B46C6
:103A3000024691466846012720C840C97F08B54123
:103A40007F4120C2013BF7D105682F430126F74192
:103A5000FF17FE436846384049463140084349460F
:103A600039406D46354029435B4604C904C0013BDB
:103A7000FBD1A54603BC8E46F0BCA046A946B24683
:103A8000BB46F8BC7047C046F0B444464D46564667
:103A900070B48146079CA246002720C940CA7F080F
:103AA00075417F4120C0013CF7D1B84648460833F4
:103AB00054466A46A400141BA54604B46A46121D67
:103AC0005446012720C840CB7F08B5417F4120C222
:103AD000013CF7D1424617430126F741FF17FE4349
:103AE00048466946091D0D4638403140084349465D
:103AF00031403D402943544604C904C0013CFBD138
:103B000001BC854670BCA046A946B246F0BC7047D1
:103B1000F0B444464D46564670B48146079CA246D2
:103B2000012720C940CA7F08B5417F4120C0013C20
:103B3000F7D1B8464846083354466A46A400141BD9
:103B4000A54604B46A46121D5446002720C840CB3F
:103B50007F0875417F4120C2013CF7D147460126CD
:103B6000F741FF17FE4348466946091D0D463040A0
:103B7000394008434946394035402943544604C931
:103B800004C0013CFBD101BC854670BCA046A946DF
:103B9000B246F0BC7047C046F0B444464D4630B41F
:103BA000884699466C469B00E31A9D4610B46C46C5
:103BB000241D4B460832012720C940CA7F08B54161
:103BC0007F4120C4013BF7D16A46121D0125EF4118
:103BD000FF17FD43414629403A4011434B4610C967
:103BE00010C0013BFBD101BC854630BCA046A946B4
:103BF000F0BC7047F0B587B0122700282DD00646DC
:103C0000A94D28780938052801D2212526E0B07869
:103C10001CF0E5F8002824D00446B078A3490870C9
:103C20002978002901D1A2490870A06D4078C10609
:103C300004D4800702D5206E002832D0607A002894
:103C40000BD0A07B012805D1F07831790902081842
:103C5000802802D870783F2805D93D46284607B00D
:103C6000F0BD4225FAE7204619F085FB606D00287B
:103C700019D02546433566663078012822D1A07BCD
:103C800004281FD801218140132001421AD08948FD
:103C900000780028E1D088494978814205D109257A
:103CA000DCE70C25DAE70725D8E7A06D4078400768
:103CB00008D520463C3029781CF032FB002801D082
:103CC0000B25CBE7707800280DD0307801280CD177
:103CD000059500252573A563207A01282BD17079DD
:103CE000616E4871BAE71125B8E7207A00250028EF
:103CF000B4D072480068804706466C4F387801217E
:103D00001CF016FB204614F013FC3878684909783B
:103D1000884205D11BF0E0FD6168884200D188E04F
:103D200020461CF029F9664801683046884720463D
:103D300014F04AFC92E720464A300390264621368A
:103D4000112012F092F901202072E572657309F0DA
:103D50005BFF60605948006880475D490968002939
:103D600002D062684A60F9E7554909688847606887
:103D7000584941614D4D2878002104911CF0D8FA32
:103D80002978112001220290019212F03CF9A06DD5
:103D90004078C0061BD4608C13F09EFD3070204626
:103DA0001CF0DCFA002819D00546122800D055E78F
:103DB0004248006880470546204614F0B9FB20467B
:103DC0001CF0DAF83E4801682846884745E7204657
:103DD000FEF77CFE0546002800D03FE7A06D407846
:103DE000C0071ED00398008800281AD0E16C002973
:103DF00017D00599C978884213D90F201AF0C2FC50
:103E000000280ED0A06D007806A9087003980088DD
:103E10004870000A88700598C078C8700F201AF0A2
:103E2000BFFC214D2878002817D0204617F0EEFC63
:103E300038E040681CF0A5F8312801D0022807D1ED
:103E40002048214901602148007801210BF00CF83D
:103E50001B4801683046884700E71F480078002863
:103E60001AD0A06D4078800716D01C483821405CDD
:103E700001280DD11CF0E0F805461CF0E1F80146E0
:103E80002846094D15F00AFA002805D01E25E5E65A
:103E90001348006815F0E2FB029828700198207220
:103EA000FFF7DEF9049DD9E6C96C0020AD6C002057
:103EB000AF6C0020CA6C0020806B0020D074002002
:103EC000D4740020886C002079000200A96C0020C6
:103ED000D073002025A80000A86B002004720020E9
:103EE000146C0020F0B587B00022002800D148E112
:103EF000A74E20C82C0C731C2F461D42039105D0E1
:103F00000B8825469D43AC420AD03AE1002C03D1F0
:103F10008B78002B04D134E10B881C4200D130E1B6
:103F200037400322002F00D12BE139463E46B90A23
:103F300000D026E1974909680091FF2106910025EC
:103F400029460195002E00D118E1002D01D0069CD4
:103F500012E002C80A46904B1A40551C0A04140F7E
:103F6000090C761E920F022A79D80122A2408B4BAF
:103F70001A4274D08A4A89180B2C00D904E106949D
:103F8000A20001A39A589746C13F0000D53F000008
:103F9000B93F0000B93F0000DF3F0000D53F0000FF
:103FA000B93F0000B93F0000C13F0000B93F000029
:103FB000B93F00005B4000008A072A461DD0DBE0C5
:103FC0008A0700D0D8E00A46002D14D0002308C28A
:103FD0006D1EF9E7CA0700D0CEE06A080DE0CA07F7
:103FE00000D0C9E00A46002D05D0931C002414809F
:103FF0006D1E1A46F7E700221546964200D2BFE032
:10400000002A76D00592069A521E0A2A00D9AAE002
:10401000920002A39A580496059B97466D400000B3
:104020004940000087400000F1400000AD40000022
:1040300049400000D1400000F1400000254100004F
:10404000494000002F4100001A460E46002A4CD07D
:1040500008C808C6091D521EF8E7CA07ADE7082CB4
:104060007FD3092C00D180E0AA007FE01A460E46DB
:10407000002A27D008C81F0C9BB233607760521EFD
:1040800008310836F4E7012214041E46002E2DD014
:1040900080C83A0CBB039B0F03D027426CD1575208
:1040A00001E0BBB25350059B761EEFE71A460E4661
:1040B000002A07D008C81C0C33807480521E091DCA
:1040C000361DF5E70122D243059B5A4355190EE0F0
:1040D000012212041E46002E07D0036813424BD162
:1040E000001D1C0C6352761EF5E7059BED1A049E1D
:1040F000F61A012D00D025E701250422069B134363
:10410000052B00D01EE7002E3BD033460288069CCC
:10411000052C01D10A8000E00A601E46001D5E1ECB
:10412000019D0FE70860ED1A9A008018E0E7039AF6
:1041300094781A460F460294002A0FD008C8002C23
:1041400001D09BB206E01C0C3E68A643029C9BB2C9
:104150003343049E08C7521E091DEDE7059BED1A67
:10416000C6E7104A07E7059BC2E704225218009BE6
:104170009A420BD80C4AFEE6062202E0019A00E0C1
:104180000422104607B0F0BD0522FAE70722F8E73F
:10419000FF3F0000B03A0200FF0F00000F080000D0
:1041A00000000840000009402C6B0020FEB50E46C0
:1041B0000446407800071AD4E078217909020818EB
:1041C0006179090441181127202930D39A48814286
:1041D0002DD8A179E27912025118227A1204891895
:1041E000202924D3814222D8A07A03286CD8A07C2D
:1041F000122203281AD8207D411E032901D38328C7
:1042000014D1607A0727384060720FD0029220786C
:104210000125294609F012FF00280AD084650027ED
:104220004772017A01290DD10C2700E01746384664
:10423000FEBD00201BF014FF844909788842F6D1A6
:104240000D27F4E7014668310091014629310191BB
:104250000775617A3A46032A0ED00B46D340DB0736
:1042600008D07B1C03753F061F4603D11346253338
:1042700043752F46521CEEE76278D10607D40546F7
:1042800021461CF069F807460028D0D127E0217D9F
:1042900001294AD111461039052917D805460020B1
:1042A000890002A25158029F8F46C046C5420000B5
:1042B0002F420000D7420000DD4200002F420000E4
:1042C000DB420000032009E01227B0E71D2A2CD1B1
:1042D0000546012002E0022000E00420A873E07CF3
:1042E0007F2805D155480078019908702F460BE0CA
:1042F00040B200211AF090F901990870C0B21BF089
:104300000EFE00282F4610D0002E04D00198007811
:104310001BF0BEFF3070A17A012908D801984176C0
:10432000009801703846303039E0029F7FE7444DF5
:1043300028680D301AF075FE002805D0A07A3E4698
:10434000C10710D040490FE0384630302968C91DF8
:104350001CF00AF8032001994876A07A00990870A9
:104360000121014018E037491AF0BAFF0028029FE6
:1043700000D15CE7374630463030A17AC90701D01A
:10438000314900E02F491BF0EFFFA07A01210140E5
:10439000019841760098017028680170401C00293E
:1043A00001D0294900E027491BF0DEFF6078400773
:1043B0003ED5A07AFE21014002291ED10297204E4F
:1043C0003068E17A25460C35012739402A460EF03F
:1043D00081F8FF2808D031681E26464388190D3021
:1043E0001AF01FFE002811D0E07A01998876029F0A
:1043F00038463C300622294618E0E07A0199887652
:1044000038463C300C34062221460FE00C4C206824
:104410008019C11D0D3013F091F801988776029F25
:1044200038463C3021688919C91D06221AF028FD3A
:10443000012078720027FAE600B80B00B36C002068
:104440007C6C0020C06B0020C86B0020CC73002067
:10445000F0B58DB0994A12680029069201D0916892
:1044600001E006CA8918471A1BF016FA06461BF027
:1044700012FF864238460FD0380CB9B2320CB3B2B4
:1044800004465C430D46554364195943090C6118B1
:1044900089094243900208180190894A894B8A4C45
:1044A0008A483818401C000C01210291C907196084
:1044B00058601080606801058D0EC0023C46C70D33
:1044C0002046294619F0C4F80646BD4203D02046CE
:1044D000394619F0BDF87E4F7E4D000430437A49CD
:1044E0004864086803900594204617F0F1FC0646DE
:1044F000386840017968C904C90E09187A68BB692F
:104500006C1C1F271F405806800F2342049402D1C1
:104510001B06DB0FC018D4B24F436F498F4201D83E
:10452000042100E00321451830463F3080096043F4
:10453000000C16F007F90A21091A00290ADD0922E0
:10454000101A029B1A4682409619CE4074438E4040
:10455000691A04E00A38744329188440029B5E48B3
:10456000874200D80023DF4009256F43002901D48A
:104570008F4001E04842C7400199584807604460B5
:104580000598814203D0084617F0A2FC0646039B1B
:104590009800C0B270434C4AD0639809FC21014096
:1045A000714311644E480168C907FCD145488468CD
:1045B000069E7068214617F073FC414F7880B06802
:1045C000214617F06DFCB8803068C11702464A409A
:1045D000511A203189096143083109094D433C4989
:1045E0008969049A114201D0002101E00906C90F2E
:1045F0001622521A15234B40012739469940691853
:10460000D140002800DD4942364808403049C860A2
:10461000C8653569002D4FD005972001F1680A0B58
:1046200042432C4B0B404343180B80182F682E49F4
:104630003940C20B4A435208244B03404B43180CE9
:1046400084181034200C16F07DF87B0C1821C91A40
:104650000022914204D007AF0026BE54521CF8E756
:104660000821081A6109C2179043059A92048240F2
:10467000044613345B422D1D002B09D02E784E4387
:10468000B618E64007AFFF183E765B1C6D1CF3E7DB
:1046900000210D4C182905D007AA525863185A62F8
:1046A000091DF7E7032800D3032010490A683023C7
:1046B0009A430001104308600DB0F0BD2C6B002040
:1046C0001A6809401835084080340840FF7F000010
:1046D000D4200840FF0F00001CC7711CA82408400C
:1046E0002C320840FF030000FFFF0100403108406A
:1046F000F0B58DB0864A117886480078814201D1A4
:10470000002401E15168091D0027B84207D00A784A
:10471000002A09D07F1C792292008918F5E700242D
:1047200020461AF005F8EFE0F8B21BF0FBFD044656
:104730006F20800020180B90DB2040000390211890
:1047400004916B2080000690201805903120C00055
:1047500008902018079015200001029021180C9154
:104760008B2040000A9021180091FF231846023048
:1047700021182246EC322646823620466230012538
:104780000195A580A7710027676245718572A766AC
:104790002767A760257439256755A7612777E783C1
:1047A000B773822567550C9D2F7280258574077518
:1047B0004776099083770A982752009D6F806F7122
:1047C000B774EC20275257609760977317732520B2
:1047D000C00027500A921761CF748F744F740F7402
:1047E0002846EF81AF816F812F81029823540C9A64
:1047F00057804948D060178293744848039AA05262
:10480000049807718770024645480078D070059A71
:1048100097712920C00025181E46E236A755C326E9
:104820007600A755069EA7552750AF71AF803D482B
:104830000088079EB0803C480088F0803B48008894
:10484000089D60533A48008870803A483A4DB560F8
:10485000F06035617061B061F06130621B205080A2
:1048600001980646107177207B2802D02354401C03
:10487000FAE732480378099A1370437853708378C3
:104880009370C378D370007910710720C0432C4A0D
:10489000002805D013185B7A0D182B72401CF7E71F
:1048A0000878FB2202400A7026480B9D28600A986F
:1048B0000775A0790FF05CFE234800782875EF8219
:1048C000287EFC210140297628462030296A027979
:1048D000F8231340F2070A401C495118037129625A
:1048E000AF812F61AF600220A8732F71084A107842
:1048F000411C1170002801D1A07990704B208000DC
:1049000020181C2119F0FCFF20460DB0F0BDC04658
:10491000806B0020CA6C002030750000010200008E
:10492000B46C0020526A0020A26C00205666002061
:10493000A06C0020480148011B001B00DC6B00201C
:10494000406A00203178010044750020400A0100CF
:10495000F0B589B0069314460E460546087AC0069F
:1049600024D4109B0F9A0E9F3078022857D170687C
:10497000017840780002401880B27E49411804292D
:1049800022D8880001A108588746C046A1490000E6
:10499000614A0000754A0000A1490000914A0000E8
:1049A000002A00D08BE0F06800886AE020461AF008
:1049B00011FE002848D003460A222846314698476F
:1049C00007460028CDD0D1E06B49411802293DD3DC
:1049D0006A49884271D06A49884220D1002A6ED142
:1049E00001203880F0680078069C20707089401C97
:1049F00080B23D460027394614F064FD002800D1FE
:104A0000A2E001782A888918891C2980817A61703E
:104A1000C17AA170E31C41680278184660E00495F1
:104A20001D460597174620461AF0DDFD00280BD0DD
:104A30000446119800970195029004983146069A11
:104A4000059BA047074691E00E278FE0002A36D14C
:104A5000F06802783A80416806981AF011FA84E00A
:104A60001D46F06814461BF02DF881B2A14228D2F1
:104A700007277BE0002A22D1F068016828461AF057
:104A800046FD0221398006990870000A48706CE0E2
:104A9000002A14D1F068072139800178069A117034
:104AA0004178517081789170C178D170017911711C
:104AB00081795171C079907157E0002A13D00B278A
:104AC00054E03B460027A1423A4604D02A199142BD
:104AD0002A4600D8021B1A80F068011992B2069883
:104AE0001AF0CEF942E0F068048804203880069974
:104AF0000C70200A487008A9204614F0E3FC002836
:104B00002CD005461F4CC66808A8028807AB28466B
:104B100021460CF0B5FE002809D16A682B781A48A6
:104B2000022113F057FA002801D107A80480307839
:104B30000228069C15D1201D716802221AF0A0F9E6
:104B40003888801C38800CE02888001D2880601C74
:104B50000027042239461AF06AFD07E007A80480FE
:104B6000069C0798A070000AE0700027384609B03C
:104B7000F0BDC04600D7FFFF00D8FFFF02280000AD
:104B800003280000FFFF0000C03A0200F0B597B014
:104B9000154608910690C089C01D84B220460DF0CC
:104BA0003BFA0746FF280BD12046FDF757F8A042F5
:104BB00006DA80480078002800D0C6E00520C4E06E
:104BC0007C4E30780028069C16D1002D03D0022D93
:104BD00012D1FF2F10D1207A11AA107260681290A2
:104BE0007548C188C07800230093032303F076FC46
:104BF000159820741498A081A189002927D0E089F4
:104C0000002824D0091A07910021079A52188EB261
:104C100080B2801B202800DB202091B285B2207C4E
:104C200009AF3A462B461AF079FB089881193846A5
:104C30002A4618F0D6FF002808D1A9198AB2E089BF
:104C40008242E2D30020A0815A4E7DE0594E5A485C
:104C5000C788C578002116AC0423284622461AF0DE
:104C60005DFB20787E2805D17C21284616F0B0FC1B
:104C700016A800787C28069C62D13B46E789F91D7E
:104C800088B20790C2180120C00282425AD804920A
:104C90000591E18809A84170BA0003920271A288C7
:104CA0001E46930883703B059B0E9201D218C2707A
:104CB000227A92008905890F891801700696BC191D
:104CC00007980D2843D202943A4E18363046089978
:104CD0003A461BF095FAF019089009AC05222146D6
:104CE0001BF08EFA781D81B2002230461AF04CFD7E
:104CF0009621A1718100891C617180090399084383
:104D000020710722089821461BF07AFA2846069956
:104D10003246284E079B16F05BF930700C21694330
:104D2000254A5118049B8B83D188059BC918D180D3
:104D3000002809D0029881B2284615F023F903E033
:104D4000012000E005203070307817B0F0BD00225F
:104D5000089839461AF018FD09AE0522314619F0B7
:104D600093FC9621B17181090A9A0A43327180003D
:104D7000801C707128460699089A3B4616F028F95F
:104D80000C490870A1B2072328463246094E16F096
:104D90001FF93178014331700806D5D10C206843E2
:104DA00005490818049A8283C888059A8018C88023
:104DB000CAE7C046B4710020E0630020F0B585B0BA
:104DC000164605460024500438D5E86A002803D06A
:104DD00001229202904206D92879412149024018C5
:104DE000A8800224D8E00F4618F020FC014628468F
:104DF00012F04CFC10280ED3A988AA791204891845
:104E00000002674A11400843A880080CA8711AF0F4
:104E100071FA022411E063480178AA88AB791B0477
:104E2000D2185F4B1A4003231B021343AB80120CB2
:104E3000AA71F8220A40511C0170394668790002B3
:104E400003273A02904200D0A6E02B1D01200490D7
:104E50008205700660D50292534E52480078C20710
:104E60000191039331D05148514A5249118052491E
:104E7000524B8B60524B0B60524B4B600021518068
:104E8000049A82600260426D042AFCD141654E485A
:104E90000421016002981AF0F7FCE86A00901020E3
:104EA00019F0B6FD4948476237604948411C7160B6
:104EB00000990818B0603B4A1078FC210140881C1A
:104EC000107004990C430199039B400723D5F068A7
:104ED000C007FCD111F0FCFF286B00280BD0E96A59
:104EE0008A003C4E31461BF08BF9E86A810030465F
:104EF00019F006FD01E0374828630199294B18781D
:104F0000FB2202401A70039B1878049A120380183F
:104F1000188002200443029A11423DD021480078B3
:104F2000800739D503932948204900224A6526493C
:104F30000F6001680907FCD527480168049FB94341
:104F40000160264801680C22914301602448202119
:104F500081600160144807611AF0CEFE0646E86AD7
:104F6000032115F0CFF98019394619F0E1FE102818
:104F70000BD3039A11780002081810800220044312
:104F800011F0A6FF074A107803E0064A11780420C2
:104F90000843FD2101401170204605B0F0BDC04618
:104FA000FF00FF00AC6C00200050084000300840BB
:104FB0001A68094060910000BC340840C4048609A6
:104FC00000000E1300003B16641008409C200840AF
:104FD000FF07000000000940B03008400C320840D4
:104FE00000200840F0B589B01F46049104467D308A
:104FF0000290804B8048D861256F002D03922FD1FD
:10500000606FE16E88422BD1019702219960E16ABD
:10501000029B1A79A56EDB780E26B61A9B00083B18
:105020000427BB433343002D01D04026334305936F
:1050300000BA089000200690079005A8401C1BF0BD
:10504000DFF805986D490860069848600798886001
:105050000898C86004980028039A019F0FD177E050
:10506000606C1866A06C5866E06C9866206DD86617
:10507000049800286CD0002D049E0BD1A56E206AE8
:10508000049E31462A4612F09DFD039A054620678C
:10509000361A5DD0019702998878002825D000271C
:1050A0000597089707970697087805AA107048781B
:1050B0005070206A0499891B4118901C0E2E06D34B
:1050C0000E221BF09DF8103525670E3E06E0324695
:1050D0001BF096F87019801C20673E4605A8102129
:1050E0001AF04BFE02988770039A0F253746AF439C
:1050F0000CD0206A0499891B401839461AF03DFEED
:10510000039A206FC0192067354000E03546019FA3
:10511000002D1DD0206F4019A16E88420BD1206A4E
:105120000499491B4018294617F008FD039A206F7F
:10513000401920670CE0022D56D1206A0499081806
:10514000801E0178029B1970407858700220987078
:10515000002A42D0022F01D0242000E02820255828
:105160000F271646BE43207E04280BD1002E114681
:1051700028D0284631461AF000FE039A17403946D7
:1051800020D124E0002E11461CD01A4FF8690121CD
:1051900009068843F861212120461AF09DFA284625
:1051A000314615F001FD154804214167206E801B32
:1051B0002066606F801B606708203860204617F00B
:1051C000D1FC0FE0501A281817F0B8FC039A206E93
:1051D000801A2066606F801A60674434204619F098
:1051E000A3FF002009B0F0BD012002494860002063
:1051F000C043F7E710000C403400000190000C4061
:10520000F0B58DB00E4609780627002900D09CE045
:105210007578012D00D198E00392B4781D2C01D04F
:105220001B2C1ED17B490978FF2900D18DE0002776
:105230001D2C04904CD117F0B1FE002848D0044634
:105240000A202056002842D0002700287DD4C2B270
:105250001D21049818F09AFEA07A80210143A172C2
:1052600073E0049017F09AFE002500286CD0012C02
:1052700006D10446B068B18807AA18F0B7FF0BE062
:10528000817804278C4260D14368002B5DD00446AE
:10529000B068B18807AA98470746002855D1234629
:1052A000A078401FC1B2C00149084018C0B2092807
:1052B0007ED8012181405722114274D0B27819461C
:1052C00007AB049806F058F9039908703CE02746AC
:1052D0000297B268B38807A80090002420462946A8
:1052E00017F07CFC07460028049A2ED106A8FF215F
:1052F000017005A80470474D686800280BD003684A
:10530000002B08D0274605A9144606AA2046984730
:10531000224600281CD02878B37807A900910025E0
:1053200011462A4612F006FA074600280DD10898C1
:10533000002801D003980570B0781D28029903D188
:10534000002901D01D2088722F4638460DB0F0BDCF
:1053500006A8017805A8027820460FF017FD22461E
:105360000028D8D00898002802D00120039908709E
:10537000B0781D28029907D1002905D01D20887218
:10538000104616F095FF224668680028DDD0446874
:10539000002CDAD0104615461AF096FA0128D4D11E
:1053A0002846A047D1E7092802D11869002885D1ED
:1053B000587A19490978884201D1002717E01C461C
:1053C000B37807A90091002504992A4612F0B2F992
:1053D0002346074600280AD1B17807A80CF0C2F985
:1053E000234600282F4602D000270398077098789C
:1053F00003280AD11C46998907A80088814200D356
:105400000146049817F046F8234618460DF026FF8B
:105410009BE7C04684740020BC6C0020F0B587B0C8
:105420000446007800210428069123D31AF0BCFE1C
:105430000646258DA804870F38012838B0421FDDA5
:10544000801B0590A9068A0F0A2104914A43394618
:10545000764B98470190A805820F0498424305981F
:105460003946724B9847714B039003222A400598A6
:10547000394624E00291049105910846039147E0E2
:10548000AF0B39017D204840B0421ADA301A05903E
:1054900029068A0F0A2104914A433946634B9847EB
:1054A00001902805820F04984243059839465F4BC6
:1054B000984703902807820F059839465B4B984719
:1054C00002E0002003900190574AE56A2907091776
:1054D000193E7143C9110591918CC9070DD129035A
:1054E00009172A0212174E43F1118918049129173E
:1054F00002912A011117069109E0290609172A05C8
:1055000012174E43F11189180491069902910199DD
:10551000667B7F22164040256E408E197F2E00D379
:10552000164641494B8931020127BF03794019438F
:105530003D4B5981998976187F2E00D316461989DB
:1055400033027B400B4338490B81374BE77B1740D5
:105550000399002905D06F407F187F2F00D37F2744
:105560006F40334DE96E3A020A43EA66E18A490622
:105570000E0F0B2E05D88019198846180C2E00D353
:105580000C265888864200D80646286EF100014352
:1055900029663020205624780221C943884201DB45
:1055A000024600E0421D069E042C00D00246D88B25
:1055B0000599081880182860988CC00722D1188C8B
:1055C0000299314301D102461BE00F2203461340EA
:1055D0000406002E05D09B19D9178B430F2B00D33F
:1055E0001346240F0299002905D06418E1178C4353
:1055F0000F2C00D30F24FF218843184322010243BC
:10560000094B2A61588C049A002A09D0C1B2891822
:10561000CA179143FF22FF2900D311469043084344
:10562000686107B0F0BDC046206809409DB5010023
:1056300088300840F0B587B080490C68002C26D02F
:10564000A0880004000F00D0F6E00120470203907C
:105650000602E06804908D6800200690886019F0CA
:10566000E9FE019012F0BAF8401E03281DD8800010
:1056700001A108588746C046895600009B56000085
:10568000A1560000A95600000398800306E06D486B
:105690006D49662200BF00BFCEE04020054304E014
:1056A00031463543069B02E03D43069B3146261DAD
:1056B0002940A805400F0596029111D0707800028C
:1056C000B84246D12F403E460E431AF069FD002EE7
:1056D000059E1BD0594B1846002F0ED11C300DE0F3
:1056E000680436D5564FBA7879680498806D81423F
:1056F00015D07860511E8A4112E0103000781821D0
:1057000001401879E72202405018187101200DF06D
:10571000FFFF3178000208183080069B19E0084628
:10572000618800F065FD002807D0307881210902EA
:10573000401830800223002001E000230220B870CE
:10574000F878002805D106931AF0FDFB069B039814
:10575000F8707078801E0D2805D8A368204601993E
:105760002A4698470346D8070CD01E460BF0B4FBD8
:105770003346002806D0014630480068012204F074
:10578000A5FC33460F26802718041FD506932C4806
:10579000827840682949098D00F02AFD00280BD045
:1057A000059A10788121090240181080022006997C
:1057B00001430691002000E00220214988701F4823
:1057C00000680399890413F0AFFF069B0299300328
:1057D0003D40002901D1059E07E0059E3188014228
:1057E00003D10721C90180310B43002D05D0318839
:1057F000014202D10399C9020B436169032292025B
:105800000A431A4004994B6D13434B65318801409C
:105810000B4311D000290DD018F0C8FB1AF0BCFCC6
:105820001AF012F8064CE078002803D01AF086FB34
:105830000020E0701AF091FB07B0F0BDF467002083
:10584000E46A00204B380200852D0200F0B589B0D3
:105850000F2607680790406804900068046C446451
:1058600061050A0F06970594039644D03A6C002A06
:1058700041D0002917D5386D796D411A079817F076
:1058800051FB049800688169C90604D4016808AA1C
:1058900011700899F7E73968491C3960B97B00290C
:1058A00001D10121B97301213A46CF07456835403E
:1058B000566C2E4003D0304610F084FF00E02020CC
:1058C0003946C140314008D00698046C002C04D001
:1058D00006980268836C0798A047002D039E03D0AA
:1058E000284610F06FFF00E02020059CC7402F40A5
:1058F0007842069FB86381208001044250D0079807
:1059000060C8294664310291083810F0BBF940277D
:1059100027401DD0E87C002814D10CE0296F002915
:105920000DD00068A96EAA6F8854A86F401CA867A4
:10593000286F401E286730688169C906EED5E87C6B
:10594000002805D0286D696D411A079817F0EAFA0A
:10595000029A10780028039E1DD0287902281AD0B8
:10596000002F02D0A979012902D0296F002912D174
:10597000002414702C67A96EAC66012807D1966EBE
:10598000AA6FAB6C00940798B047039E03E07C3588
:10599000284617F0EDFE079805F068FD069F059C68
:1059A000F501E0042DD5F8203858002829D0079EAD
:1059B0003768706803903C46E83430460EF088FC47
:1059C000304609F0F1F9787901280ED1E068002815
:1059D0000BD12078002808D000202070A66E6168C6
:1059E0006269BB6C00900798B04720690028069F49
:1059F000059C06D103980068816B2A4680320A43D1
:105A0000826380352C4229D0049800688169090797
:105A1000FCD4016B01263502A9430163397A0029C0
:105A200012D0002038724420385C800607D53C6CC8
:105A3000002C04D0BB6C202100220798A047012035
:105A400016F0BEFA04980068816BF20291438163FC
:105A50007879002802D1781917F08AFE09B0F0BDD4
:105A6000F0B5A3B0029304920E46074600240894B2
:105A7000794D22462B4610F0E5FA002813D1002478
:105A8000764D3846314622462B4610F0D1FA002892
:105A900009D1002238463146134610F0B5FA0028E5
:105AA0003C46354607D108AA2046294610F0B8FEE4
:105AB0000898401E089009AE302001903070049F75
:105AC000387B412801D0674800E0654807901AF00C
:105AD000FFFA0692134610F0A1FA01210028009166
