:10000000C00A002079060000CDA90100CDA9010099
:10001000D3B00100CDA90100CDA90100CDA90100F7
:10002000CDA90100CDA90100CDA90100CDA90100F4
:10003000CDA90100CDA9010055B20100CDA9010053
:10004000CDA90100CDA90100CDA90100CDA90100D4
:10005000CDA90100CDA90100CDA90100CDA90100C4
:10006000CDA90100CDA90100CDA90100CDA90100B4
:1000700059470000CDA90100CDA90100CDA901007B
:10008000CDA90100CDA90100CDA90100CDA9010094
:10009000CDA90100CDA90100CDA90100CDA9010084
:1000A000CDA90100CDA90100CDA90100CDA9010074
:1000B000CDA90100FD8E0100CDA9010045990100E7
:1000C00049410200454102003591010055410200BD
:1000D0004D4102001999010051410200859901002A
:1000E0009171010055730100F5990100CDA901003E
:1000F000CDA90100CDA90100CDA90100CDA9010024
:10010000CDA90100CDA90100CDA90100CDA9010013
:10011000CDA90100CDA90100CDA90100CDA9010003
:10012000CDA90100CDA90100CDA90100CDA90100F3
:10013000CDA90100CDA90100CDA90100CDA90100E3
:1001400082B030BF074BD3F8F030DB0704D5002373
:100150000193019B052B01DD02B07047019B013328
:10016000F6E700BF00ED00E0F0B5114A114C124E69
:1001700000F00105E3695F0713D40DB9334213D1D1
:1001800003EA00078F4207D10B4A1A40002A0CBF2E
:1001900000206FF00100F0BD013AEBD16FF00200DA
:1001A000F9E74FF0FF30F6E76FF00100F3E700BF2B
:1001B0008096980000000350020001000B4B70B5C0
:1001C000D96911F480310DD101244FF48072084EA9
:1001D000084DF46020462C641A61FFF7C5FF3464B3
:1001E000EC6070BD6FF00100FBE700BF0000035042
:1001F00000100350002003504FF4003238B50F4B6D
:100200000F4C9A6641F671330122E569E3630D4BA9
:100210000021DA60022360612120236105F480352A
:10022000FFF7A2FF10B92120FFF79EFF0122064B26
:10023000DA600DB10023E36338BD00BF00900050C9
:1002400000000350001003500020035070B5134C01
:100250006061E3695B071ED40E4656F8043B8D18B7
:10026000A361AE420BD10423002121202361FFF7BB
:100270007BFF58B9BDE870402120FFF775BF08210A
:100280000846FFF771FF10B10423236170BD56F8D3
:10029000043BA361E5E74FF0FF30F7E700000350B0
:1002A0002DE9F84315464FF40032184B89469A66FB
:1002B00041F6713203F51C33DF69DA630122064629
:1002C00003F58053DFF84C8007F48037DA6055B9C6
:1002D000284601220E4BDA601FB10022A3F500531D
:1002E000DA63BDE8F88306F5005404EA0804A41BA9
:1002F000AC4228BF2C46494622463046FFF7A6FFAF
:100300000028E6D12644A1442D1BE0E700900050D0
:100310000020035000E0FFFF00000000000000008C
:10032000002370B5404C05468AB0E36318B10088DD
:10033000236009F04BFE3D4823F09BFA3C4E3D4BB9
:10034000304633603C4B73601FF039F80021304673
:1003500012F088FE32A3D3E90023A062C4E9062389
:100360001FF038F8D4E9062319431043C4E9060105
:10037000CDE900014FF0FF334FF0FF32A06A23F0C8
:10038000CCFA02224FF0FF31A06A23F0CBFA012011
:1003900009F09CFB4FF4007300222849A06A23F067
:1003A00014FBB0F5007F38D100239422CDE9073348
:1003B00009933C23CDE9033205939623A06A03A950
:1003C000069312F037FF35B3287C09F07FFF05460E
:1003D000F0B9A06A23F0D6FB09F026FF09F058FB1C
:1003E00020B14FF48070002107F014FC09F060FB8D
:1003F00020B14FF40060002107F00CFC1FF0A4F8BE
:10040000012012F085FE0E4A0E49A06A1EF0D5FFAB
:1004100028460AB070BDFF20D7E70725F8E700BFE0
:100420000DD5015520000000300B0020690345EC7C
:10043000441A002005990000541A00204418002096
:1004400063F30100A3F301000348044B834202D08D
:10045000034B03B1184770470C2500200C250020E2
:1004600000000000064B0749C91A891048BF013136
:10047000491003D0044B0BB101481847704700BF27
:100480000C2500200C2500200000000010B5064CB3
:10049000237843B9FFF7D8FF044B13B10448AFF3F7
:1004A00000800123237010BDAC200020000000005C
:1004B0008491020008B5054B1BB105490548AFF30F
:1004C0000080BDE80840FFF7CDBF00BF000000007E
:1004D000980D002084910200A3F5803A704700BF78
:1004E000174B002B08BF134B9D46FFF7F5FF00216C
:1004F0008B460F461348144A121A23F06BFE0E4B1C
:10050000002B00D098470D4B002B00D098470020BF
:10051000002104000D000D48002802D00C48AFF364
:10052000008019F08DFC200029001AF0D9F919F08B
:1005300075FC00BF00000800000000000000000083
:10054000C00A0020C00A0020C021002000000000D6
:100550000000000070B503681E4A23F47F4323F0B7
:100560000703934288B033D103AA15461A4B03F10F
:100570001006144618685968083303C4B34222466B
:10058000F7D11B882380154C20460CF0F9FC02465D
:1005900000B1FEE7014620780CF02CFD014600B1C9
:1005A000FEE72B46122220780CF046FD034600B1F0
:1005B000FEE74FF4C8620090114620780CF0F8FC7A
:1005C000014600B1FEE720780CF04CFD00B1FEE7DB
:1005D00008B070BDA0000100F04A0200E82400202D
:1005E00008B501F0D9F901280ED1114B04205A6E3B
:1005F0004FF480230F49520358BF0F4A4B6601F551
:100600001041086258BF536602F0E6FC00F020F883
:100610001AF0E2FC02F0D0FC1AF07CFC02F03CFD87
:1006200000F00CF800F0F2F8BDE8084003F02AB939
:10063000008000500090005000A0005008B5034812
:100640001AF074FCBDE808401AF073B92C4C020093
:1006500001481AF06BBC00BF2C4C02000348044A4E
:100660000449121A92101AF0B2B900BF40010000FA
:1006700020030000C021002008B500F02FF8FFF78C
:10068000EDFF124B12498B4212D30020114B12493D
:100690008B4218D3FFF724FF186850F8224058689F
:1006A00040F82240013298688242F5D30C33EAE7E1
:1006B0000022F8E71C6844F8220001325C68A2427C
:1006C000F8D30833E4E70022F8E700BF8C9102007A
:1006D0009891020098910200989102004FF4004115
:1006E000134B144A70B59A60D3F88820124D42F427
:1006F0007002C3F88820114A05F5005491664FF046
:10070000FF3222664FF6DF7262660222C3F8D02003
:10071000BFF34F8FBFF36F8F4FF44036032002F0CB
:1007200099FC0320E66002F087FC2E6170BD00BFDB
:1007300000ED00E000000000008000440090005048
:10074000014B1868704700BFA4230020014B1860BC
:10075000704700BFA4230020084B1B6F03F0070362
:10076000022B04D0032B05D0012B05D0FEE7044B50
:1007700018687047034BFBE7034870470080005040
:10078000A4230020AC230020002D310108B5FFF781
:10079000E3FF054B1B6FC3F303330133B0FBF3F0EF
:1007A000024B186008BD00BF00800050A02300204D
:1007B0000048704700B4C404014B1868704700BF7C
:1007C000AC230020054B1860054B1B6F03F007039B
:1007D000032B01D1FFF7DABF704700BFAC23002025
:1007E0000080005000487047002D3101014B18680F
:1007F000704700BFA8230020034B5868C0F30800CF
:10080000003818BF0120704700ED00E0024B196866
:10081000024B186812F032B8B0230020D023002019
:1008200070B59400224605460E4624F055F9431C47
:100830000AD058B922463146284623F0A1FC0028A8
:10084000034808BF002070BD0248FCE70248FAE7F1
:1008500010E000F021E000F024E000F010B50446C4
:1008600024F03EF9431C10D088B901F09DF82346CE
:1008700020F003002044984201D1002010BD53F81D
:10088000042B0132F7D00348F8E70348F6E70348A2
:10089000F4E700BF0EE000F021E000F024E000F0FB
:1008A00008B51AF0A8F8014B186008BDA014002084
:1008B000014B18681AF0A3B8A0140020044BD3F819
:1008C0008420D206FBD4D3F88400C0F38110704793
:1008D000004000502E4B98424AD022D82D4B9842CF
:1008E00040D014D82C4B984239D00AD82B4B984280
:1008F00032D02B4B98422FD02A4B98422CD000203C
:100900007047294B9842FAD1284B186F7047284BF3
:1009100098422AD0274B9842F1D1244BD3F880003B
:100920007047254B98422BD009D8244B984223D0AE
:10093000234B9842E3D11D4BD3F88C007047214BD9
:10094000984221D003F5740303F510539842D6D191
:10095000164BD3F898007047144B986D7047134BA3
:10096000586E7047114B586F7047104B986F704717
:100970000E4BD3F8840070470C4BD3F888007047B7
:100980000A4BD3F890007047084BD3F89400704797
:100990000048E8010024F400C0CF6A0080841E00F3
:1009A00000093D0040420F00405DC6000080E00F9E
:1009B000C0EA210180BA8C01007E560380D5430233
:1009C000006CDC020090D00338B5104B0546D3F81C
:1009D00020310C4603F00303022B0BD0032B0DD068
:1009E000012B0FD1FFF7ACFE052305B1286004B140
:1009F000236038BDFFF7E0FE0323F6E7FFF7F2FEC2
:100A00000223F2E701230020EFE700BF008000503F
:100A100073B50D4600210E4B0191D3F88041064677
:100A200004F00304012C09D0022C0CD00C460EB1AA
:100A3000019B336005B12C6002B070BD01A8FFF7C7
:100A4000C3FF0F24F3E7FFF7CDFE0190EFE700BFF0
:100A50000080005038B5184B0546D3F824010C46E9
:100A600000F00700062823D8DFE800F0040A121A75
:100A70001E0E1600012305B1286004B1236038BDA5
:100A8000FFF75EFE0523F6E7FFF75AFE0623F2E7BF
:100A9000FFF792FE0323EEE7FFF78EFE0423EAE75B
:100AA000FFF7A0FE0223E6E719F09DFF0723E2E728
:100AB00000231846DFE700BF0080005038B5104B18
:100AC0000546D3F840310C4603F00303022B0BD04C
:100AD000032B0DD0012B0FD119F087FF092305B18E
:100AE000286004B1236038BDFFF780FE0823F6E7D5
:100AF00019F07EFF0B23F2E701230020EFE700BF90
:100B00000080005038B5144B0546D3F800020C465F
:100B100000F0070004281BD8DFE800F003090D11DE
:100B20001500012305B1286004B1236038BD19F018
:100B30005CFF0923F6E7FFF759FE0823F2E719F0F7
:100B400057FF0B23EEE7FFF721FE0E23800AE9E7AC
:100B500000231846E6E700BF0080005038B5104B70
:100B60000546D3F840320C4603F00303022B0BD0AA
:100B7000032B0DD0012B0FD119F037FF092305B13D
:100B8000286004B1236038BDFFF730FE0823F6E784
:100B900019F02EFF0B23F2E700231846EFE700BF02
:100BA0000080005038B5104B0546D3F860310C4634
:100BB00003F00303022B0BD0032B0DD0012B0FD11D
:100BC00019F013FF092305B1286004B1236038BD73
:100BD000FFF70CFE0823F6E719F00AFF0B23F2E7F4
:100BE00001230020EFE700BF0080005010B40D4C3F
:100BF0000B46D4F8204204F00304012C0AD0022C46
:100C00000CD008B1002101600BB100221A605DF820
:100C1000044B70475DF8044BFFF7D6BE5DF8044BFC
:100C2000FFF74CBF0080005038B50C46054619F060
:100C3000E2FE054B9A6A54402C4054409C62BDE849
:100C4000384019F0DCBE00BF00C00050B0F5207F76
:100C50001FD009D8B0F5007F15D003D868B1B0F522
:100C6000C07F0AD000200CE0B0F5607FFAD10B4BBA
:100C7000D3F88000C0F3011003E0084B186FC0F3F5
:100C8000033001307047054BD3F89000C0F3046087
:100C9000F7E7024B186FC0F38020F2E700800050A6
:100CA0004FF400320E4B014610B500209A66FFF754
:100CB000CDFF484341F671320A490B4B884294BF3D
:100CC00000200120DC69DA639A6822F4401242EACB
:100CD00000529A60E20344BF0022DA6310BD00BFF5
:100CE00000900050005A620200000350420910B503
:100CF0000FD0012A0FD00A4B0A4C022A18BF2346F4
:100D000000F01F0049B103F58053012282401A60B0
:100D100010BD1346F4E7044BF2E703F50053F4E784
:100D200068800050608200506480005008B58020C8
:100D300019F0B6FE034B98429EBF4FF48032024B2F
:100D40001A6708BD005A620200A000501FB50023B8
:100D5000B0F5807F019377D028D8382800F09480B0
:100D60000BD82438092810D809280ED8DFE800F05D
:100D7000676767670D0D620D377D52285FD008D811
:100D80003D283BD03E2800F08480019805B05DF8F6
:100D900004FB8028F9D1414B1B6F03F00703013B93
:100DA000032BF2D8DFE803F044413F6CB0F5D06F7D
:100DB0005BD019D8B0F5A06F66D00AD8B0F5806FB7
:100DC0003DD0B0F5906FE0D1002001A9FFF742FEC1
:100DD000DBE7B0F5B06F2DD0B0F5C06FD5D10020F6
:100DE00001A9FFF76BFED0E7B0F5006FECD00AD891
:100DF000B0F5E06F4DD0B0F5F06FC6D1002001A97D
:100E0000FFF7D0FEC1E7B0F5086FBED1234BD3F892
:100E1000003103F00303022B2CD0032B2ED0012B27
:100E200030D1FFF7C9FC032300E005230193ACE7B1
:100E30000223FBE7002001A9FFF7EAFDA5E7002058
:100E400001A9FFF7C1FDA0E702934FF0E0231B6962
:100E50005B0705D5FFF79AFC0C230393039BE5E79B
:100E600003A902A8FFF72AFEF8E7002001A9FFF76F
:100E700049FE8AE7FFF7BAFC0823D7E719F0B3FD6C
:100E80000723D3E70123D1E7002001A9FFF7AEFE36
:100E90007BE7002001A9FFF761FE76E700800050A4
:100EA0004FF48032074B0849586E03F580535A6659
:100EB0000B6A23F001030B62C3035CBF034B5A664A
:100EC000704700BF0080005000C0075000A00050D5
:100ED00008B5FFF73BFF082811D00938012802D9CF
:100EE0004FF6FF7008BD4FF40012064B5A6603F52B
:100EF000D8335B6ADB07F3D54FF4FA70F2E7024BA5
:100F00001888EFE700900050D624002008B5FFF7BE
:100F10001DFF03280ABF024B4FF6FF70188808BD5B
:100F2000D4240020F8B504468020FFF70FFF0328E3
:100F300000F087804FF40022424B02215A6645F6AA
:100F40000E03414AC2F88030404B9962012103F5FB
:100F500080539962936DD903FCD4D4E900131B0527
:100F600043EA0163E17B94F820500B43217BE77E49
:100F700043EA0143617B6D0143EA0133A17B43EA0C
:100F8000811313619169D4E904031B0643EA80636A
:100F900001F000410B43A17E94F823000B43217E16
:100FA00043EA0143617E43EA01239361136AE669E0
:100FB00023F00D0394F8221043EA8703002E2DD16D
:100FC0001362966A94F8213045EA031326F033053C
:100FD0002B4343F0010393621D4D1B4B9A6D35EA81
:100FE0000202FBD10222194DAA621A659A6D5200C3
:100FF000FCD41A69A56822F4700242EA05521A610B
:101000004FF00042114B9A6119B9022203F5805347
:101010009A6278B901220F4B9A620BE0334343F096
:1010200008031362936A23F0330303432B4343EA19
:101030004103936294F824301BB1034B064AC3F872
:101040008020F8BD0090005000C0005000D000503B
:101050000300014000E00050F1A7FFFF1E4BFF28F6
:1010600070B59E6A35D89A6D12F4803F18BF012181
:101070001A4A18BF9162022191629B6DDC0303D56D
:10108000154A936D9907FCD50222144B124D1A652F
:10109000AC6D14F08044FBD1114AAB6992F9002089
:1010A00023F47F03024423F47F4382F3080243EADC
:1010B000002343EA0243AB6131460220FFF7B4FD4F
:1010C000AB6DDB0303D531460120FFF7ADFD2046B4
:1010D00070BD2124FBE700BF00C0005000D00050CD
:1010E000AD200020014B93F900007047AD20002097
:1010F00001221548154B816A9A62826D02F0030243
:10110000032AFAD102229A621A650F4A936D5B0094
:10111000FCD40F48936D30EA0303FBD101220B4B43
:101120001A65A3F580539A6D9007FCD49A6D9207C7
:10113000FCD50222054B1A65034A936D9B07FCD52B
:101140000320FFF771BD00BF00C0005000D0005069
:1011500003000100F0B5D0E901434FF480061A4ABC
:101160004178057856664FF4D156022702F5B83219
:101170005662164E4F2977604FF0010728BF4F2166
:1011800006F5805677601669F603FCD441EA05211E
:1011900051611B01417B43EA04230B43017B43EA7A
:1011A00041039360C37B817B1B0143EA4113417C74
:1011B0000B43017C43EA41035360837C13B16FF41A
:1011C000D1535362F0BD00BF009000500010025098
:1011D000014B1880704700BFD6240020014B1880B7
:1011E000704700BFD42400204FF4001208B5184BFC
:1011F0005A660223174A5360936813F48033FBD175
:10120000012822D1FFF7D8FA134B984215D003F5E5
:10121000122303F5F863984213D0104B00EB8002C1
:10122000400AB3FBF0F3520A0A49CA620B63012376
:101230004B620022074B5A6008BD45F67A13084AF4
:10124000F2E745F61A03074AEEE75362F1E700BFFB
:10125000009000500040025000F04902646666664B
:10126000D8B80500BBCF0500B0F5207F10B50C46FF
:1012700042D008D8B0F5007F33D003D888B1B0F59C
:10128000C07F0ED010BDB0F5607FFBD11F4A4C1E51
:10129000D2F8803023F0300343EA0413C2F88030E0
:1012A000F0E719F0F5FB19F0BFFC4FF48031184B53
:1012B000164A1967136F013C23F4704343EA043361
:1012C0001367FFF763FA0446FFF7F8FAC0F102016B
:1012D000204619F0A3FC00F02DF8BDE81040FFF700
:1012E00025BD0A4A4C1ED2F8903023F0F85343EA49
:1012F0000463C2F89030C5E7044A4C1E136F23F410
:10130000806343EA84231367BCE700BF008000507A
:101310000090005008B50121022000F05DF919F09D
:10132000B7FB19F081FC4FF48032014B1A6708BDFE
:101330000090005008B54FF4C07019F0B1FBBDE843
:1013400008400449884294BF012102214FF42070D3
:10135000FFF78ABF80F0FA024FF4C02270B505464D
:10136000FFF7B8FA314B04465A6603F598335A68CA
:10137000012A04D12E494A609A699207FCD1802043
:10138000FFF7E4FC052807D119F082FB19F04CFCAB
:101390004FF48032254B1A67264B24F040749D424F
:1013A00030D0254B9D4230D0FFF7CAF98542064622
:1013B00003D90121284600F04FF9204BDA6812F0DA
:1013C000060FFBD199689C609A68624012F4F81F7E
:1013D0001ED12846FFF7BAF98020FFF7B7FC052891
:1013E0000DD1FFF7D3F90446FFF768FAC0F1020107
:1013F000204619F013FCFFF79DFFFFF797FCAE4264
:101400000CD270BD44F00074CEE744F08074CBE79A
:1014100080209960FFF79AFC052805D0BDE8704050
:101420000121002000F018B93546DAE7009000509D
:1014300000E0015040420F0080841E000000015077
:1014400010B5224B70B94FF40031214A1860516633
:1014500002F598325268012A03D11E4AD2F80021BF
:101460001A6010BD1B68002BFBD01B4A5268012A72
:10147000F7D0184A8020C2F80031FFF767FC052832
:101480001FD14FF4C070FFF7E1FB0128044604D1DF
:1014900002214FF4C070FFF7E7FE07220F4B1A61DD
:1014A0000122A3F580535A600B4A1369DB07FCD570
:1014B000012CD6D12146BDE810404FF4C070FFF793
:1014C000D3BE0122064B5A60CBE700BFA414002014
:1014D000009000500080005000C0015000E001501A
:1014E00000D00150044A4178536F23F4407343EA1B
:1014F00001235367704700BF0040005010B50446F9
:1015000010B10020FFF79CFF124A136943F0040357
:10151000136102F0C7FC19F0A3FB0F4B5B6E5B017C
:1015200042BF0E4B0E4AC3F8202419F064FA23F090
:10153000DBFA19F064FA19F094FB02F0DBFC1CB939
:10154000BDE81040FFF722B90120BDE81040FFF7C9
:1015500077BF00BF00ED00E00080005000E00350C6
:101560000000FF0F10B5044610B10020FFF768FF20
:10157000104A136943F0040313610F4B5B6E5B0168
:1015800042BF0E4B0E4AC3F8202402F08BFC19F028
:1015900032FA23F0A9FA19F032FA02F0ABFC1CB9C6
:1015A000BDE81040FFF7F2B80120BDE81040FFF79A
:1015B00047BF00BF00ED00E00080005000E0035096
:1015C0000000FF0F034A0179D36E23F030030B4371
:1015D000D366704700400050F8B504461C4BD3F862
:1015E0008420D106FBD4D3F88430C3F381139C420A
:1015F0002CD0FFF7B1F8012C064602D1214619F094
:101600000DFB19F0F8F94FF00072124B07465A66BD
:10161000204619F02DFB4FF480630D4D621E934060
:101620002B676B6E9A0103D4D5F884309B060AD5DC
:10163000384619F0E4F9022C08D13046BDE8F840EC
:10164000002119F0EBBAD5F88430EAE7F8BD00BF05
:10165000004000500060005010B50C4608B9FFF77C
:101660007BF8074B21461B783BB1064B984204D8C8
:101670000120BDE81040FFF7AFBF0220F9E700BF2F
:10168000AE200020005A62020278034B01210020A4
:101690001A70FFF7E1BF00BFAE2000204FF00042FC
:1016A00038B5264B26495A6601224A604AF6CD31A2
:1016B00003F50B235D6C1964154030BB9968C907AD
:1016C0000BD4002401221F4B5A6015B11E4B1F4A38
:1016D0001A6422F03AF9204638BD1A498A601C4A39
:1016E000D96ACC0705D4904201D10724EAE701303A
:1016F000F6E79042E5D1F8E70132DC6A14F008041D
:1017000006D08A42F8D10724DFE700221049F4E727
:101710008A42F8D020220B4B0B495A620122A3F5D2
:1017200080539A6023460A4A486A800603D493424B
:10173000E9D00133F8E79342C7D1E4E700900050C5
:101740000050095000600950004009503254FFFF1A
:1017500040420F004FF0004238B5174B174C5A6605
:10176000012203F50C235A604AF6CD33656C2364DD
:10177000437893401343124AD363C3788178A268B5
:101780009B0043EA011322F074021343A360027921
:10179000837943EA022323614279C37943EA02232E
:1017A00063610078FFF77AFFEB0744BF054B2364C2
:1017B00022F0CBF8012038BD0090005000400950C5
:1017C000004000503254FFFFF8B504460D461F4656
:1017D00016464AB101238B403021184A01FB0022F2
:1017E000F7B141F21001535004EB4403072D4FF0C1
:1017F0000F014FEA031316D8A80006FA00F2814041
:101800000F48184419F035FA4EB9012330210B4A1C
:10181000AB4001FB042277B141F210015350F8BDF7
:1018200042F21001DFE7A5F10800800006FA00F29D
:1018300081400448E5E742F21001EFE700C00350A1
:1018400004C003500CC003504FF40032054B9A669D
:1018500041F6713203F51C33DA63012203F50053BC
:10186000DA6070470090005041F671320121064B5A
:10187000DA6303F50052D1600022DA634FF40032DC
:10188000A3F518339A66704700000350CB784A7866
:1018900010B55B010C7843EA82030A79234343EADB
:1018A00002130C22424302F1B0421363012C02BF27
:1018B0008A78024B43F8202010BD00BFE880035017
:1018C00008B54FF0B0435A686AB958B15B680BB1BC
:1018D00019F0DEF901210D4B596019F0D9F94FF0DB
:1018E000B043D96008BD5B680BB119F0D1F900288D
:1018F000F0D119F0CDF94FF0B0430222DA6019F0BF
:10190000C7F90122024B5A60ECE700BF00100058F3
:10191000002000584FF0B0414B6810B50BB119F0E2
:10192000B7F901220B4BC4785A608378934043EA9D
:10193000840344782343047943EA0413447943EA53
:10194000C4038B60044B5A600378C3F10203CB607D
:1019500010BD00BF00200058001000584FF4803226
:10196000064B5A6603F5E6235B69C3F38512827062
:1019700003F03F021B0B4270037070470090005051
:10198000014B03205B6870470080E00F014B986CAF
:10199000D96C70470080E00F024B1868C0F3074015
:1019A000704700BF0080E00F0120034B9B680A33A3
:1019B00003F01F03984070470080E00F38B50446DD
:1019C000054D21F0E6FF0FCC0FC594E8030085E834
:1019D0000300002038BD00BFA814002047F6FF73A5
:1019E0009A42F0B56FD002296FD8394B5B5C012B5E
:1019F0006BD8384DDF0005EBC30415F83330A17800
:101A0000012B13D10025E078401AA84202D80844DF
:101A1000C0B2F0BD431B6668A0EB530336F91360F8
:101A20009642D4BF1D4603F1FF30EEE76068002800
:101A3000EFD0B0F90040944204DBB0F90240944288
:101A4000B8BF144683883D44FF2B19BFC8224FF00E
:101A5000280CB0F90620B0F908C0A2EB04030CBFB3
:101A60000126002693FBFCF333446E781BB29E42A2
:101A700001DD002B01DA731E1BB24FF47A7C0133B7
:101A80009BB2071D5D1E2DB24FEAC50E00EBC505CA
:101A9000EA88AD689E4214FB025222EAE27202F129
:101AA0005C02B2FBFCF204DD37F83350013395429F
:101AB000E8D200EB0E039888904228BF1046884277
:101AC00038BF0846A4E7FF20A3E70020A1E700BF36
:101AD000254B0200A81400200229F0B555D82C4B44
:101AE000585C012851D82B4C04EBC00114F830008D
:101AF0004B6801280FD1C8788C78904294BFC4EB12
:101B00000001C4EB0201001BCAB28242C8BF00221E
:101B100033F91200F0BD002B37D08878904202D301
:101B2000B3F90200F6E7CC78B3F900009442F1D99A
:101B30004C789988013CA1F1FF06714203F104053C
:101B4000E4B2714103F10C07CEB2B44216D805EBF2
:101B5000C1014FF47A756A43B1F902404968521ADB
:101B600004EBD47102EB610292FBF4F29042D1DB00
:101B7000B3F902009042CDDC10B2CBE737F831C0A8
:101B80004E1C9445E3D33146DEE70348C2E700BF6D
:101B9000254B0200A81400200080FFFF08B5044870
:101BA000FFF70CFFBDE80840012021F0F6BE00BFA2
:101BB000284B020000487047D824002006289ABF0E
:101BC000014B185C00207047AC4B020030B5154B40
:101BD00087B00293144B0390049346F611030D460D
:101BE000059300F077F91428044616D1684619F0D9
:101BF000EBF84FF0A843032202A95A6319601D6154
:101C00009A63DA6B9207FCD1142C02D1684619F062
:101C1000E9F800F093F9044601E00028E9D02046F5
:101C200007B030BDC0140020040000202DE9F04FA3
:101C3000B1B005468C469E46E8466F4EDDF8EC9006
:101C4000409C06F1100A474630687168083603C7A1
:101C50005645B846F7D13E9B03EB0208C8F1000A8F
:101C60000AF00F0AB9F1000F00F09D80C9F10007DA
:101C700007F00F070121DDF8FCB044F00050C4F17B
:101C80001006CDF810B005910690300200F4F8501F
:101C900040F021000790B9F1000F40F08680CDF8A8
:101CA00020D047F00050002D00F0848009912121C0
:101CB0000A9041EA07210B9142F00050CDF830C064
:101CC0003D9B08A94FEA0A2C0D910E904CF0410063
:101CD0000F901093002A75D13E9B119143F0005351
:101CE00012933C9B1390149310AB1593434B444AAF
:101CF000169340F611031793424B0021002D08BFA5
:101D00001346189314AB19933F4B10221A931123C7
:101D10001B931CAB184622F05DFA01221D92002293
:101D200046F0804603461E96239205B9EB46102CDA
:101D3000CDF880B024AE4BD101232246002130469D
:101D40002193229422F046FA20AB002125938F4262
:101D500018BF334647F0804226923A9A2CA8289220
:101D60002993B2FA82F35B0949EA837310222B911B
:101D70002A9322F02FFAB9F1000F00D028AED044F8
:101D800048F080432CA918A82D962E93FFF71EFF2C
:101D900030B92DB90346A34225D1002818BF2C2005
:101DA00031B0BDE8F08F102764E7CDF820E049F0AE
:101DB000005078E7002C3FF479AF04A90991012184
:101DC0000A9076E73E9B0CAA11924120129388E775
:101DD0001022002130462193229422F0FBF9002C9E
:101DE000B2D10123B1E703F1C0026A4412F8C02C5A
:101DF00001331043CFE700BFB34B020010000020B7
:101E0000C84B0200CC4B020004000020F0B5C029F2
:101E10009FB0DDE9244557D0B1F5807F04D08029FB
:101E200048D029201FB0F0BD01265CB140F23447F4
:101E30000294102403960494212401970594069596
:101E400002AC0AE040F21447029410240396049472
:101E50002124059401240197069507940125102457
:101E6000089409950A9221220B950C940D92174A19
:101E70000AAD0E92164A0F95109242F61102119277
:101E8000129313951494159201AA1692D3B112AB22
:101E90001793042318931123199316AB1A901B93CD
:101EA00040F61103C9081C911AA806A91D93FFF753
:101EB0008DFEB7E7012614B94FF48267C4E74FF4EB
:101EC0008667B5E70EABE3E70F20ABE7C44B020034
:101ED0001000001038B5164B5A6E42F004025A66D4
:101EE000D3F8802242F00102C3F88022114B5B68D4
:101EF000C3F3080343B14FF0A842D36B13F0430F71
:101F0000FBD11424204638BD4FF0A843DC6B14F0FD
:101F10004304FBD1084D2B681BB90421284603F06C
:101F2000BFF92B68013343F000432B60EAE700BFA1
:101F30000080005000ED00E0C0140020014B0020A4
:101F40005B68704700ED00E04FF40052034B002047
:101F50009A660322C3F86022704700BF00900050C9
:101F60004FF40052034B00209A660322C3F860220C
:101F7000704700BF00A00050012300F01F02A0F531
:101F800006200949A0F550604009934051F82020EF
:101F90001A4341F82020054951F8202022EA030283
:101FA00041F82020704700BFD8140020C41400203E
:101FB0000121A0F506230E4AA3F550635B0900F04A
:101FC0001F00814052F82300014342F823100949C1
:101FD000D1E90030034488680344C86809690344B0
:101FE0005B1802BFC2E90033C2E9023313617047D4
:101FF000C4140020D81400202DE9F04FA9B003929A
:102000001D4604460822339ECDE90401414021FAD1
:1020100002F34B40980702F1080218BF9B00202AE8
:102020001C44F4D18123B4FBF3F303EBC313E41A90
:10203000734B04F506241B7804F55064002B3ED145
:10204000FEF7E4FB074620B16FF0910029B0BDE830
:10205000F08F0146402208A822F0BCF84022394601
:1020600018A822F0B7F8DFF8B481DFF8B491C346BE
:102070000BF10F0ACDF800A0102208A95B46D9F891
:10208000000021F035FA0022014608F1100808AFDF
:10209000914246D1CDF800A05B461022D9F800004D
:1020A00018A921F02EFA4FF0000A834618AFD34545
:1020B00041D1544B9845DAD10122514B1A704FF05F
:1020C000810A4FF00008DFF85CB1A4F50627A7F5F8
:1020D00050635B095BF8232004F01F01CA40D2075C
:1020E0003DD4494A52F82330CB40DB072AD5B8F11A
:1020F000000F08BFA0468123A7F6FF47B7FBF3F305
:1021000003EBC313FF1A07F50624BAF1010A04F51D
:102110005064DAD1039BBBB1B8F1000F14D0444630
:1021200019E057F8040BCDE90612FFF725FF079ACF
:1021300006990132ACE757F8040BFFF739FF0AF1B3
:10214000010AB4E7039B13B96FF08B007EE7B8F187
:10215000000F18BF4446349B00201C6076E7329B7A
:1021600013B10023329A13600EB1002333601023A1
:10217000DFF8AC9000932A4600232146D9F80000EE
:1021800010F0EEFC60BB32992A68204BC9B99A4224
:1021900006D02146D9F8000010F07AFD0028D3D1EE
:1021A000D5E90223DDE90410834208BF8A42A2D1A7
:1021B000039B002BCFD06B68012BCCD16FF0840038
:1021C00044E7102032999A420860E2D1002EE7D00D
:1021D00033462146D9F8000018AA10F015FD48B181
:1021E0000B4B9842D5D00B4B9842D2D00A4B984219
:1021F000D6D029E7329A336812689B1A3360CFE74A
:10220000AF20002000710800C4140020105D175E8C
:10221000FFDF00F011E000F0FEDF00F0006D0800CD
:10222000D0230020D81400202DE9F04F87B082463B
:10223000894698461646DDF840B02AB1002B4FD0AB
:1022400040F26C739A424ED8BBF1010F4ED8002475
:1022500006F1100739460120059418F02AFF0546BB
:10226000002846D021463A4621F0B4FF05ABCDE91F
:10227000014300942B46012250464946FFF7BCFE1D
:10228000044680B110F18C0F08BF6FF08D043A4600
:102290000021284621F09EFF284618F0ECFE20463B
:1022A00007B0BDE8F08F144BC5E902A92B60C5F853
:1022B00004B02EB13246414605F1100021F092FFE4
:1022C000059E0E483B462A463146006810F0B0FB9A
:1022D00018B93046FFF750FED9E76FF09104D6E702
:1022E0006FF08604DBE76FF09104D8E76FF08504A8
:1022F000D5E76FF08C04D2E7105D175ED023002085
:102300002DE9F0438DB08146DDE914780E4615467F
:102310001C469BB1B8F1000F05D16FF08606304620
:102320000DB0BDE8F083002FF7D0B7F1005FF4D314
:10233000C3F1005303F500439F42EED81022002161
:1023400008A821F047FF002207AB029305AB0193D9
:1023500006AB31460093484608ABCDE90522FFF7AE
:102360004BFE06460028DAD1059BA4B1AB4215D836
:1023700053EA0504D1D1069B0B48C8F800400094ED
:102380003A46079900682B4410F0EAFB002818BF72
:102390006FF09106C3E7AB42EDD2BEE75B1B9C42F8
:1023A00028BF1C46E7E700BFD023002030B58DB022
:1023B0000C4605461022002108A821F00BFF002240
:1023C00007AB029305AB019306AB21460093284669
:1023D00008ABCDE90522FFF70FFE0446D8B9099BEB
:1023E000012B1BD0079D104B2946186810F050FC9C
:1023F000B8B90122A5F506230C49A3F550635B0982
:1024000005F01F00824051F823004240284641F861
:102410002320FFF7CDFD20460DB030BD6FF08404C2
:10242000F9E76FF09104F6E7D0230020D8140020DC
:102430002DE9F04F89B007460E4602F02FFAC0078B
:1024400009D40424012019F0CBFA80B3013CF9D15E
:102450006FF0920028E0102200210DEB020021F025
:10246000B9FE04A802F07CFA049B002BE9D0059B7E
:10247000002BE6D0069B002BE3D0079B002BE0D07F
:102480000025DFF8808008F10409B54219D34FF424
:102490008A7402F0FDF900F00E03062B2DD1C3055E
:1024A00001D502F027FA002009B0BDE8F08F02F054
:1024B000EFF910F00E03FAD0022BF8D04105DFD56A
:1024C000C4E702F0DFF9A6EB050A8400544528BFF3
:1024D000544699E8030000238DE80300CDE9054345
:1024E00007EB050BCDF810B0029404AAD8F8003021
:1024F00007CA19F06EF92544C7E724FA03F3DA078F
:10250000A6D5C6E7D84B02002DE9F0438BB017469D
:10251000DDE91545DDE913269C46DDE917388946D6
:1025200021B96FF086000BB0BDE8F083002FF8D022
:102530000EB9002CF5D1129909B9002AF1D10DB9C3
:10254000002BEED1B8F1000FEBD0244A944541D1D5
:102550000288B2F5105F3DD14288B7EBD20FE0D3CD
:1025600022F04001802902D0B2F5807FD9D16CB32E
:10257000AE421CD23219954219D29C42D1D8314672
:102580002246284621F00CFE2E4614F00F03C8D137
:10259000CDE90197CDE90336CDE90543CDE90754EF
:1025A0000993FFF7D1FC38B16FF09200BBE79C4272
:1025B000EBD96FF08900B6E707AA04A901A802F0D9
:1025C00093FA0546FFF7CCFC0543EDD10020C8F88F
:1025D0000040A8E76FF08500A5E700BF0044400475
:1025E0002DE9F04FA9B0834617469A460E46DDF80E
:1025F000C890DDF8D88029B96FF08603184629B055
:10260000BDE8F08F002AF7D0B9F1000FF4D0349B69
:10261000002BF1D0B8F1000FEED00024424B0CADEE
:1026200093E8070085E807003C22214619A8189482
:1026300021F0D0FD3388728803F4E040B0F5804F7C
:10264000DAD03A4E3A480BEA060646F01066864261
:1026500063D1B2F5807F60D147F2121293425CD110
:102660000620344ABAF11F0FD3680E940B931369F6
:10267000126800FB03F3CDE90C23BDD9339B402B3B
:10268000BAD9359B1F2B4BD909F101022026129292
:10269000402299F800300F97042B18AFCDE913248E
:1026A000CDE91572109611941794A5D1FFF74CFC43
:1026B00003460028A2D10B9B15AACDE9086305AB00
:1026C00007CA83E8070002AB12AA07CA83E807001B
:1026D000DDE910018DE803000F9B95E8070002F08B
:1026E000DDFA0546FFF73CFC55EA000384D13D4680
:1026F000349A20AE2C4603CCB4421060516025467B
:1027000002F10802F6D100221146B9540132402AE2
:10271000FBD12022C8F8002070E76FF085036DE739
:102720006FF089036AE700BFFC4C02000000FFF66F
:1027300000000209104D0200F0B50E461D468BB098
:10274000002853D0002951D0002A4FD0002B4DD063
:10275000048804F44F43B3F5824F03D06FF0850033
:102760000BB0F0BDE3B224F0FF04B4F5E24FB0F8D3
:1027700002C0F3D1122B01D0172BEFD10CF10701BE
:10278000B2EBD10F4FEAD10733D31D4A04ACBCF5ED
:10279000807F07CA84E80700E0D1122B07D1194BCC
:1027A0001A691B681344CDE9043200230693002301
:1027B000CDE907670993FFF7C7FB0028D0D1124A7C
:1027C00002AB92E8030083E803000AAB13E90300BD
:1027D0008DE80300079B94E8070018F07FFF04468C
:1027E000FFF7BEFB204307D12F60B9E76FF08600EB
:1027F000B6E76FF08900B3E76FF09200B0E700BF73
:10280000FC4C0200104D0200D04B02002DE9F043B9
:102810008FB01D46DDE916C600285CD000295AD0CD
:10282000002A58D0002B56D0BCF1000F53D0002EF8
:1028300051D0038803F44F44B4F5824F51D1DCB238
:1028400023F0FF03B3F5824F40884AD0122C01D009
:10285000172C46D1C31DB2EBD30F4FEAD3083AD39E
:102860004FEA4802571C674538D8B0F5807F38D109
:10287000122C18BF4FF000094FF0000308BF1C4C8A
:10288000CDE9081805F1010114BF4C46D4F80C90AD
:10289000CDE90B120A930D93FFF756FBC0B9CDE9B2
:1028A000058902AB08AA07CA83E807000EAB13E943
:1028B00003008DE803000B9B94E8070018F02DFF40
:1028C0000446FFF74DFB20430ED104232B703760E5
:1028D0000FB0BDE8F0836FF08600F9E76FF0890074
:1028E000F6E76FF08500F3E76FF09200F0E700BFC6
:1028F000104D02002DE9F04389B00E4615461F46E3
:10290000DDF8488020B96FF0860009B0BDE8F0839B
:102910000029F8D0002AF6D0B8F1000FF3D00388D0
:1029200003F44F42B2F5824F02D06FF08500ECE71E
:10293000DAB2122A01D0172AF7D123F0FF03B3F538
:10294000E24F41D14488C8F8004044B9EB00B3F5E8
:10295000807FC8F80030E8D1122A0DD108E0E31DCD
:10296000B5EBD30FCFD1B4F5807FDED1122A29D1B8
:10297000354B1C681B691C440023194670192C44F4
:1029800014F801CD10F8012D1143B2EB0C020CBF6D
:102990004FF0FF3C4FF0000C86420CEA030343EA81
:1029A0000203EDD10029AED0002BACDA109B9D4282
:1029B00046D82A463146384621F014FC119B0020A7
:1029C0001D60A2E70024D7E73378042B9BD16B1E50
:1029D000DB005B08B3F5807FC8F80030A5D1122A70
:1029E00006F1010318BF4FF000094FF040020593B4
:1029F0004FF000030ABF144C4C46D4F80C90CDE9BC
:102A00000623FFF7A1FA00287FF47FAFCDF80C90E2
:102A1000D8F800300733DB08029308AB13E9030052
:102A20008DE80300059B94E8070018F023FF044697
:102A3000FFF796FA00287FF468AF002CB6D062E763
:102A40006FF0890061E700BF104D02000388B3F505
:102A5000105F0ED14388DB08103B102B0CD8084ABE
:102A600022FA03F313F0010F14BF00206FF0860069
:102A700070476FF0850070476FF08600704700BFA9
:102A8000010101002DE9F04F8FB01546DDE918A9CD
:102A90001E46DDF868801C9F09B300B3B8F1000F33
:102AA0001DD0E7B1BAF1000F02D1B9F1000F16D174
:102AB000274B26F47E129A42B0F802B044D1FFF7B9
:102AC000C5FF0446A8BBB5EBDB0F4FEADB0306D31B
:102AD00016F47C1FC6F3054504D0102D03D96FF002
:102AE000860426E010251B9A95422AD8CDE90113C9
:102AF00000231022CDE905930DF12809CDE9033A11
:102B0000CDE90823CDF81C90FFF71EFA044680B9E2
:102B100007AA04A901A801F0FBFF0646FFF720FA67
:102B2000044656B958B92A464946404621F05AFB50
:102B30003D6020460FB0BDE8F08F6FF09204002595
:102B4000F6E76FF08904F4E76FF08504F1E700BF62
:102B50000002C0032DE9F041069F0C4616460546CB
:102B600010B309B302B9FBB96288B3EBD20F4FEAD5
:102B7000D20819D34C220021284621F02BFB0D4B03
:102B800027F47E129A4212D12046FFF75FFF0446D7
:102B900038B942463146281D21F024FBC5F824806F
:102BA0002F602046BDE8F0816FF08604F9E76FF0F2
:102BB0008504F6E70002C0032DE9F0410E461446F5
:102BC0000546002840D000293ED092B10368214834
:102BD00023F47E1383423AD1AF6BF7B1C7F11008EB
:102BE00007F128004245284406D2274421F0FAFA8A
:102BF000AF630020BDE8F081424621F0F3FA1022D5
:102C0000103C3C19AA63F4D0284605F1280118F0BD
:102C100044F90028EED14644A863102C0CD9671E55
:102C200027F00F073A463146284618F036F90028B3
:102C3000E0D1E41BDDD03E442246314605F12800B8
:102C400021F0D0FAAC63D4E76FF08600D2E76FF0E2
:102C50008800CFE70002C0032DE9F04388461F46F5
:102C600005468BB070B169B163B10368234923F4A1
:102C70007E1088423ED113F47C1FC3F3054604D076
:102C8000102E03D96FF086042AE0102696422BD826
:102C9000FFF75AF9044618BBAB6B05F12802CDE9E2
:102CA00001236B6A2A1DCDE904231023CDE90830E6
:102CB00007AB1A460390069005F13C0901A904A848
:102CC000CDF81C9001F048FF0546FFF749F904468E
:102CD0006DB928B932464946404621F083FA3E6034
:102CE00020460BB0BDE8F0836FF08904F8E76FF081
:102CF0009204F5E76FF08504F2E700BF0002C0031D
:102D000070B505460C4617F07DFE072D064607D820
:102D1000BB23EB40DB0737D40023238021243DE095
:102D2000083DEBB2142BF7D8142DF5D801A353F8B6
:102D300025F000BFA72D0000AD2D0000192D0000CB
:102D4000192D0000B32D0000BD2D0000192D00002D
:102D5000C32D0000C32D0000192D0000CB2D000055
:102D6000192D0000C32D0000192D0000192D0000A1
:102D7000192D0000192D0000192D0000192D00003B
:102D8000192D0000C32D00008020FEF7BFF84FF67C
:102D9000FF73984220800CBF0E240024304617F0A9
:102DA00037FE204670BD4FF48060EEE74FF4906030
:102DB000EBE74FF4C060FEF78BF8E8E74FF4F06004
:102DC000F9E7002323800F24E8E74FF4E060F2E7FF
:102DD000B8B1036813F4E07F03F03F00C3F382123D
:102DE0000AD0012A0DD1084B41B103F580530122CD
:102DF00082401A6000207047044BF5E703F500534A
:102E0000F5E70E20704700BF6880005064800050D6
:102E100030B58BB06D46624C0FCC0FC554F8043BF7
:102E200068462B604FF07E6393F89C306D46FF2B15
:102E300008BF2A238DF80130FEF78CF93220FEF707
:102E4000C7F90FCC0FC50FCC0FC594E8030085E878
:102E50000300544BD3F84C21110340F18B80A3F5B0
:102E6000FE431C884FF6FF739C4208BF79248DF8FF
:102E70001940FEF737F9044484F308044A488DF8F2
:102E80001840FDF79FFC6846FEF74CF83220FEF72D
:102E9000A5F94648FEF760FA454C01213520FDF7BB
:102EA00025FF0020FEF7A0F9FEF734FA236F00207B
:102EB00023F0070343F003032367236F23F47443D2
:102EC00043F48063236717F0B4FE3A4BD3F8FC2039
:102ED000D20153D4D4F88030C4F88030344BD3F8C6
:102EE000202122F0030242F00202C3F82021D3F88D
:102EF000242122F0070242F00202C3F82421D3F871
:102F0000802122F0030242F00102C3F88021D3F8AD
:102F1000402122F0030242F00202C3F84021D3F81C
:102F2000602122F0030242F00202C3F86021D3F8CC
:102F3000402222F0030242F00202C3F84022D3F8FA
:102F4000002222F0070242F00202C3F80022D3F866
:102F5000202222F0030242F00102C3F82022FDF7F2
:102F60009FFF4FF0E0220020136963F00403136118
:102F70000BB030BDD3F85041E4B278E7D3F8FC2071
:102F800022F08072C3F8FC20D4F88020C4F880209E
:102F9000D3F8FC2042F08072C3F8FC209EE700BF0B
:102FA000E44B02000080E00F00F0490200B4C404CA
:102FB0000080005000ED00E007B56B46054A106840
:102FC000516803C36846FEF7C5FB002003B05DF8F7
:102FD00004FB00BF204C02006FF00403502110B529
:102FE0000A480B4C13F0800F03F1010206D1234471
:102FF000402A83F800131346F4D110BD03F00F03E9
:10300000043B034419761346ECE700BF00ED00E0F3
:1030100000E100E0BFF34F8F0549064BCA6802F498
:10302000E0621343CB60BFF34F8F00BFFDE700BFEB
:1030300000ED00E00400FA05002807DB0123410948
:10304000034A00F01F00834042F82130704700BF60
:1030500000E100E0002808DB01224309034900F0F9
:103060001F008240603341F82320704700E100E0F8
:103070000028ACBF00F16040064B4FEA0111C9B215
:10308000ABBF00F5614000F00F0080F80013195449
:10309000704700BF14ED00E073B50024684600F0EF
:1030A000AFF90C4B00981C600B4B0C4D1C600C4E88
:1030B0000C4B306018602C6018F005F82046019B1E
:1030C0003268013BDB0853802B6801332B6002B070
:1030D00070BD00BFF0140020EC140020F414002098
:1030E000FC140020F81400202DE9F04F0027924630
:1030F00087B04A1C0E4614BF0C4608249946059713
:10310000002B00F0B0801F60002800F0AE80073078
:1031100020F0070517F076FC05AB314602900093CE
:1031200052463B46284600F075F9059E804606B19A
:1031300030B9029817F06CFC192007B0BDE8F08F89
:10314000DFF83CB17788DBF80010FB00C0EBC70765
:103150000139272FCBF800106CD9BAF1000F48D1F4
:10316000854205F1080740D02146304617F03DFF63
:1031700004460590059B1F44384617F0A4FF0599A7
:1031800005F10F034A88C3F3CF03D21A7A80CA88A5
:10319000BB8062B3D31A9BB201EBC202FB80938067
:1031A0008B88ED08A380BB880022314638466580B5
:1031B000E38000F0A7F9237843F001032370DBF8E4
:1031C00000300133CBF800302B4A029813680834E2
:1031D00043441360294A11688B4288BF136017F07B
:1031E00017FC0020C9F80040A7E73446C2E7FA8080
:1031F000D6E7F4192046039317F065FF08F107029C
:10320000D20805996280FA1DD208A280CA887AB1D4
:10321000D200039BD01DC31A4344C3F3CF030A4417
:10322000E3809380A388013FFF084F80CB80C2E7F3
:10323000E280F7E7BAF1010F19D106F10803B3FBF9
:10324000F4F204FB1233A3B12146304617F0CDFE51
:1032500004462378012243F00103314620462370BF
:1032600000F050F9B0E7222067E7212065E78542AA
:10327000EAD13446EDE700BFF0140020EC14002042
:10328000F41400202DE9F3470446684600F0B8F82E
:10329000002C00F0AB8017F0B5FB14F8086CF307B6
:1032A00004D534F806ECBEF1000F05D117F0B0FBE1
:1032B000012002B0BDE8F0874D494E4D0A68D5F8AF
:1032C0000080A2EBCE020A6034F8041C0EF1010368
:1032D00008F10102A4F1080C9BB22A60B9B3ACEB6F
:1032E000C10292F800A0B2F806901AF0010F5788B8
:1032F00006F002061FD1FEB9A9EB0701012926D865
:103300000EF102031F44BBB2C5F8008034F8026C12
:10331000FEB9013B9BB214F8081C6FF3000104F8DE
:10332000081C002124F8061C53801378D18061F317
:103330000003137031E056B119448BB214F8081C25
:103340006FF3410104F8081C00219180DEE762461A
:10335000DCE70CEBC608DDE900710F44B845D8D2B4
:103360001CF83670414617F001072AD0013B9BB28A
:1033700014F8085C6FF3000504F8085C002524F8D5
:10338000065C5380137865F300031370C2F10703E2
:103390000B44C3F3CF03D3808B8017490B681BB159
:1033A000934201D85B8803B90A6014490B681BB1CA
:1033B000934201D35B8803B90A6017F029FB002010
:1033C00077E7A6EB0E06012ED0D8B8F80260A8F871
:1033D00002703344B8F806702E689BB2013E1FB1EC
:1033E00008EBC7012E60C3E72E6094E7222060E758
:1033F000F0140020F4140020FC140020F814002025
:103400000249034A0160521A4260704710250020A9
:1034100000800020F0B506460020059F4C1C08BF28
:1034200008213860BAB91F480568002D38D0B5F8B2
:1034300002E0DB0003EBCE0EC1F1000C2878C007E0
:103440000BD52ABBE888B0B105EBC005B5F802E0A2
:1034500003EBCE0EF2E71448E6E7B645F1D35AB9CE
:1034600005F10804B4FBF1F001FB1044A0190CB104
:103470007045E7D83D60F0BD08290FD06C88013455
:1034800005EBC404A01B00EA0C00201A8645F1D20B
:10349000A8880028EFD0A5EBC005D7E73046E9E7BC
:1034A0002846E8E7FC140020F8140020134B13B55D
:1034B0001B6804460846FBB121B96846FFF7A0FF28
:1034C0006CB900980378D90707D55CB9C3889BB15C
:1034D00000EBC3000378DA07F8D402B010BD084B44
:1034E0001868EFE7012C07D183882BB1A0EBC3004C
:1034F0000378DB07F8D4F0E70020EEE7F4140020AF
:10350000F8140020F8B5154F05460C463B68144EDC
:10351000B2B1994209D041B13368994204D12946E8
:103520000120FFF7C3FF3060F8BD29460020FFF7F8
:10353000BDFF33683860A342F1D0002CEFD0F3E731
:10354000994205D13D603368A34204D13560EBE771
:103550009842F7D3F7E7AB42F8D3E5E7FC14002035
:10356000F8140020BFF35F8F074B5A6A22F48032B1
:103570005A62D3F8942022F00102C3F89420BFF3DA
:103580004F8FBFF36F8F704700ED00E038B5FFF746
:10359000E9FF274A2748D2F8C030274D23F0FF0320
:1035A00043F0A003C2F8C030244B04689D4204F1EC
:1035B00001011DD1224BC2F89840C2F89C3003F59E
:1035C000FF437E33C2F8A0300160BFF35F8F052256
:1035D000174BC3F894205A6A42F480325A62BFF300
:1035E0004F8FBFF36F8FBFF34F8FBFF36F8F38BD18
:1035F00023F01F03203BB3F1005F09D3C2F89840CA
:103600000F4C43F00103C2F89C40C2F8A0300160A7
:103610000C4B0168064A23F01F0343F00303C2F872
:103620009810C2F89C30084B0131C2F8A030CBE7AB
:1036300000ED00E000150020A0230020C0210020A4
:1036400003000020BF230020E17F00202DE9F0418E
:103650000D461146DFF8E080D8F80040B4F5807FD1
:1036600034BF00271A27FFF77DFF1F292ED900211D
:10367000C2061CBF20F01F0020302E4EEB0618BFE4
:1036800025F01F05CBB29C4235D8D6F8C03020F0CB
:103690001F0023F47F4343F48073C6F8C03040F02A
:1036A000030417F0AFF9D8F8003025F01F0141F0FE
:1036B0000301C6F89830C6F89C40C6F8A01017F071
:1036C000A7F9D8F800300133C8F80030BFF35F8F96
:1036D0000522184BC3F894205A6A42F480325A6289
:1036E000BFF34F8FBFF36F8FBFF34F8FBFF36F8F5A
:1036F0003846BDE8F081C6F89830D6F89C30D6F848
:10370000A02023F01F03984222F01F0201D195420E
:103710000BD0904201D89D4209D2D6F898300131A1
:1037200023F0FF03C6F89830ACE70027CEE7282740
:10373000CCE700BF00ED00E000150020BFF34F8F85
:103740000549064BCA6802F4E0621343CB60BFF33D
:103750004F8F00BFFDE700BF00ED00E00400FA0559
:10376000054B1A782AB95B78002B0CBF0320022086
:1037700070470120704700BFBA2000200329F8B528
:1037800098BF124B05460E468CBF00245C5C032894
:1037900005D8DFE800F002080B0E44F002040C4BE1
:1037A0001F684FB9F8BD44F00804F8E744F020045E
:1037B000F5E744F08004F2E77B681A68144203D00E
:1037C000314628465B6898473F68EAE73C4C020070
:1037D0003015002038B5104D2B78ABB10F4C237845
:1037E0001BB100F0C5FB00232370002017F081FC03
:1037F0000B4C50B100F00EFC0023012120782B70FF
:10380000FFF7BCFF0123237038BD0122054B1A705E
:103810002278054B1A70F7E7B5200020B32000206E
:10382000BC200020B6200020B720002010B517F0E3
:10383000E2F8064B04461B781BB1BDE8104017F0B8
:10384000DEB8FFF7C7FF2046F7E700BFB220002031
:10385000094A137830B101331370084B1B78012BE0
:1038600003D87047013B13707047054B1B780BB9A9
:10387000FFF7B0BF704700BFBA200020BC20002077
:10388000B620002070B517F0B6F8174E0546174859
:1038900017F04CFB3378D3B900F0F8FC044620B1A4
:1038A000284617F0ACF8204670BD114817F0B3F861
:1038B00000F078FF0F4B1C6000F0D0FD0E4B0F4A5C
:1038C0001860536F43F00103536717F019FC00F0C1
:1038D0002FFA17F010FC0A4B002418600123284629
:1038E000337017F08CF8DEE7BD2000202C4C02006E
:1038F00030150020041500202C1500200040005039
:10390000081500202DE9F843284A0138135C39B125
:10391000274F013339781354012904D8BDE8F883BF
:10392000013B1354FAE7FFF71BFF0128044635D883
:1039300017F061F8DFF88480054698F8003013B37B
:103940001C4E33781BB9012232701B4A1370DFF80A
:10395000709099F8003023B100F00AFB002389F839
:103960000030284617F04BF8012017F0C2FB17F083
:1039700042F8337805461BB100F04CFB002333704E
:10398000002388F80030284617F039F83878A0422C
:10399000C4D02146FFF7F2FE3C70BFE70329F5D102
:1039A0000228F3D117F0ABFBF0E700BFBA200020EC
:1039B000BC200020B2200020B6200020B52000202E
:1039C000B320002010B5044617F015F8002C0CBFEA
:1039D000FF210121064A13780B44DBB21370B3FABE
:1039E00083F3BDE81040034A5B09137017F007B872
:1039F000B9200020B820002038B516F0FCFF094B94
:103A000005461B78012B04D816F0F9FF0024204648
:103A100038BD054B1C6800F047FB0444284616F0EF
:103A2000EEFFF4E7BC2000200415002038B541600B
:103A3000044616F0E0FF05462146044816F0EEFF66
:103A40002846BDE8384016F0DABF00BF3015002028
:103A5000054B1B685843054B00F5742000F23F20CE
:103A6000B0FBF3F0704700BF2C15002040420F0060
:103A70002DE9F04F85B0EFF3108772B6AFF30080F9
:103A800016F07BFF00286FD07F4EDFF82882337856
:103A900023B10020FFF7DCFE00233370FFF760FE48
:103AA0000446002867D0841EE4B2012C6AD9FFF7CF
:103AB00057FE01280546754CDFF8FC9100F28C801A
:103AC0002078854240F0C480207800F0D7FA99F839
:103AD000003013B16E4B1B782370AFF3008007B931
:103AE00062B6EFF3108772B66A4B1A7852B10022B1
:103AF0001A70674B20781B78984203D101212170FE
:103B0000FFF73CFE644800F0FBFB16F040FF054663
:103B10000028BCD1614BDFF89081187098F8003014
:103B2000ABB189F80000DFF8889199F800301BB13B
:103B300000F01EFA89F80050002017F0DAFA002889
:103B400000F0998000F066FA002388F8003033789E
:103B500023B10020FFF77CFE002333700021207882
:103B6000FFF70CFE00232370AFF3008007B962B6A5
:103B700005B0BDE8F08F3378002B98D0FFF768FED2
:103B8000347094E7002003A900F008FC04460028E4
:103B90008DD1D8F80030039A9A4205D80120FFF75A
:103BA00057FE0123337082E73D4B1D6800F07CFA1D
:103BB000039B05449D42F1D200F08EFA82000399E6
:103BC00042F0020292B2CDE900422346354A491B37
:103BD000314817F0A0FA6AE7334BDFF8C0A01B7832
:103BE00003F0FF0B2BBB00F047F9207885422FD163
:103BF0009AF800307BB92C4D2B78002B7FF464AF02
:103C00002A4B1B7823B900F0ADF90122284B1A701A
:103C100001232B7058E7022DEDD18AF800B014E093
:103C20002378022B24D100238AF800301FF0E9FF0B
:103C30001EE0207885420BD19AF80030002BDAD0B4
:103C4000022DD8D100238AF800301FF0DAFFD2E726
:103C50000023DFF848A08AF8003099F8003013B943
:103C60002946FFF78BFD9AF800302570002BD7D13D
:103C7000012DC0D828E7012000F000FA07B962B68C
:103C8000EFF3108772B657E7B4200020BC20002065
:103C9000B7200020B02000200C150020B820002004
:103CA000041500202D380000B5200020B920002088
:103CB000B320002008150020B620002010B516F013
:103CC0009AFE0022054B1C781A7016F098FE00F040
:103CD000A5FCE4B22043C0B210BD00BFB12000205B
:103CE00073B5114E0446337883420FD04FF40073FE
:103CF0000E4DADF8043058B101A8FDF7F3FB40209C
:103D0000FFF7A6FE2B68181A2860347002B070BD49
:103D10008DF8050001A8FDF7E5FB4020FFF798FEB0
:103D20002B681844F0E700BFE92400206815002044
:103D300073B5002401A88DF80440FDF7A5FC2046CA
:103D4000FFF7CEFF404A4149136F414803F0070394
:103D50000B60D2F800113F4D01F0030101604FF4F8
:103D600000203D49032B48664FF40030486601F5BA
:103D700098318969C1F3400129705DD0D2F82031B2
:103D800003F00303981E43424341D2F82421334CED
:103D900002F00702022A08BF43F001034FF4C87083
:103DA0002370FFF755FE00222D4B2E4918602E4E32
:103DB0000B680132D2B20A2A46F8040BF9D1034447
:103DC00000EBC00003440B602B78284D63B32378CD
:103DD0001D4A3BB9D2F8003103F00303591E4B4290
:103DE0004B412370D2F8003103F00303022B25D09E
:103DF000032B26D0012B17D1FCF7DEFC024698B12D
:103E00001B4B1C4EDC6800231946C4F30B04013421
:103E100004EB84040138E4FB060115F06FFEFFF7A4
:103E200017FE2B6803442B601F20FFF711FE2B6841
:103E300003442B6002B070BD0123A6E7FCF7D6FC5B
:103E4000DCE716F0D0FDD9E7008000506C150020AB
:103E500070150020C120002000900050C2200020DA
:103E600034150020381500203C150020681500206E
:103E700000C0015040420F00074A0849D2F82031E3
:103E800003F003030B60D2F82431054A03F0070363
:103E9000136016F0E7BE00BF0080005078150020C8
:103EA0007415002008B5104B1A78C2B100221A70A0
:103EB0000E4B1A6F22F0070242F001021A67D3F884
:103EC000202142F00302C3F82021D3F8242122F05C
:103ED000070242F00302C3F82421FCF757FC012239
:103EE000034B5A6708BD00BFC0200020008000506F
:103EF00000E000500122154B10B55A67144B154CC9
:103F00001B7813B3022017F06AF9F0B100F076FACB
:103F1000D8B1A36DD90302D5E36D9A0715D40D4B23
:103F20009B6DDB0711D401220B4B1A7017F036F989
:103F3000BDE81040094B0A4A1860136F23F00703CD
:103F400043F003031367FCF721BC10BD00D0005001
:103F5000C220002000C00050BF20002064150020B7
:103F6000008000500122014B1A707047C0200020D1
:103F7000F8B51F4B1B78002B39D01E4C2378B3B9F2
:103F80001D4B9A6DD10302D5DA6D92072FD49B6D2C
:103F9000DB072CD417F002F9184B194A1860136F7D
:103FA00023F0070343F003031367FCF7EFFB17F05D
:103FB000F5F8124B134D1B68134EC01A2B78134F94
:103FC00056F8232046F82300111A3A681048521A6E
:103FD0000A213A600932B2FBF1F20133DBB202602E
:103FE000B3FBF1F201FB12332B7000232370F8BDF9
:103FF000C2200020BF20002000C000506415002017
:1040000000800050BE2000203C1500203815002004
:104010003415002008B516F028FE124B12491A6F0D
:10402000096822F007020A431A671049D3F82021D1
:10403000096822F003020A43C3F820210C49D3F88F
:104040002421096822F007020A43C3F82421094BFE
:104050001B7813B10122084B9A62BDE80840FCF7B7
:1040600095BB00BF008000506C1500207815002023
:1040700074150020C220002000E0005002280AD061
:1040800003280BD001280CD1064A136923F004033E
:10409000136130BF70470020FDF730BA0020FDF7F4
:1040A00061BA704700ED00E0054B187818B1054B78
:1040B000186800EBD000044B1B681844704700BF21
:1040C000C220002034150020681500200122014B79
:1040D0001A707047C2200020014B1878704700BF4B
:1040E000C220002038B517F067F80025084B094CAE
:1040F0001A682368C31A2AB123B15169994203D3BC
:10410000C91A5161206038BD55615B1A9268F2E7A7
:104110008415002080150020C38870B504460D4624
:104120003BB9FFF769FC8542064602D216F0D5FF7F
:1041300035460E4965610B688BB90C60A3600DE0D4
:10414000AD1A9A68184665616AB113465A69AA425F
:10415000F6D930B18460521BA3605A6170BD002053
:10416000F4E70C60F7E79C60A260F7E78415002095
:1041700038B5134D2B685B6993B1124A022014685D
:104180001C4417F020F8204600F094FA00230E4952
:104190002A680B70D088800709D501230B7038BDC1
:1041A000022017F010F8022000F0CEFAEEE7926835
:1041B000002AF4D050690344012BEBD9EFE700BF8C
:1041C0008415002080150020C420002070B51646FC
:1041D0009DF81420C0E903360271049ABDF8183026
:1041E0000260002204460D468260C380EEB916F0DC
:1041F000E3FF2844A0619DB12E4616F0FCFB054666
:10420000FFF770FF31462046FFF786FF104B1B6813
:10421000A34201D1FFF7ACFF284616F0F0FB02E005
:10422000E36865617BB9002070BD16F0C5FF3044BE
:10423000A061002DE0D1E3686561002BDDD0204650
:1042400021689847D9E7204621689847EBE700BFE7
:104250008415002000220C490B687BB183420AD1EF
:1042600083687AB1936083681BB15A6941690A44D3
:104270005A61002070471A469B68EEE70028EFD08D
:10428000022070470B60EEE78415002070B516F031
:10429000B9FB144E05463478FCB9134B1C60134B24
:1042A0001C60134B1C8000F0C5F9012016F08BFF39
:1042B00000F06CFA0F4B0246186020B9284616F041
:1042C000A7FB232070BD234640F2E7310A4815F0D2
:1042D00015FC0A4B186001233370284616F098FB32
:1042E0000020EFE7C5200020841500208015002065
:1042F0005C2000208815002018FCFFFF7C150020A2
:1043000070B5044640B316F076FB144E0546FFF731
:10431000E9FE3068A04209D02046FFF79BFF044623
:10432000B0B1284616F06BFB204670BDFFF792FF38
:1043300004460028F5D133683BB9022000F0ECF9BF
:10434000284616F05CFB0024EEE7FFF711FFF7E7C5
:104350003368002BF4D1F0E72224E5E78415002030
:1043600038B50C460546A8B1A1B100230B7016F074
:1043700049FB0121084B1B6833B916F049FB0020AB
:1043800038BD9D4204D121702278002AF9D0F4E78B
:104390009B68F1E72220F3E784150020F8B5064674
:1043A0000F4616F02FFB00250446124B1B6823B95D
:1043B000204616F02DFB1B2011E05A691544DA88BF
:1043C000B2420DD116F0F8FE0B4E3368C01AA84267
:1043D0000AD3002320463B6016F01AFB0020F8BDEC
:1043E000FF2EEFD09B68E2E716F0E6FE33682B4421
:1043F0001B1AEFE7841500208015002008B5084B34
:104400001B7803F0FF004BB116F0C8FE054B1B688C
:104410009B69C01A02288CBF0020012008BD00BF84
:10442000C42000208415002070B516F0EBFA064673
:1044300016F0C2FE084B04461D880120ADB216F0EE
:10444000CEFE18B116F0B8FE04460135304616F01F
:10445000DFFA2046294670BD5C200020014B186819
:10446000704700BF88150020F8B50C4B05461B6847
:104470000E4683420FD3002440F2E7302146084B1A
:104480004FF47A721F680023E5FB070115F036FB35
:1044900030602046F8BD2120FCE700BF7C150020DD
:1044A000881500200F4B10B51A689AB14FF47A7135
:1044B000531E1342A0FB01010ED1B2FA82F2C2F1E7
:1044C0001F04531CD243E04001FA03F3184321FABE
:1044D00002F20243104610BD002315F00FFB024606
:1044E000F8E700BF88150020C2072DE9F047044611
:1044F0000BD5474A138801339BB21380FFF7F2FDB7
:10450000444B1B680BB1FFF733FEA3077ED516F0B3
:1045100079FA4FF0000905464E46FFF7E3FDC8461D
:104520003C4F3C680CB163698BB100223A4B012EC1
:104530001A7003D119F0020F18BF1E70002C61D041
:10454000FFF716FE2846BDE8F04716F061BA23468D
:104550005A693AB91A792179914288BF1C469B68F9
:10456000002BF5D1284616F053FA2569DDB116F077
:1045700023FEA269A0EB02094FEAE9734D4578EBEF
:10458000030311DA23691344A361E368B4F80690C6
:10459000013613B120462168984716F033FA0546D4
:1045A000FFF7A0FDBDE7A94616F02CFA824620468B
:1045B000FFF750FE504616F02BFA2369002BE4D08B
:1045C000A38BB5EB090533B1E28B13449BB2B3F572
:1045D0007A7F0FD2E38316F015FA814629462046EA
:1045E000FFF79AFDA369226948461344A36116F0B8
:1045F0000FFACAE7A3F57A73E383A369013D013B90
:10460000A361E8E7022000F087F89BE7BDE8F087A8
:104610005C20002084150020C320002010B516F077
:10462000F1F9034B1C7816F0F3F9E4B2204610BD03
:10463000C32000201FB500241B4B18689A880290E5
:10464000D3F806009B7A00901848ADF80C208DF83E
:10465000043016F06BFC02A88DF808408DF80C4071
:10466000FDF758F9694601208DF80040FDF70EF975
:104670004FF0B04240F2FF31936923F47F7323F08F
:10468000030393610A4B5961936A13F00803FBD14A
:1046900013620120FDF714F90C20FEF7DBFC0C205F
:1046A000FEF7CAFC04B010BD404C0200284C0200CA
:1046B0000020005810B5044616F09DF94FF0B042A6
:1046C000936A1907FCD4136A116C5269520604D418
:1046D000CA1A032A01D899420ED1E21A022A98BFB7
:1046E000DC1CB4F1FF3F38BF013C4FF0B0431C6409
:1046F0009A6942F040029A6116F081F9054A1378EE
:104700003BB14FF0B041CB6B43F00203CB630023CE
:10471000137010BDEA240020820700F001030AD5BF
:104720000121084A43F0400311704FF0B041CA6BB9
:1047300022F00302CA634FF0B0418A6922EA030300
:104740008B617047EA240020830742BF4022014B5F
:104750005A6170470010005810B516F053F94FF029
:10476000B04304465B695A06074A03F0010003F0B0
:10477000510348BF40F002005361FFF7B5FE2046E9
:10478000BDE8104016F044B90020005807B5044BAE
:1047900001A9187916F0C0FB019803B05DF804FB7D
:1047A000304C02000A4B10B5D3F8403203F003033B
:1047B000013B012B0BD816F01EF904460121022003
:1047C000FFF7A0F82046BDE8104016F018B910BD5C
:1047D00000800050024A0349034806F077B800BF42
:1047E0004C4C0200644C0200A44C02004FF080527A
:1047F000014B5A60704700BF00ED00E01B0603F05C
:10480000706300F00F000902034301F470611204A9
:1048100002F470220B431343014A1360704700BF38
:104820000020025C60B5054619B10139B1F5806F11
:104830000FD2094EF06810F48030FBD143EA012317
:1048400012072B4302F08052134343F0004373607E
:1048500060BD0120FCE700BF0020025C0122054B87
:104860009A60DA68D203FCD4D86820F00F00000404
:10487000000C70470020025C014B1868704700BFB5
:104880000040025C014B5868704700BF0010025C9A
:10489000014B186B704700BF0010025C014B186899
:1048A000704700BF0010025C014B9860704700BF6A
:1048B0000010025C014B1864704700BF0010025CDE
:1048C000014B5864704700BF0010025C014B5863F5
:1048D000704700BF0010025C0022014B1A60704755
:1048E0000010025C024A136843F001031360704732
:1048F0000010025C024A136823F001031360704742
:104900000010025C43F20402014B1A60704700BFC2
:104910000010025C024A136843F0300313607047D2
:104920000010025C044B1A6842F480721A601A6824
:1049300022F480721A6070470010025C024A136809
:1049400043F48063136070470010025C034A1368ED
:1049500023F4702343EA0043136070470010025CA5
:10496000044B1A6902605A6942609A698260DB6985
:10497000C36070470010025C0268044B1A61426811
:104980005A6182689A61C268DA6170470010025CFD
:10499000024B1A6BD207FCD4186270470010025CFD
:1049A0000322024B186019615A6370470000025CD1
:1049B00082B01FB507930A9B04AC8B4228BF0B46FD
:1049C00004E907001048D100079948BF033301608C
:1049D000099948BF23F0030323F0704301F0E0413D
:1049E000194341F000518160002102F0E042019C36
:1049F0001A4342F00052C16004618261416304B015
:104A0000BDE8104002B070470000025C3F22034B3B
:104A10001A631022DA6103229A6370470000025C75
:104A2000024AD36B9B07FCD4704700BF0000025CB6
:104A3000044B9B6A13F0240F14BF01200020800058
:104A4000704700BF0000025C08B5FFF7F1FF064B9E
:104A5000DB6B23F47F4323F0EF0303431EBF0122EC
:104A6000024BC3F8FC2F08BD0000025C00F0FF3FC2
:104A70004368182B0AD0202B1DD0102B2BD1174B9D
:104A8000D3F80434DB010AD401207047134BD3F868
:104A900004349A01F8D50B6843F008030B600368EF
:104AA0000F4A934210D10B6843F040030B60002380
:104AB000436000207047094BD3F804345B01E3D511
:104AC0000B6843F00403E9E7064A9342F1D10B680F
:104AD00043F08003EAE70720704700BF0000025C54
:104AE000C7200020C62000200B4607B50749D1F893
:104AF0000414C90708D5002100920246084600F0B8
:104B00005BF803B05DF804FB0120FAE70000025CEB
:104B10001346064AD2F80424D20504D50A460146B3
:104B2000002016F0D1BD0120704700BF0000025CDC
:104B300013B5084CD4F80444E40508D50093134693
:104B40000A460146002000F061F802B010BD0120C5
:104B5000FBE700BF0000025C13B5084CD4F8044426
:104B6000E40508D5009313460A460146002000F0EC
:104B700071F802B010BD0120FBE700BF0000025C2D
:104B800070B504460D4616468CB00A4A09AB07CAF2
:104B900083E807001A462146CDE90563CDE90333D2
:104BA000CDE9013300954FF4803016F0B9FC0CB01C
:104BB00070BD00BFFC4C0200F0B51C465B6815469A
:104BC0008DB01A07129E1AD1CBB17268934216D1DA
:104BD0000C4B0D4A53F8217009AB07CA83E8070054
:104BE0001A462946CDE90533CDE90333CDE9016302
:104BF000009447F4807016F093FC0DB0F0BD0720D0
:104C0000FBE700BF084D0200FC4C0200F0B5164661
:104C10005A688DB0102A0D46129F15D17A68102A55
:104C200012D10A4A09AC07CA84E80700224629467D
:104C3000CDE90547CDE90344CDE901440448009698
:104C400016F06EFC0DB0F0BD0720FBE7FC4C020037
:104C500030000100F0B516465A688DB0102A0D4696
:104C6000129F15D17A68102A12D10A4A09AC07CAD4
:104C700084E8070022462946CDE90574CDE90344BE
:104C8000CDE901440448009616F04AFC0DB0F0BD91
:104C90000720FBE7FC4C02001000010082B070B559
:104CA00086B0149D03AE202D86E807000B9359D8DB
:104CB00005EB85038B4203D006236B438B4253D114
:104CC0000C9BAB4250D10F9BB3EB450F4CD1129ACA
:104CD000934249D1012229462220159BFFF7A2FDCC
:104CE000044630BB034606220E210C20FFF786FD4A
:104CF0000123CDE900332B4696E8070016F0A3FB0D
:104D00000E230BAA009307CA2B4616F0E7FA0C23D2
:104D1000164C00930EAA2B4607CA16F00FFB6368C9
:104D200023F07F0343F026036360FFF797FD30B164
:104D30000624204606B0BDE8704002B070476368A4
:104D400023F07F0343F022036360FFF787FD0446EF
:104D50000028EDD1062311AA009307CA2B4616F0AE
:104D600020FBE6E70124E4E70724E2E70020025CF9
:104D700070B598B0002843D02C4C08AD0FCC0FC5AF
:104D80000FCC0FC50FCC0FC594E80F0085E80F00BE
:104D90006D4604AE04F1100320340FCB85E80F00FC
:104DA00094E80F0086E80F00FFF7BCFD0420FFF732
:104DB000CDFDFFF7A7FD3046FFF7DEFD002408AE6E
:104DC00056F8040B0134FFF7E3FD102CF8D1FFF780
:104DD00059FD0328FBD90024FFF77EFD2646FFF787
:104DE0004BFD55F8043B01365840042E44EA0004BC
:104DF000F5D12CB1012206200D4B1A7018B070BDF0
:104E0000FFF790FD0820FFF74FFD0020FFF752FD50
:104E10000720FFF755FD4FF40070FFF757FD0820FE
:104E2000FFF794FDFFF75EFD0020E7E7E44D020089
:104E3000C920002008B5FFF775FD0122014B1A704B
:104E400008BD00BFC82000201FB516F0BCFD0446F9
:104E500030B1012206240D4B1A70204604B010BD5B
:104E6000FFF70AFD0090FFF707FD0190FFF704FD33
:104E70000290FFF701FD03906846FFF77DFDFFF705
:104E8000D9FFFFF747FDFFF759FDE6E7C9200020EE
:104E900010B50A46044619B1024B00211B68984719
:104EA00010BD00BFD42300200E4B0340B3F1607F40
:104EB00006D1B1F5885F14BF6FF0860000207047FF
:104EC000B3F1707F0BD101F4E043B3F5005F06D17D
:104ED00011F4E06F0CBF6FF08600002070476FF098
:104EE000860070470000C07F8A42F8B506460C462F
:104EF00000F0DB806F4922F4FF7323F001038B4243
:104F00000ED06D4B22F0FF01994209D06B4822F47C
:104F10007F7323F00303834202D0694B994228D167
:104F2000684B24F0FF0199420FD114F0FF000BD021
:104F3000654B40F00070984240F0B98082EA04006E
:104F4000FF288CBF00200120F8BD5B4B9942ECD0BC
:104F5000A3F588539942E8D024F4FF7323F00103AA
:104F6000B3F1062FE1D056488142DED053498B423F
:104F7000DBD004F0FE43B3F1A06F14D102F0FE4386
:104F8000B3F1A06F40F0938082EA040333F47E1300
:104F900040F08D8014F40040D6D0C4F30540C2F335
:104FA00005429042CDE7B3F1407F6AD102F0FE4363
:104FB000B3F1407F7BD182EA040535F47E1576D1CA
:104FC00031462046FFF770FF002870D13F4B12F4A6
:104FD0007C1703EA02031BD0B3F1607FC2F30547DD
:104FE0003FD13B49D3B243F000738B423DD003F134
:104FF0007E43043B0F2B01D83649CD5C14F47C1F53
:10500000C4F3054333D1BD4214BF002001209BE708
:10501000B3F1607F0DD12E49D3B243F000738B42C0
:105020001DD003F17E43043B0F2BDAD82A49CF5C15
:10503000D7E7B3F1707FE1D106F4E043B3F5005F49
:1050400003D10127C6F302239F4006F4E043B3F5E2
:10505000005FD3D10125C6F302218D40CEE7102792
:10506000BFE7B3F1707FC9D1EFE71025C6E712F4AF
:105070007C1F01D1AB4218D022047FF565AFBB4243
:105080005FE7B3F1106F12D124F01F6020F470209D
:1050900068B902F0FE43B3F1106F7FF455AF0F48CB
:1050A000104040F01060A042AEE701204CE7002025
:1050B0004AE700BF000200060013000600040006D5
:1050C0000009000600030006FF0000020000C07F88
:1050D00003000002444E0200444E02000000FFF6AE
:1050E0002DE9F8431746002288461C4600F05AFA7C
:1050F000054688BBD8F80060B6F8009009F4E04394
:10510000B3F5804FF36808BF27F0010737EA0303C0
:105110001AD10CB3254B24F0FF029A421FD114F090
:10512000FF0304D0224A43F00073934232D0224658
:1051300048463169FFF7D8FE074668B92246484617
:105140007169FFF7D1FE70BB6FF084050023304614
:10515000C8F8003017F0BBFA2846BDE8F883154BB5
:105160009A42DCD0A3F588539A42D8D024F4FF7336
:1051700023F00103B3F1062FD1D00F498A42CED0DC
:105180000E4A9342CBD004F0FE43B3F1407F04D1EA
:105190002304CCD56FF08605D8E7B3F1A06FF7D024
:1051A000034B9C42C2E73D46D6E700BF0003000622
:1051B000FF000002001300060009000600040006BC
:1051C00038B500F0FE43B3F1407F04460D4602D0EF
:1051D0006FF0860038BDFFF767FE0028FAD114F49F
:1051E0007C1F12D0C4F30543032B137022D9284A25
:1051F0002240B2F1607F3DD1264AE4B244F000740F
:1052000094422BD1102BE5D9E2E7214B2340B3F197
:10521000607F15D11F49E3B243F000738B4202D186
:1052200010231370D6E703F17E43043B0F2B04D900
:10523000002313706FF08500CCE71749CB5CD3E7F0
:10524000B3F1707FF4D101F4E043B3F5005FEFD127
:105250000123C1F302218B40DBB2C5E704F17E4498
:10526000043C0F2CB4D80D4A125D9342B0D8142BD5
:10527000B0D9DFE7B2F1707FAAD105F4E042B2F510
:10528000005FA5D10122C5F30225AA40EDE700BFCA
:105290000000C07F03000002444E0200444E0200A2
:1052A00037B50B4D0C462B787BB100230A46019392
:1052B000014601AB281D15F021FE20B9019BA34238
:1052C00018BF6FF0930003B030BD6FF08800FAE7AD
:1052D0008C1500202DE9F04F9B460023924601F0EB
:1052E000FE4297B0B2F1806F0E46DDE92078DDF81E
:1052F0008890089305D0184617F0E9F96FF08604F6
:105300003CE00B464FF4807208A9FFF7E9FE044623
:1053100018B1089817F0DBF930E0DDF820C00DACCB
:105320006546CDE914000FCD0FC495E80700BCF821
:10533000003084E8070003F4E042B2F5005F20D1BA
:1053400013F4E06FC3F302211BD0384826F48072B7
:1053500082420AD000F50070864206D03448864268
:1053600003D0A0F53F4082420BD101258D40102D86
:1053700012D9604617F0ABF96FF08304264600257A
:1053800048E042F20402934202D12A4B9E420BD0E3
:10539000294B9E4244D10D25A84507D2604617F0FF
:1053A00096F96FF08904E9E70C25F5E7294609A885
:1053B000FFF776FF04460028ABD10898D0E9091220
:1053C00087B307EB050C0E9CA8EB0503240A93D1C9
:1053D0000DF12408CDE90539CDE903BC3346CDE90B
:1053E000015ACDF800800DA8FDF78EF8044614F19F
:1053F000860F08988ED017F06AF90646002CBDD1AA
:1054000090B925B12A46414638461EF0EBFED9F840
:1054100000301D443046C9F8005017B0BDE8F08F89
:105420000025CAE7BC46CEE70446A7E70010C00443
:1054300000FF4004000180040013C00408B500F020
:105440005FF8064B5A7812B10022C3E90122BDE889
:1054500008400C210148FFF71BBD00BF8C15002040
:1054600070B50C4D2B7873B915F046FD044668B93C
:1054700002230126C5E90100AE706B7000F038F818
:10548000044618B92E700024204670BDFFF7D6FFE1
:10549000FAE700BF8C15002000F100420332022A17
:1054A00038B504460D4609D82C21104B01FB0233B8
:1054B0009A68824211D06FF08B0010E0012117F042
:1054C000B8F878B1094B9A68944206D05A6B944266
:1054D00006D01A6E9442EED1583300202B6038BDAE
:1054E0002C33FAE76FF08700F9E700BF981500202A
:1054F0000122024B002083F8842070479815002079
:1055000070B5094C002526460421204617F0A2F864
:105510000135204616F040FC032D04F12C04F3D194
:10552000002386F8843070BD98150020F8B51B4C18
:10553000064694F884300F464BB30025234629468F
:1055400093F820001A46B8B125B91A7912B1022889
:1055500008BF1D460131032903F12C03F0D115B911
:105560006FF08C0015E00421284617F073F868B935
:10557000284616F011FC2A460020094B141BA410E3
:105580005C4304F10044033C34603A60F8BD6FF0C2
:10559000880000233B603360F8E700BF98150020C7
:1055A000A38B2EBA2DE9FF4100230B60394B8046B7
:1055B00093F884300D461646002B68D0FFF76CFF39
:1055C0000446A0B92EB9286804B0BDE8F04117F030
:1055D0006BB8012E04D00024204604B0BDE8F08151
:1055E0000521286804B0BDE8F04117F033B810F188
:1055F0008C0FF1D1294601A8FFF798FF0446002837
:10560000EAD101232F68CDE90200C7F808803846A7
:105610007B6003AA02A917F005F9044688B1DDE909
:10562000020117F0FDF82D680421284617F012F842
:10563000284616F0B1FB14F18C0F08BF6FF08704F9
:10564000CAE7DDE90212384616F031FB0446DDE90F
:10565000020117F0E5F8002CE5D10221384616F0DA
:10566000F9FF04460028DED12868C368D90444BF86
:1056700043F48063C360C3689A0444BF43F4006387
:10568000C360002EA0D0012EA5D10521AAE76FF09E
:105690008804A1E79815002030B40D4D2C681C60DB
:1056A0006C685C6000249C605468DC6014881C8218
:1056B00054885C82D4685C6114699C61526930BC16
:1056C000DA6119620A46014603F124001EF08ABD20
:1056D000544E02002DE9F843232904460F46914613
:1056E0009846089E04D86FF098052846BDE8F883D0
:1056F000082219491EF044FD05460028F3D1A3688D
:10570000002BF0D1216A243F8F42C8F80010EAD361
:10571000B1F5005FE7D271B9C9F80000E3687360C2
:10572000238A3380638A73806369F360A36933617A
:10573000E3697361D9E7012015F0BBFCC9F80000EB
:1057400030B1D8F8002004F124011EF04BFDE5E74C
:105750006FF08C05C9E700BF544E0200F7B505464F
:105760006B461646174A0C461068516803C395F8F5
:105770002A3008336B4413F8087CB5F84830DA0651
:1057800009D4334622463946284617F0D5F800F5A5
:10579000FA7003B0F0BD20461EF00BFFB5F848309C
:1057A00000F10A049B074FEAC40405D030461EF0FE
:1057B00000FF04F50C740444E823781E584304FBEE
:1057C0000700E4E75C4E02009422144B10B51C68FD
:1057D000002102FB004420461EF0FCFC104B04F1AB
:1057E00008001B680021DB78637618F0CBF94FF0D6
:1057F00008236362072384F82A30236A094A43F0A6
:1058000013032362084B2046A364084BC4E91D32EE
:10581000C4E92132BDE8104017F0B2B820160020CC
:10582000F4170020555555001300FFFFD6BE898E92
:10583000F0B5104B02461E6893F804C035464FF091
:10584000FF3400239C4508DC91B1631C10D09423E5
:1058500003FB046080F84A20F0BD95F84A702846A2
:105860009742F9D0FF2F08BF1C4694350133E9E772
:105870000020F1E72016002070B50446234D0028D3
:1058800042D0083001F026FE0026FF2304F130004C
:1058900084F84A30E6611EF020FE04F134001EF068
:1058A0001CFE04F138001EF018FE04F13C001EF04E
:1058B00014FE04F154001EF010FE2868144B201A48
:1058C00080105843C0B217F02EF80146304617F04A
:1058D00025F8606C10B100F037FF6664A06E18B157
:1058E00017F034F80023A366E06E17F02BF80023BE
:1058F000E36670BD286806FB0400FFF7BDFF0134B6
:105900002B79A342F6DCF4E79426F9E72016002071
:10591000AD1B4C91F7B5044619F023FDC0F30F23DE
:10592000542B3ED9AA2B34BF01230223C0B27E28B8
:105930008CBF0222012203218DF804301344B3FBF3
:10594000F1F000EB40001B1A8DF805301344B3FB57
:10595000F1F202EB42029B1A8DF806300023184642
:105960001D461A46104901AF4B7517F8016B44FAF2
:1059700006FC1CF0010F06D053009E40012330436B
:105980000132C0B2D2B20135EDB2032DEDD103B177
:1059900048754B7D43EA82134B75FF230B7503B0AB
:1059A000F0BD0023C2E700BF20160020064B1B6895
:1059B000D97ADA78437E5B1A9342A8BFDAB2002123
:1059C000427617F019B800BFF4170020B0F8643021
:1059D0002BB9836813F4601F08BFA0F8643011B1BD
:1059E000012913D070474369417E23F010034361BE
:1059F000084B1A68D37A92780B449342D8BFDAB234
:105A0000C369427623B1012116F0F6BFFFF7CEBF7E
:105A1000704700BFF41700202DE9F0410025354EF6
:105A20008AB03379AB4203DC01200AB0BDE8F081D3
:105A30009423346803FB054494F84A30FF2B0DD0BF
:105A4000236A980106D504F1540840461EF0A9FDCA
:105A5000074628B9226A12F0A06F1ED10135E0E78F
:105A6000BB7908A90C333B44D8689A7A1B8AC2F3E5
:105A70008012ADF8243000238DF81F2008901A46BC
:105A80000DF11F0016F066FF38469DF81F2094F8B0
:105A90004A1008AB18F0EFF8D7E7B4F848301D2BE0
:105AA00018D13C23FF210020CDE90431CDE90200CB
:105AB0000121CDE9000004F15B03C2F3802218F05C
:105AC000B2FB0028B1D04FF0A06104F1200016F025
:105AD00003FFC3E712F0807F08BF3C214FF00002B4
